{
  "contractName": "AgeCheckWithOneHundredTripleForVerifier",
  "abi": [
    {
      "inputs": [
        {
          "components": [
            {
              "components": [
                {
                  "internalType": "uint256",
                  "name": "X",
                  "type": "uint256"
                },
                {
                  "internalType": "uint256",
                  "name": "Y",
                  "type": "uint256"
                }
              ],
              "internalType": "struct Pairing.G1Point",
              "name": "a",
              "type": "tuple"
            },
            {
              "components": [
                {
                  "internalType": "uint256[2]",
                  "name": "X",
                  "type": "uint256[2]"
                },
                {
                  "internalType": "uint256[2]",
                  "name": "Y",
                  "type": "uint256[2]"
                }
              ],
              "internalType": "struct Pairing.G2Point",
              "name": "b",
              "type": "tuple"
            },
            {
              "components": [
                {
                  "internalType": "uint256",
                  "name": "X",
                  "type": "uint256"
                },
                {
                  "internalType": "uint256",
                  "name": "Y",
                  "type": "uint256"
                }
              ],
              "internalType": "struct Pairing.G1Point",
              "name": "c",
              "type": "tuple"
            }
          ],
          "internalType": "struct AgeCheckWithOneHundredTripleForVerifier.Proof",
          "name": "proof",
          "type": "tuple"
        },
        {
          "internalType": "uint256[102]",
          "name": "input",
          "type": "uint256[102]"
        }
      ],
      "name": "verifyTx",
      "outputs": [
        {
          "internalType": "bool",
          "name": "r",
          "type": "bool"
        }
      ],
      "stateMutability": "view",
      "type": "function"
    }
  ],
  "bytecode": "0x608060405234801561001057600080fd5b50613ee2806100206000396000f3fe608060405234801561001057600080fd5b5060043610610047577c01000000000000000000000000000000000000000000000000000000006000350463d8177a63811461004c575b600080fd5b61005f61005a366004613d37565b610073565b604051901515815260200160405180910390f35b604080516066808252610ce0820190925260009182919060208201610cc08036833701905050905060005b60668110156100ed578381606681106100b9576100b9613dee565b60200201518282815181106100d0576100d0613dee565b6020908102919091010152806100e581613e20565b91505061009e565b506100f88185610115565b60000361010957600191505061010f565b60009150505b92915050565b60007f30644e72e131a029b85045b68181585d2833e84879b9709143e1f593f000000181610141610298565b9050806080015151855160016101579190613e39565b1461016157600080fd5b604080518082019091526000808252602082018190525b865181101561020f578387828151811061019457610194613dee565b6020026020010151106101a657600080fd5b6101fb826101f685608001518460016101bf9190613e39565b815181106101cf576101cf613dee565b60200260200101518a85815181106101e9576101e9613dee565b6020026020010151613525565b613583565b91508061020781613e20565b915050610178565b5061023881836080015160008151811061022b5761022b613dee565b6020026020010151613583565b905061027c85600001518660200151610250846135d9565b85604001516102628a604001516135d9565b60608801518851610272906135d9565b8960200151613678565b61028c576001935050505061010f565b50600095945050505050565b6102a0613ae4565b6040805180820182527f0a2948573cd96a8f3fb38341b91d91cffb2b2ff03b532d4d73d512468b3e2a0781527f18ac595290b6fa74a423a0ebe263ee3fc14e7f4cac2e71f537f1fdc9087a04b16020808301919091529083528151608080820184527f0111416e4c5639d211329527bb16c5375e795363068c21b1aaff3dd7190ca6388285019081527f2350a9b02f637350152980ded0d6d36e41d0a47762fe329385a458f9e499e5ce606080850191909152908352845180860186527f22c9b9203f1b460d989833b76902a80c2a76f15e98e4fbb1e2f2736ddda2814681527f2cc99a10e4b137e1d155599a55975e9e532d6438fbf7e85e2f7df2c826d95d1d818601528385015285840192909252835180820185527f0a1239e84aeea3e09af6fa57e63577b209de2d8b98737c96e495eb02633aed6f8186019081527f08ea9efc0b6f2eaf8e124962585fda5ae3fc8a82538b852913b5ce7c65c59fcb828501528152845180860186527f17050903235813dd2cded714b2d32c9840e21b29af1a920d7e745a78384739f181527f23ad9adb3900bdd61b03065483983eff4c858e48aba8fc3dd26a1dc6b53595e3818601528185015285850152835190810184527f01e28321884a10468ef0563c8c812d1b953201e0421d811048c5acf8067b0c9b8185019081527f2314f37f581fd9e1ed67fa8a6674730ca9363ccea9bdc547dec7dbab4363b1cb828401528152835180850185527f22db234153e40fa205f30d8e9c8dbead23dbae81d1e33896f6af30465ba4d2f381527f06847eafc1cb4154582f0ee30dcef269ddb4a4767b639817028d52570d0977f181850152818401529084015281516067808252610d008201909352919082015b604080518082019091526000808252602082015281526020019060019003908161051c57505060808201908152604080518082019091527f06e615cbe98e1fb4aaa1f15e8dcef969da154074ec0f03fcf64cc6dbc09183d381527f109cfd1de2b747e07f894f70af742ad16cb872429a574acb205ee10469e62a016020820152905180516000906105af576105af613dee565b602002602001018190525060405180604001604052807f1cc362cbca3d40c726e26fcea3f4efe354c607d62b1c1a337f1e2fa4b0bf5a3081526020017f2c9b0ee3bd744885fd4c0cdafd238bd6b1080b01d2f549a7cb9264bd49edeb11815250816080015160018151811061062657610626613dee565b602002602001018190525060405180604001604052807f087264ac88abb1a19f5f24b977971a0186e0ceefa7c050c9d0e6b160f1346d1681526020017f25f4fbc76835aa631611271e3e3816996b302d190169bb392b4a207235cb9bba815250816080015160028151811061069d5761069d613dee565b602002602001018190525060405180604001604052807f1edc3707d92ef913bcff219d11079d9d1557a2412945ee380fa52737c93cd00181526020017f2ff8a6073b19f88b5607826d85ec8a59733b26e8912b54f2428d55ce498ad444815250816080015160038151811061071457610714613dee565b602002602001018190525060405180604001604052807f1697b4c2d3e378fd797c0cf725d3c349fa7c417986a48eac272ac067898c8e4781526020017f057ad3ea75170195632b69f77e80862f3dfb5ce56343c064328a20ce177aa888815250816080015160048151811061078b5761078b613dee565b602002602001018190525060405180604001604052807f15856284b02e9a28d6fc349d6fa72740a6dbbf9bbaf7e8d6112b5b12163384de81526020017f242a1bbd958c9c374e218f9c482ec51c64ed5fe99144f3ad5b16dab733a458d3815250816080015160058151811061080257610802613dee565b602002602001018190525060405180604001604052807f0f176a1dabcac3eae990131fbf6da753f05375d7f2a2cf175d6c22b8401337c381526020017f1b872369c4c18d955d9820001c54e011ec6a94e02f8b92a806d7574227e52f94815250816080015160068151811061087957610879613dee565b602002602001018190525060405180604001604052807f01edea5e6e85a0d6cb0725ec051f2d0273916f2ff2b723c4da34bd0aacb8b86881526020017f04e381c9f4a9cfcd0d5f984aae59076857f767da09414af642030f50eb9fd2ea81525081608001516007815181106108f0576108f0613dee565b602002602001018190525060405180604001604052807f0db091d2eef3d31fd41273b4a84c98e95beda5a26ce52fb3bb491c932dd1d1d181526020017f1f59eea21d155ee7aa6b8b256c80b689d030b119078284596da4bd93f694a0b5815250816080015160088151811061096757610967613dee565b602002602001018190525060405180604001604052807f1770cfb880938e7ce0131c03bc4f40aaffcb4652153308012f63077f8cdc9e0581526020017f11764f7c8049af20c7ed031fb5ae82325148e1b0729316b07d63772d756e26a181525081608001516009815181106109de576109de613dee565b602002602001018190525060405180604001604052807ec5972dc829097d95a4eb742cf4badd154479c1661cd7acbcf811a02f80d25281526020017f1b9585665bca0ce548089a64f6d8e5a48088f3425813db0559d5a3a14025f2208152508160800151600a81518110610a5457610a54613dee565b602002602001018190525060405180604001604052807f0a6f16dda978357ddc25288dd567ec8041d17fed31c6e402c1b67908d3da7ee981526020017f0829f337c39b12f1658da69aa1b6222888ab6a2d20352bb413d3f7a8d13c580c8152508160800151600b81518110610acb57610acb613dee565b602002602001018190525060405180604001604052807f100426b3b5c3dd03d62fbca80308db1190616dc97f5055b521eb01e4c4d049f181526020017f16966f3d5c0672c0d744698339a70821f6a79965587fa568b0f9e425c776878c8152508160800151600c81518110610b4257610b42613dee565b602002602001018190525060405180604001604052807f0a5f65380858d794582186f4e0fb49cd943cada8aa8ee220c73bc103b18b008481526020017f0f3ae8ac9747ed2412816c9b3a3e063908adda74393308d731f5cae51a35fbfa8152508160800151600d81518110610bb957610bb9613dee565b602002602001018190525060405180604001604052807f1a1af952c8e9c493e5e061dcaa5c24eb6fac4bd6a2de888731c56f29dedef05d81526020017f05e82a31d4b36f7268b5e87754237115e3d014e459364bb23f9c233a40641ab68152508160800151600e81518110610c3057610c30613dee565b602002602001018190525060405180604001604052807f23a7e9076bef747153d0c522716f64fadd0e64ce54a15f1b3d574e98d0be69c581526020017f2e0a24df365b64b6c93a7365c7736ad0655b48a285e9322d7e20cc8ed5c0fe7d8152508160800151600f81518110610ca757610ca7613dee565b602002602001018190525060405180604001604052807f2cb1fc5827ff502d034cf16265040b2a2cbe7d3a339885c3999854752bc917a581526020017f0c2dbbc2443806554510271d1e0bdab76c0a5273f3c579b9b86d813a7c226c378152508160800151601081518110610d1e57610d1e613dee565b602002602001018190525060405180604001604052807f01169fc08f64c703e172f5bfc163e5d4c6a8d826bcded2e752a473ef235f2e9c81526020017f20df0ec40a975d578e669c083cf4b46217c40105089d08e8f07e8ce2b96dfbe98152508160800151601181518110610d9557610d95613dee565b602002602001018190525060405180604001604052807f1359522c5e5fdfe987a3f8edab34b86d06333d04fe7daa716ce1cd91fcf667ce81526020017f199c4d34146d6af22110eb7892c32d4fb1b406466322dafdd7dbe7498ce188128152508160800151601281518110610e0c57610e0c613dee565b602002602001018190525060405180604001604052807f161ba4d2eabcac0f1689ab2a4ce08a94a497915bbd99dd37995b2daf7a4ac07381526020017f015760d0225083b3dbc099c4f7b4f08727aa6138437718896ed7822a0d3c69468152508160800151601381518110610e8357610e83613dee565b602002602001018190525060405180604001604052807f17118815e3cf0d1ac542c63561b232c6b9167a3553875104d70d18dd6ce8772f81526020017f0ff7d091a23734020764c2776060d32d611446a6433b9de4dfc56cfea43955e08152508160800151601481518110610efa57610efa613dee565b602002602001018190525060405180604001604052807f20aee17b21cad84874fc53ad61df38314f4c3886224c2f21d081310984870e9981526020017f29871b3aca1106b4badbbd5cdcc72b8086ad226b844f9f10d5b469d4c0d45f068152508160800151601581518110610f7157610f71613dee565b602002602001018190525060405180604001604052807f0bde45c0754174260d48a78b22328a43eae716ee6037aa7727c54c7ead30c78081526020017f295c60e99b79a3f52d73e02327a80a671e69a955167c24c036db0d0f3324f47a8152508160800151601681518110610fe857610fe8613dee565b602002602001018190525060405180604001604052807f0c596e782adcc9e4518021d71955a574cab2f284eef6a8d2499394be15bd083781526020017f01a8561d94af9f2626a54bba29e9d42a0627979029e8a998c9a7fafd0465e15d815250816080015160178151811061105f5761105f613dee565b602002602001018190525060405180604001604052807f20cbe3b80f3cd1888e3164719024360ef937625a56e24a4fe4f7346fd9ac95e581526020017f2255523b42c3e2ab442b1ea8d6fccd88ea018000ad1febeb5fcc7640c3d20d8a81525081608001516018815181106110d6576110d6613dee565b602002602001018190525060405180604001604052807f24c659444da8af83d6309247d4bb127ff07a759af5823cecbcdcbaa49094d2b581526020017f1e13b061e2667b3d07592fba8f699ee0f181f7dd01eeb399091f1c52b0ce6ba8815250816080015160198151811061114d5761114d613dee565b602002602001018190525060405180604001604052807f24e17ed102a80abf2268b90aebbdcc9160ac551009ec7c6c8f0914fe29f3c67981526020017f06b38f17fe18715381501ccafff34e821ecb2c228487383371eeb4c62da6ccb78152508160800151601a815181106111c4576111c4613dee565b602002602001018190525060405180604001604052807f2da6e4b7fa7b9e5b8ce5c106a4b98c4d36de26c383d3653068fd1f18b41967ca81526020017f2bdb084201c80eae05c59a9f817110fa0d5a0d68d59afe778cb8b432fe54336e8152508160800151601b8151811061123b5761123b613dee565b602002602001018190525060405180604001604052807f2e29853050fc1f12c85509daf65c7c5fb4770eb667f115bfaa039457622354ae81526020017f14d38c38e9c7b2a2d2aed28192d45bc5826b20f110c4f34941e793be6d5bf0fe8152508160800151601c815181106112b2576112b2613dee565b602002602001018190525060405180604001604052807f1239d26c5def83707e32b3ae29579017745c905b6a8115965d4bdad3bde92c5e81526020017f1c15b7ff290cb65ddbf9a3bba27096f7d2312e897cbdf3ae0e821639a37c5cbe8152508160800151601d8151811061132957611329613dee565b602002602001018190525060405180604001604052807f1b765d7ff64dc3ec7e9e9bbf95382feba8ec4ca813150c3e0aeb968ed94e672981526020017f0ad66a74df3f94cd0a9799cefbd802373c9239777eb14345bab7e36718a4f3f48152508160800151601e815181106113a0576113a0613dee565b602002602001018190525060405180604001604052807f1a8efedc7f522116b71caafcb99be3fc4615e896df85dd51c7a5b8d7d5f616c881526020017f065ed06b957bc21f23d0261b3078db2baa5d3298b679387df1dc8d79d6cc3c7a8152508160800151601f8151811061141757611417613dee565b602002602001018190525060405180604001604052807f20107db8f0a07ad2d7f7bd4678b7016243c4fcd963980f1b7da89d07ccc6fe5b81526020017f092d0fc0504687b65ca7c954571002451d260ceb32244b3fdea90cddb6c9e705815250816080015160208151811061148e5761148e613dee565b602002602001018190525060405180604001604052807f049b4f1cf67db8f8fadc997a62d22f862df9872f3b406da77568ed6af59f753381526020017f269347fa4fc1549804c6c51f9134f717157e4c37fb4aa543aae9d708e94697fc815250816080015160218151811061150557611505613dee565b602002602001018190525060405180604001604052807f06b79c6880ba0014cc181ff2e6ff35f528e433a555f2b04e7efd323a22e90b3281526020017f2bd2f45d8df9fff4a9bc37ef295a3bebcf7b8256eccad144d73685089231e2dd815250816080015160228151811061157c5761157c613dee565b602002602001018190525060405180604001604052807f25516d7964c6a150033709c47c2dd3aa1b6c55296f4dccca95d2cafa6651a9b781526020017f04694311f950e1adffcf230b69fab7533b9bdbf25439406dfc153dc4715174c281525081608001516023815181106115f3576115f3613dee565b602002602001018190525060405180604001604052807f2121b262bfce1204bcee0d01e81ca67a6cf187f200ab4fcd5fed54fae0b6011181526020017f2d2d72bfa31219ac0f57f871d8ad20703db85e1175974a5b218c40d493b3e9ae815250816080015160248151811061166a5761166a613dee565b602002602001018190525060405180604001604052807f2e947a32fa65cb7a04cb7c1b4a8989d76c6ee6b429e9793e1923673dbb4cb3b781526020017f2d5b7e6ae5d7d16fedba436e07a27bd7097cc2c1dfbab3764622e7d2550208ad81525081608001516025815181106116e1576116e1613dee565b602002602001018190525060405180604001604052807f28ff53647a48d89c3a43d491fec5dc3ad299b3dd698f70db74707e858db2265781526020017f1e2427f306b873672e3d18e0119a542b705dfdda40958c8c70cc45320852e584815250816080015160268151811061175857611758613dee565b602002602001018190525060405180604001604052807f06441c8fe4316d4ed2dc564e073802900180e6e81d599eb5f359966558c03bed81526020017f0305ba1b7b2ef09e2c5936daf50c2548e75292eed44a7885f9a8d9e18307ff4881525081608001516027815181106117cf576117cf613dee565b602002602001018190525060405180604001604052807f1fde15a8e93e36e53ce9823a4baa2dfc2365c0a1f9997cbecf8b575d661cb7c781526020017f2713407b89b03545aa188b1f01a25b0bd4d3af76ee677c610c2a6f537499cec9815250816080015160288151811061184657611846613dee565b602002602001018190525060405180604001604052807f2492d9d15e89c65ea47514b2ca27531ad6354c66dd9bab5286b6b343d89eebba81526020017f2a7a0dd5cea63c3b86b876ea06a134e83737269e63c501f8d892c41d7df4d7a581525081608001516029815181106118bd576118bd613dee565b602002602001018190525060405180604001604052807f0dfad9bf4bfa108870b0d4bdf94ec82c32eda69cc7f281980abeba2a92bcdf2e81526020017f209debb7d2dd97fd61b44b372e010a3434d6eaa43c29d95eb3eba61997a8962f8152508160800151602a8151811061193457611934613dee565b602002602001018190525060405180604001604052807f177b055916b9fb21ce6036f90c2fc4e1d7d8c69c3480de76d7520479a5e306ab81526020017f032ee96ae4f748c3b458cda9fbe1c9ac674d292c66a4e4c209406434ca3643498152508160800151602b815181106119ab576119ab613dee565b602002602001018190525060405180604001604052807f0cae3b6132a32a06ff367d127bfd97bcbd05425d20fb86a74d5801b31a2012ce81526020017f0f1b9045d385d2b169434052198dda5ca9b9d2256b47bace88aee35a9dae2f0d8152508160800151602c81518110611a2257611a22613dee565b602002602001018190525060405180604001604052807f29c0a90b0a9e5481e151691e5e3d9d81a26ffe78164135993dc26b4746988c6d81526020017f23c36e334dd4df57f8f9ad55ab1b72f54a048a5dc1c5c93ef5cc8692ab50d6a58152508160800151602d81518110611a9957611a99613dee565b602002602001018190525060405180604001604052807f08c30c506dbcfc4d91a4208ff57063741f1e7a8aa698936e672b73af6a48d84681526020017f1f36bcd1a45c22d3c9fa6dd440bcbacd033ff7bd491fecfd736fbad35be9d43d8152508160800151602e81518110611b1057611b10613dee565b602002602001018190525060405180604001604052807f0b577513270593d6d66d80225283362f064c12d38302bda2e3c7282b628a064781526020017f157a0432f25e7e0c50ae9dc3741e6ee243510bf70d808224d0e59481047bedd28152508160800151602f81518110611b8757611b87613dee565b602002602001018190525060405180604001604052807f070cdfced195824f9373fb6970290c86b939875199e5d8f7a044e9444a395b8f81526020017f1b789f26f2fc16081ef12383bb2a60f4640c121c394f0cca76d294ee06efe2778152508160800151603081518110611bfe57611bfe613dee565b602002602001018190525060405180604001604052807f27ad5b3e907971e449a291d129a6e625bea7c8dbc8f8263dbde0a10c22046a4e81526020017f21a57beb51a616a8c7aa103ef031cad35cbaeaef772b77ea538e640b9df038ed8152508160800151603181518110611c7557611c75613dee565b602002602001018190525060405180604001604052807f1e2812fa583e9da73d9782beb69eaf5340f3e74f9cb5a74e7eddec90e41f101d81526020017f239fdad543514424cef3655384d92755c1645007215b4066805ff4de0085a63b8152508160800151603281518110611cec57611cec613dee565b602002602001018190525060405180604001604052807f2ecf74f99c0b68fdcf06d509743f516af4b3ad78f92cb436612b9d120a2db57481526020017f0c9e00d241b9d502576b091f194cc58af43a4502d447331c41434a6a4e90edf38152508160800151603381518110611d6357611d63613dee565b602002602001018190525060405180604001604052807f095a6b5a26dedf874f4b4f8a3fc6b2c49b0519a94288f9af341ef3f2df3b8a7781526020017f2aec86fd459d3f3fb9dfd6e33f775d69d89ec565c259fee502d2a03d81e184288152508160800151603481518110611dda57611dda613dee565b602002602001018190525060405180604001604052807f07946671561f55e8dda12f519127b44e00e166032177f169603800392166ba0b81526020017f22bb0750981c40c1d7d29ce5ec46e9d1310f1e6bee3a6e2580eb0a5c6b39c0578152508160800151603581518110611e5157611e51613dee565b602002602001018190525060405180604001604052807f09f0ee9ba210a62dd727b7c479f9561610a9b725b282161462b64bc10f52e1fc81526020017f1dd4464ce9eb3d1f18d0cd774664e62fd1e9cec9287b2dd1f7d50675d543cef58152508160800151603681518110611ec857611ec8613dee565b602002602001018190525060405180604001604052807f026faccd4d8252482c7e85f260b1c6c64ae2b74cf4a21c0fed7d26d2fe2ba5aa81526020017f2e712938519d5235e1ad658effcd3e1e4f8d8a8cdbf4012ce03ad34e842b710e8152508160800151603781518110611f3f57611f3f613dee565b602002602001018190525060405180604001604052807f2ea636b9a18e6cd4546952d6770e4f8a59643c9c349921b8284263cbcdf0dca581526020017f0a4a6fd5220a27bcee039ad73a4fd2d20fbf0f294698507d5c3a488bd002b5308152508160800151603881518110611fb657611fb6613dee565b602002602001018190525060405180604001604052807f05cc32cdbcf6d86c850a8a9ce8e2f133d4a87a17190df3ddf14f32dbf1590b7f81526020017f0db6eb38f2b48f02d6eb6a97854d0e6908f98470486da9690f705743972e5586815250816080015160398151811061202d5761202d613dee565b602002602001018190525060405180604001604052807f02315113abb9f38093a9b8b4dc38328f8d358d17391b21230baa690b66590eae81526020017f2eeaba3be6c19b25377ed4ae2053ce998b67c0bb2e4a01108acaebc4bb4c0dfa8152508160800151603a815181106120a4576120a4613dee565b602002602001018190525060405180604001604052807f047111439eda8ed589aae503769788edf6069a1df39e05cc5c6c9edc2cdad89b81526020017f19c156001dfaa6d3c31f40b94c5f3bd7cc704ff522b301356aa0faca2b61639f8152508160800151603b8151811061211b5761211b613dee565b602002602001018190525060405180604001604052807f2b944ac197282ce23f4b4a2b9e63cfdee2269c5c5f2c05a1c388aac2d872fc2d81526020017f124a19345124e4da939a50b98d9fbacb144d79a9198d283d88bca524e4e5b6258152508160800151603c8151811061219257612192613dee565b602002602001018190525060405180604001604052807f06870eecd8b566ca143831c492fee290b675af6f450b2bb2ec37cd0022ede33e81526020017f2661fd8b0ad762d40666412281488267710ae48cd13d3ec19900a22ccd733b638152508160800151603d8151811061220957612209613dee565b602002602001018190525060405180604001604052807f0af029dec80042946a4f8dd1a7cf1b968adcf894fbae14d5c789fdf8fb608d7981526020017f0ba0061aeb67b2a6f813463f550a6153a209e0f960a434f1c0045c67add64b9a8152508160800151603e8151811061228057612280613dee565b602002602001018190525060405180604001604052807f2694d49f8f5989478f823fc0f9fe7a438712618f245ebaddb72c46ded3d3924281526020017f20281abb2a1abc539c8dace41ca26a8671af5f5fd6450db2c659343129e9b3d88152508160800151603f815181106122f7576122f7613dee565b602002602001018190525060405180604001604052807f0dd6dbf9fea55fb35d2cd0c7ef039dd6431ee4d36b740866314f51df67c431e281526020017f15af33eb9cccfc4acbc734ee5f55db6d1687385c96a3fcbdc7e77cc2bca4631c815250816080015160408151811061236e5761236e613dee565b602002602001018190525060405180604001604052807f0eecc5e46e5ecd897d901a2e914c95ee2cc2c9f7387acf04493abf14000bb8cc81526020017f128fae18cea92e931183b0a90e24da52070c7cdd659572638128c35f2742edd981525081608001516041815181106123e5576123e5613dee565b602002602001018190525060405180604001604052807f0c2b0f6a50e472531f99783be5152c49ff91515f7120c81ebf3bec835fe92fb581526020017f2bd8806818ef48122405b75db9b206bbceb124cec4b30f95caa8c229e099acd1815250816080015160428151811061245c5761245c613dee565b602002602001018190525060405180604001604052807f0acc5d4cb440bdc6a685a1abfa0d7d0d55f61dcaceb544aa7d6f4453c2a46cf381526020017f29b9695ade15f53511bdccc749b9e7700ce33b468c9b87f9d482a7c75bd2c3d481525081608001516043815181106124d3576124d3613dee565b602002602001018190525060405180604001604052807f1ca44b441b99f335ab981d174fca2a53ce6a433bcf67a1f1b6131b5906f1e7e181526020017f090291722c1ebef5a82817a17039dccf5db3c189068d0c962cc186e56e934d00815250816080015160448151811061254a5761254a613dee565b602002602001018190525060405180604001604052807f16166d551946cfb2d599fe344430668dcd0ec479a8c2dc8e250db27c9ccaf75c81526020017f297308b26e784f48c28b8d72da8d59227cf33786070a0e3c5ceb0208e3b4559a81525081608001516045815181106125c1576125c1613dee565b602002602001018190525060405180604001604052807f21037865261f65872df95114ba1ea742b610168ae12be2613c2381ec99f6266381526020017f12bf3116fe1b37caf5ccd1945f067fdaaebb6ff1bae7ca42f0522ee0df792f59815250816080015160468151811061263857612638613dee565b602002602001018190525060405180604001604052807f1a01bfa9a7b7b12249f2d6f6fca8e2185fef851b25595dd75a3d0ecaeb83e22081526020017f18e5b759a7f05432454e734b8ef6539560905dfaa549d764b41f98ff8353565d81525081608001516047815181106126af576126af613dee565b602002602001018190525060405180604001604052807f1898343165da50b27f5569c602e881f755961892dccb6753b31419042eeb8f9f81526020017f226bbabb1cc5810ce99b276e5489a98d409fb374d3d062267ee24ed59d328e66815250816080015160488151811061272657612726613dee565b602002602001018190525060405180604001604052807f2c45995ecc8f2652547adf25d09434a1084c56400516aabb1a8a17c02e68887281526020017f2d6846915cd7bc828469cdcfbb7b9d9e6b886e99940d9f2f640f4a02ddb98aea815250816080015160498151811061279d5761279d613dee565b602002602001018190525060405180604001604052807f035482050c4aef3756c84e5dc8f5d91709f3cb0e890e699b653b3a4cc5c16e9d81526020017f0a5d13ae6ed0500c9aca49c9140abbb5a0470d64387e5bac6a367ee54171ff3c8152508160800151604a8151811061281457612814613dee565b602002602001018190525060405180604001604052807f0804c603ade9137607fed40f0931184d6ab4bac97a5e1ef0e95b51537a49522c81526020017f02223af0589750f7e33bd6aa5a28a3a50de112ac375addde5c2afb9e59aa343c8152508160800151604b8151811061288b5761288b613dee565b602002602001018190525060405180604001604052807f0d885f884cd97817c31841aa9108d417be8b031cc5c45c6850c9631dd09cf19d81526020017f2c20511a216c02787f5bfd06bee42e4c4d436cb599dd7815602ad5f457ecd1238152508160800151604c8151811061290257612902613dee565b602002602001018190525060405180604001604052807f0e4c9ededefd49abeefe91cb5a43daae26624212c5d4937c0d3e29da05ff2a3981526020017f1e3e6ccf8127121853436423685fc6054a47f0347b1f44ec95466b75ceadedfd8152508160800151604d8151811061297957612979613dee565b602002602001018190525060405180604001604052807f17894d0f1a8c34e5c4b5cd16081994e5747a8b76272f349a4b969bbfea60e5ec81526020017f01f30b6abc64eb589b3605c30512d91ded3e55d55b7d882a78f33644453c45a08152508160800151604e815181106129f0576129f0613dee565b602002602001018190525060405180604001604052807f1c05d0d86c5a8500d05f6b3abdebd4cba8109d5e4ace5544cf5823cd3f122b1181526020017f2f22db57d3ad9d87cf88e05227024faed1382e528f03f53397d4b28820db819e8152508160800151604f81518110612a6757612a67613dee565b602002602001018190525060405180604001604052807f2a8ba28cb856bf5716ea9a53134e9d2e048bd37f63ea7873dcf29daf7028238e81526020017f12ac2f5d08016b5c82884cbdbd1e50034af821ce6a2b8cd4af39a4effc68d1ac8152508160800151605081518110612ade57612ade613dee565b602002602001018190525060405180604001604052807f1ed4bd6d255992486a8d1ae317c71d5ca5d34afbf92c3b46850059032b22440d81526020017f034379aae27120d03aed227b9ddaf79e4cadaba99f0ef8bb02f67b9cf29481118152508160800151605181518110612b5557612b55613dee565b602002602001018190525060405180604001604052807f27921852d9fa9d3b1560395fcbb652009f2081dd5bd08a7a35280325ced21a8d81526020017f1fa94e0896ec25cd775f5fddcff994428776066d0d6e395bc04854a5b68b5c9d8152508160800151605281518110612bcc57612bcc613dee565b602002602001018190525060405180604001604052807f13d1fa32d1fd8132b2e5df492d599783115049a3b5eda361ca67aebf49660dd781526020017f0e69425ccba18bf0500c3967a93d7488c4f71bb379819b169bde15aa35dc7d048152508160800151605381518110612c4357612c43613dee565b602002602001018190525060405180604001604052807f15c8b0b7ac4f594d4b51712bf40461f98a7eb61c75dc26b77b03ce9c3e7bb6c481526020017f2108d9c770bcd745adb5126b7f05313cfe15ab4ae013e2e7c74f75c5af2387668152508160800151605481518110612cba57612cba613dee565b602002602001018190525060405180604001604052807f2415419055193f10215acaaaa93975bea011917ec00a89efbb2f92ea37b2053c81526020017f12787883c626608169f60e233fecac8b1e5f033f05542de94f20d0160b4fbc258152508160800151605581518110612d3157612d31613dee565b602002602001018190525060405180604001604052807f134baecc08b05e28fd65d00897da361330fce41d19b864533d88814ac01b4ca981526020017f25e3dd6be5ce432928b0fb9abb49dadd897a15ef67f0374a8e6bfe9b5ea72e308152508160800151605681518110612da857612da8613dee565b602002602001018190525060405180604001604052807f0fb1b6d06f33a85dc052793f84d5eae5434428cfe5b8d3da44c9cc25b01394d781526020017f188cb94ad488ff3b9e00b13f700f86abc3c0b87082565dff27b930ebe9e6e82a8152508160800151605781518110612e1f57612e1f613dee565b602002602001018190525060405180604001604052807f05cdbf2addcb38631ba6a6c72353746fc626fdf77b287c7a38b31be8adcaa55481526020017f18999b167c09e19238884923b9f999b515992b5efa29c1ae83a8415ef730f96d8152508160800151605881518110612e9657612e96613dee565b602002602001018190525060405180604001604052807f02d3a29f51917dec4ce05c08e9c58d0901a29ccc2336b837b59f3d7f2f2e7d4e81526020017f03a1fd19a40b14d947ed33ae568ac88de6bb37d9530d70ca76d96ff92c11af1b8152508160800151605981518110612f0d57612f0d613dee565b602002602001018190525060405180604001604052807f10556353ae2815c92646814cd40e315a804355a6977b04c63be02f739b2d90ff81526020017f2064d0d654d52e6c7012b0e2d0fbb7c7e9563b50f50f0127c85a1765ee7c52698152508160800151605a81518110612f8457612f84613dee565b602002602001018190525060405180604001604052807f2f0cd6ca6f6e0c55e9bb497151df9969f853eac538f3cd000fc752f04eb6908e81526020017f3052e4dba0c8f6d21989a9a39c43f5d39f8e4f5a4afac1df0da5dd40fdc727578152508160800151605b81518110612ffb57612ffb613dee565b602002602001018190525060405180604001604052807f09de8894f226f1909922360d6b36855d8fdf9c03618511ff8214086205232bff81526020017f0933643b994557d7e59ad5036c4533b4db389193e451e93491fc216b9c6580b98152508160800151605c8151811061307257613072613dee565b602002602001018190525060405180604001604052807f0d660c7f3ad2720a036e18b01e19ca76febc81f9d1fa49e303da11fc79e3ebf881526020017f2092c2413a23d252edb96b5b7feef23d29b8bbff7a6c96daf4749d85d234645a8152508160800151605d815181106130e9576130e9613dee565b602002602001018190525060405180604001604052807f2226b3f5cac0fdea6f01337191abf97fec91c882a14eb57660e5035a9814816381526020017f22415d7247803c20cb8ad8fdc1c1419b09f5d783d4f02222a8d2bd56e73329d68152508160800151605e8151811061316057613160613dee565b602002602001018190525060405180604001604052807f2a83afa29f7f94f3631ce1046ab008316c0db6a9286f572f32e319c71d274d4981526020017f2767d3de8617b2864808deea18296f3c4dee363d0931bc0fd26bcdf14f7879dc8152508160800151605f815181106131d7576131d7613dee565b602002602001018190525060405180604001604052807f2d2113ca0abfed05c439f450d579a194ac49e7f364e620e47be83dfa4aa784ac81526020017f2e552ee696e86264194584d9bb78f3685172fde09933fd942d8bd960354b82f9815250816080015160608151811061324e5761324e613dee565b602002602001018190525060405180604001604052807e8603abb76041f23812159ce212e28197caf6671f82fdbc5e509ee4015e998081526020017f2f89b383c38c30c28a14664110537d6bbf29188059288e218d0881d1691e3d7e81525081608001516061815181106132c4576132c4613dee565b602002602001018190525060405180604001604052807f2840d6dc0e1dbe1a1d9c954d7d98a69c68c542e8d1159d1977c901b7427b5b7981526020017f1d229486270e63f19fabf904f9bea7331812afd1286a9cc46719e511f10700dc815250816080015160628151811061333b5761333b613dee565b602002602001018190525060405180604001604052807f17c73e8e278d30324437e87be554a31e76de7b4e8026d573d85c939e51c9855081526020017f1f74b8bfdfda83e6e32f81bd1d7108d45eca087da429c9e72e81e89a95a295ac81525081608001516063815181106133b2576133b2613dee565b602002602001018190525060405180604001604052807f3030377dad3ceea7772a7fd56ab8c7eb0adb51f170b0489a6487e4e18db6cbb781526020017f05664c0feeef1d6da00be60b390979cd76877efdaa5be414bd0f6feed2b3d889815250816080015160648151811061342957613429613dee565b602002602001018190525060405180604001604052807f021db4730ea846d5182290bd98d86522e6a6a04f6de916fac0dc379e607c9da981526020017f292cd9cc7a0aa48a91bda94578c31c7588680fb0d4de71dcbc37a90ddd4aeaea81525081608001516065815181106134a0576134a0613dee565b602002602001018190525060405180604001604052807f2e0e26f5dd3ff71b95b4d387cf6b9d535aabe72a9c7a8ec823c457d4be1fa3d681526020017f02beaac0b5fabb44df3f3be940d0113202cb8487ad9fbe049e001e1180e5ed65815250816080015160668151811061351757613517613dee565b602002602001018190525090565b6040805180820190915260008082526020820152613541613b35565b835181526020808501519082015260408101839052600060608360808460076107d05a03fa9050808061357057fe5b508061357b57600080fd5b505092915050565b604080518082019091526000808252602082015261359f613b53565b8351815260208085015181830152835160408301528301516060808301919091526000908360c08460066107d05a03fa9050808061357057fe5b604080518082019091526000808252602082015281517f30644e72e131a029b85045b68181585d97816a916871ca8d3c208c16d87cfd479015801561362057506020830151155b156136405750506040805180820190915260008082526020820152919050565b6040518060400160405280846000015181526020018285602001516136659190613e51565b61366f9084613e76565b90529392505050565b60408051600480825260a08201909252600091829190816020015b604080518082019091526000808252602082015281526020019060019003908161369357505060408051600480825260a0820190925291925060009190602082015b6136dd613b71565b8152602001906001900390816136d55790505090508a8260008151811061370657613706613dee565b6020026020010181905250888260018151811061372557613725613dee565b6020026020010181905250868260028151811061374457613744613dee565b6020026020010181905250848260038151811061376357613763613dee565b6020026020010181905250898160008151811061378257613782613dee565b602002602001018190525087816001815181106137a1576137a1613dee565b602002602001018190525085816002815181106137c0576137c0613dee565b602002602001018190525083816003815181106137df576137df613dee565b60200260200101819052506137f48282613803565b9b9a5050505050505050505050565b6000815183511461381357600080fd5b82516000613822826006613e8d565b905060008167ffffffffffffffff81111561383f5761383f613bd2565b604051908082528060200260200182016040528015613868578160200160208202803683370190505b50905060005b83811015613aa35786818151811061388857613888613dee565b602002602001015160000151828260066138a29190613e8d565b6138ad906000613e39565b815181106138bd576138bd613dee565b6020026020010181815250508681815181106138db576138db613dee565b602002602001015160200151828260066138f59190613e8d565b613900906001613e39565b8151811061391057613910613dee565b60200260200101818152505085818151811061392e5761392e613dee565b60209081029190910181015151015182613949836006613e8d565b613954906002613e39565b8151811061396457613964613dee565b60200260200101818152505085818151811061398257613982613dee565b602090810291909101015151518261399b836006613e8d565b6139a6906003613e39565b815181106139b6576139b6613dee565b6020026020010181815250508581815181106139d4576139d4613dee565b6020026020010151602001516001600281106139f2576139f2613dee565b602002015182613a03836006613e8d565b613a0e906004613e39565b81518110613a1e57613a1e613dee565b602002602001018181525050858181518110613a3c57613a3c613dee565b602002602001015160200151600060028110613a5a57613a5a613dee565b602002015182613a6b836006613e8d565b613a76906005613e39565b81518110613a8657613a86613dee565b602090810291909101015280613a9b81613e20565b91505061386e565b50613aac613b96565b6000602082602086026020860160086107d05a03fa90508080613acb57fe5b5080613ad657600080fd5b505115159695505050505050565b6040805160e08101909152600060a0820181815260c0830191909152815260208101613b0e613b71565b8152602001613b1b613b71565b8152602001613b28613b71565b8152602001606081525090565b60405180606001604052806003906020820280368337509192915050565b60405180608001604052806004906020820280368337509192915050565b6040518060400160405280613b84613bb4565b8152602001613b91613bb4565b905290565b60405180602001604052806001906020820280368337509192915050565b60405180604001604052806002906020820280368337509192915050565b60e060020a634e487b7102600052604160045260246000fd5b6040516060810167ffffffffffffffff81118282101715613c0e57613c0e613bd2565b60405290565b6040805190810167ffffffffffffffff81118282101715613c0e57613c0e613bd2565b600060408284031215613c4957600080fd5b6040516040810181811067ffffffffffffffff82111715613c6c57613c6c613bd2565b604052823581526020928301359281019290925250919050565b6000604051610cc080820182811067ffffffffffffffff82111715613cad57613cad613bd2565b6040529091508190830184811115613cc457600080fd5b835b81811015613cde578035835260209283019201613cc6565b50505092915050565b600082601f830112613cf857600080fd5b613d00613c14565b806040840185811115613d1257600080fd5b845b81811015613d2c578035845260209384019301613d14565b509095945050505050565b600080828403610dc0811215613d4c57600080fd5b61010080821215613d5c57600080fd5b613d64613beb565b613d6e8787613c37565b81526080603f1984011215613d8257600080fd5b613d8a613c14565b9250613d998760408801613ce7565b8352613da88760808801613ce7565b6020840152826020820152613dc08760c08801613c37565b6040820152935061011f85018613613dd757600080fd5b613de386828701613c86565b925050509250929050565b60e060020a634e487b7102600052603260045260246000fd5b60e060020a634e487b7102600052601160045260246000fd5b600060018201613e3257613e32613e07565b5060010190565b60008219821115613e4c57613e4c613e07565b500190565b600082613e715760e060020a634e487b7102600052601260045260246000fd5b500690565b600082821015613e8857613e88613e07565b500390565b6000816000190483118215151615613ea757613ea7613e07565b50029056fea26469706673582212209a81bbc5f7bf65819b8dd154992161dc63e9664ae97e9679a6f80df3a25bbecf64736f6c634300080d0033",
  "immutableReferences": {},
  "source": "// This file is MIT Licensed.\n//\n// Copyright 2017 Christian Reitwiessner\n// Permission is hereby granted, free of charge, to any person obtaining a copy of this software and associated documentation files (the \"Software\"), to deal in the Software without restriction, including without limitation the rights to use, copy, modify, merge, publish, distribute, sublicense, and/or sell copies of the Software, and to permit persons to whom the Software is furnished to do so, subject to the following conditions:\n// The above copyright notice and this permission notice shall be included in all copies or substantial portions of the Software.\n// THE SOFTWARE IS PROVIDED \"AS IS\", WITHOUT WARRANTY OF ANY KIND, EXPRESS OR IMPLIED, INCLUDING BUT NOT LIMITED TO THE WARRANTIES OF MERCHANTABILITY, FITNESS FOR A PARTICULAR PURPOSE AND NONINFRINGEMENT. IN NO EVENT SHALL THE AUTHORS OR COPYRIGHT HOLDERS BE LIABLE FOR ANY CLAIM, DAMAGES OR OTHER LIABILITY, WHETHER IN AN ACTION OF CONTRACT, TORT OR OTHERWISE, ARISING FROM, OUT OF OR IN CONNECTION WITH THE SOFTWARE OR THE USE OR OTHER DEALINGS IN THE SOFTWARE.\npragma solidity ^0.8.0;\nlibrary Pairing {\n    struct G1Point {\n        uint X;\n        uint Y;\n    }\n    // Encoding of field elements is: X[0] * z + X[1]\n    struct G2Point {\n        uint[2] X;\n        uint[2] Y;\n    }\n    /// @return the generator of G1\n    function P1() pure internal returns (G1Point memory) {\n        return G1Point(1, 2);\n    }\n    /// @return the generator of G2\n    function P2() pure internal returns (G2Point memory) {\n        return G2Point(\n            [10857046999023057135944570762232829481370756359578518086990519993285655852781,\n             11559732032986387107991004021392285783925812861821192530917403151452391805634],\n            [8495653923123431417604973247489272438418190587263600148770280649306958101930,\n             4082367875863433681332203403145435568316851327593401208105741076214120093531]\n        );\n    }\n    /// @return the negation of p, i.e. p.addition(p.negate()) should be zero.\n    function negate(G1Point memory p) pure internal returns (G1Point memory) {\n        // The prime q in the base field F_q for G1\n        uint q = 21888242871839275222246405745257275088696311157297823662689037894645226208583;\n        if (p.X == 0 && p.Y == 0)\n            return G1Point(0, 0);\n        return G1Point(p.X, q - (p.Y % q));\n    }\n    /// @return r the sum of two points of G1\n    function addition(G1Point memory p1, G1Point memory p2) internal view returns (G1Point memory r) {\n        uint[4] memory input;\n        input[0] = p1.X;\n        input[1] = p1.Y;\n        input[2] = p2.X;\n        input[3] = p2.Y;\n        bool success;\n        assembly {\n            success := staticcall(sub(gas(), 2000), 6, input, 0xc0, r, 0x60)\n            // Use \"invalid\" to make gas estimation work\n            switch success case 0 { invalid() }\n        }\n        require(success);\n    }\n\n\n    /// @return r the product of a point on G1 and a scalar, i.e.\n    /// p == p.scalar_mul(1) and p.addition(p) == p.scalar_mul(2) for all points p.\n    function scalar_mul(G1Point memory p, uint s) internal view returns (G1Point memory r) {\n        uint[3] memory input;\n        input[0] = p.X;\n        input[1] = p.Y;\n        input[2] = s;\n        bool success;\n        assembly {\n            success := staticcall(sub(gas(), 2000), 7, input, 0x80, r, 0x60)\n            // Use \"invalid\" to make gas estimation work\n            switch success case 0 { invalid() }\n        }\n        require (success);\n    }\n    /// @return the result of computing the pairing check\n    /// e(p1[0], p2[0]) *  .... * e(p1[n], p2[n]) == 1\n    /// For example pairing([P1(), P1().negate()], [P2(), P2()]) should\n    /// return true.\n    function pairing(G1Point[] memory p1, G2Point[] memory p2) internal view returns (bool) {\n        require(p1.length == p2.length);\n        uint elements = p1.length;\n        uint inputSize = elements * 6;\n        uint[] memory input = new uint[](inputSize);\n        for (uint i = 0; i < elements; i++)\n        {\n            input[i * 6 + 0] = p1[i].X;\n            input[i * 6 + 1] = p1[i].Y;\n            input[i * 6 + 2] = p2[i].X[1];\n            input[i * 6 + 3] = p2[i].X[0];\n            input[i * 6 + 4] = p2[i].Y[1];\n            input[i * 6 + 5] = p2[i].Y[0];\n        }\n        uint[1] memory out;\n        bool success;\n        assembly {\n            success := staticcall(sub(gas(), 2000), 8, add(input, 0x20), mul(inputSize, 0x20), out, 0x20)\n            // Use \"invalid\" to make gas estimation work\n            switch success case 0 { invalid() }\n        }\n        require(success);\n        return out[0] != 0;\n    }\n    /// Convenience method for a pairing check for two pairs.\n    function pairingProd2(G1Point memory a1, G2Point memory a2, G1Point memory b1, G2Point memory b2) internal view returns (bool) {\n        G1Point[] memory p1 = new G1Point[](2);\n        G2Point[] memory p2 = new G2Point[](2);\n        p1[0] = a1;\n        p1[1] = b1;\n        p2[0] = a2;\n        p2[1] = b2;\n        return pairing(p1, p2);\n    }\n    /// Convenience method for a pairing check for three pairs.\n    function pairingProd3(\n            G1Point memory a1, G2Point memory a2,\n            G1Point memory b1, G2Point memory b2,\n            G1Point memory c1, G2Point memory c2\n    ) internal view returns (bool) {\n        G1Point[] memory p1 = new G1Point[](3);\n        G2Point[] memory p2 = new G2Point[](3);\n        p1[0] = a1;\n        p1[1] = b1;\n        p1[2] = c1;\n        p2[0] = a2;\n        p2[1] = b2;\n        p2[2] = c2;\n        return pairing(p1, p2);\n    }\n    /// Convenience method for a pairing check for four pairs.\n    function pairingProd4(\n            G1Point memory a1, G2Point memory a2,\n            G1Point memory b1, G2Point memory b2,\n            G1Point memory c1, G2Point memory c2,\n            G1Point memory d1, G2Point memory d2\n    ) internal view returns (bool) {\n        G1Point[] memory p1 = new G1Point[](4);\n        G2Point[] memory p2 = new G2Point[](4);\n        p1[0] = a1;\n        p1[1] = b1;\n        p1[2] = c1;\n        p1[3] = d1;\n        p2[0] = a2;\n        p2[1] = b2;\n        p2[2] = c2;\n        p2[3] = d2;\n        return pairing(p1, p2);\n    }\n}\n\ncontract AgeCheckWithOneHundredTripleForVerifier {\n    using Pairing for *;\n    struct VerifyingKey {\n        Pairing.G1Point alpha;\n        Pairing.G2Point beta;\n        Pairing.G2Point gamma;\n        Pairing.G2Point delta;\n        Pairing.G1Point[] gamma_abc;\n    }\n    struct Proof {\n        Pairing.G1Point a;\n        Pairing.G2Point b;\n        Pairing.G1Point c;\n    }\n    function verifyingKey() pure internal returns (VerifyingKey memory vk) {\n        vk.alpha = Pairing.G1Point(uint256(0x0a2948573cd96a8f3fb38341b91d91cffb2b2ff03b532d4d73d512468b3e2a07), uint256(0x18ac595290b6fa74a423a0ebe263ee3fc14e7f4cac2e71f537f1fdc9087a04b1));\n        vk.beta = Pairing.G2Point([uint256(0x0111416e4c5639d211329527bb16c5375e795363068c21b1aaff3dd7190ca638), uint256(0x2350a9b02f637350152980ded0d6d36e41d0a47762fe329385a458f9e499e5ce)], [uint256(0x22c9b9203f1b460d989833b76902a80c2a76f15e98e4fbb1e2f2736ddda28146), uint256(0x2cc99a10e4b137e1d155599a55975e9e532d6438fbf7e85e2f7df2c826d95d1d)]);\n        vk.gamma = Pairing.G2Point([uint256(0x0a1239e84aeea3e09af6fa57e63577b209de2d8b98737c96e495eb02633aed6f), uint256(0x08ea9efc0b6f2eaf8e124962585fda5ae3fc8a82538b852913b5ce7c65c59fcb)], [uint256(0x17050903235813dd2cded714b2d32c9840e21b29af1a920d7e745a78384739f1), uint256(0x23ad9adb3900bdd61b03065483983eff4c858e48aba8fc3dd26a1dc6b53595e3)]);\n        vk.delta = Pairing.G2Point([uint256(0x01e28321884a10468ef0563c8c812d1b953201e0421d811048c5acf8067b0c9b), uint256(0x2314f37f581fd9e1ed67fa8a6674730ca9363ccea9bdc547dec7dbab4363b1cb)], [uint256(0x22db234153e40fa205f30d8e9c8dbead23dbae81d1e33896f6af30465ba4d2f3), uint256(0x06847eafc1cb4154582f0ee30dcef269ddb4a4767b639817028d52570d0977f1)]);\n        vk.gamma_abc = new Pairing.G1Point[](103);\n        vk.gamma_abc[0] = Pairing.G1Point(uint256(0x06e615cbe98e1fb4aaa1f15e8dcef969da154074ec0f03fcf64cc6dbc09183d3), uint256(0x109cfd1de2b747e07f894f70af742ad16cb872429a574acb205ee10469e62a01));\n        vk.gamma_abc[1] = Pairing.G1Point(uint256(0x1cc362cbca3d40c726e26fcea3f4efe354c607d62b1c1a337f1e2fa4b0bf5a30), uint256(0x2c9b0ee3bd744885fd4c0cdafd238bd6b1080b01d2f549a7cb9264bd49edeb11));\n        vk.gamma_abc[2] = Pairing.G1Point(uint256(0x087264ac88abb1a19f5f24b977971a0186e0ceefa7c050c9d0e6b160f1346d16), uint256(0x25f4fbc76835aa631611271e3e3816996b302d190169bb392b4a207235cb9bba));\n        vk.gamma_abc[3] = Pairing.G1Point(uint256(0x1edc3707d92ef913bcff219d11079d9d1557a2412945ee380fa52737c93cd001), uint256(0x2ff8a6073b19f88b5607826d85ec8a59733b26e8912b54f2428d55ce498ad444));\n        vk.gamma_abc[4] = Pairing.G1Point(uint256(0x1697b4c2d3e378fd797c0cf725d3c349fa7c417986a48eac272ac067898c8e47), uint256(0x057ad3ea75170195632b69f77e80862f3dfb5ce56343c064328a20ce177aa888));\n        vk.gamma_abc[5] = Pairing.G1Point(uint256(0x15856284b02e9a28d6fc349d6fa72740a6dbbf9bbaf7e8d6112b5b12163384de), uint256(0x242a1bbd958c9c374e218f9c482ec51c64ed5fe99144f3ad5b16dab733a458d3));\n        vk.gamma_abc[6] = Pairing.G1Point(uint256(0x0f176a1dabcac3eae990131fbf6da753f05375d7f2a2cf175d6c22b8401337c3), uint256(0x1b872369c4c18d955d9820001c54e011ec6a94e02f8b92a806d7574227e52f94));\n        vk.gamma_abc[7] = Pairing.G1Point(uint256(0x01edea5e6e85a0d6cb0725ec051f2d0273916f2ff2b723c4da34bd0aacb8b868), uint256(0x04e381c9f4a9cfcd0d5f984aae59076857f767da09414af642030f50eb9fd2ea));\n        vk.gamma_abc[8] = Pairing.G1Point(uint256(0x0db091d2eef3d31fd41273b4a84c98e95beda5a26ce52fb3bb491c932dd1d1d1), uint256(0x1f59eea21d155ee7aa6b8b256c80b689d030b119078284596da4bd93f694a0b5));\n        vk.gamma_abc[9] = Pairing.G1Point(uint256(0x1770cfb880938e7ce0131c03bc4f40aaffcb4652153308012f63077f8cdc9e05), uint256(0x11764f7c8049af20c7ed031fb5ae82325148e1b0729316b07d63772d756e26a1));\n        vk.gamma_abc[10] = Pairing.G1Point(uint256(0x00c5972dc829097d95a4eb742cf4badd154479c1661cd7acbcf811a02f80d252), uint256(0x1b9585665bca0ce548089a64f6d8e5a48088f3425813db0559d5a3a14025f220));\n        vk.gamma_abc[11] = Pairing.G1Point(uint256(0x0a6f16dda978357ddc25288dd567ec8041d17fed31c6e402c1b67908d3da7ee9), uint256(0x0829f337c39b12f1658da69aa1b6222888ab6a2d20352bb413d3f7a8d13c580c));\n        vk.gamma_abc[12] = Pairing.G1Point(uint256(0x100426b3b5c3dd03d62fbca80308db1190616dc97f5055b521eb01e4c4d049f1), uint256(0x16966f3d5c0672c0d744698339a70821f6a79965587fa568b0f9e425c776878c));\n        vk.gamma_abc[13] = Pairing.G1Point(uint256(0x0a5f65380858d794582186f4e0fb49cd943cada8aa8ee220c73bc103b18b0084), uint256(0x0f3ae8ac9747ed2412816c9b3a3e063908adda74393308d731f5cae51a35fbfa));\n        vk.gamma_abc[14] = Pairing.G1Point(uint256(0x1a1af952c8e9c493e5e061dcaa5c24eb6fac4bd6a2de888731c56f29dedef05d), uint256(0x05e82a31d4b36f7268b5e87754237115e3d014e459364bb23f9c233a40641ab6));\n        vk.gamma_abc[15] = Pairing.G1Point(uint256(0x23a7e9076bef747153d0c522716f64fadd0e64ce54a15f1b3d574e98d0be69c5), uint256(0x2e0a24df365b64b6c93a7365c7736ad0655b48a285e9322d7e20cc8ed5c0fe7d));\n        vk.gamma_abc[16] = Pairing.G1Point(uint256(0x2cb1fc5827ff502d034cf16265040b2a2cbe7d3a339885c3999854752bc917a5), uint256(0x0c2dbbc2443806554510271d1e0bdab76c0a5273f3c579b9b86d813a7c226c37));\n        vk.gamma_abc[17] = Pairing.G1Point(uint256(0x01169fc08f64c703e172f5bfc163e5d4c6a8d826bcded2e752a473ef235f2e9c), uint256(0x20df0ec40a975d578e669c083cf4b46217c40105089d08e8f07e8ce2b96dfbe9));\n        vk.gamma_abc[18] = Pairing.G1Point(uint256(0x1359522c5e5fdfe987a3f8edab34b86d06333d04fe7daa716ce1cd91fcf667ce), uint256(0x199c4d34146d6af22110eb7892c32d4fb1b406466322dafdd7dbe7498ce18812));\n        vk.gamma_abc[19] = Pairing.G1Point(uint256(0x161ba4d2eabcac0f1689ab2a4ce08a94a497915bbd99dd37995b2daf7a4ac073), uint256(0x015760d0225083b3dbc099c4f7b4f08727aa6138437718896ed7822a0d3c6946));\n        vk.gamma_abc[20] = Pairing.G1Point(uint256(0x17118815e3cf0d1ac542c63561b232c6b9167a3553875104d70d18dd6ce8772f), uint256(0x0ff7d091a23734020764c2776060d32d611446a6433b9de4dfc56cfea43955e0));\n        vk.gamma_abc[21] = Pairing.G1Point(uint256(0x20aee17b21cad84874fc53ad61df38314f4c3886224c2f21d081310984870e99), uint256(0x29871b3aca1106b4badbbd5cdcc72b8086ad226b844f9f10d5b469d4c0d45f06));\n        vk.gamma_abc[22] = Pairing.G1Point(uint256(0x0bde45c0754174260d48a78b22328a43eae716ee6037aa7727c54c7ead30c780), uint256(0x295c60e99b79a3f52d73e02327a80a671e69a955167c24c036db0d0f3324f47a));\n        vk.gamma_abc[23] = Pairing.G1Point(uint256(0x0c596e782adcc9e4518021d71955a574cab2f284eef6a8d2499394be15bd0837), uint256(0x01a8561d94af9f2626a54bba29e9d42a0627979029e8a998c9a7fafd0465e15d));\n        vk.gamma_abc[24] = Pairing.G1Point(uint256(0x20cbe3b80f3cd1888e3164719024360ef937625a56e24a4fe4f7346fd9ac95e5), uint256(0x2255523b42c3e2ab442b1ea8d6fccd88ea018000ad1febeb5fcc7640c3d20d8a));\n        vk.gamma_abc[25] = Pairing.G1Point(uint256(0x24c659444da8af83d6309247d4bb127ff07a759af5823cecbcdcbaa49094d2b5), uint256(0x1e13b061e2667b3d07592fba8f699ee0f181f7dd01eeb399091f1c52b0ce6ba8));\n        vk.gamma_abc[26] = Pairing.G1Point(uint256(0x24e17ed102a80abf2268b90aebbdcc9160ac551009ec7c6c8f0914fe29f3c679), uint256(0x06b38f17fe18715381501ccafff34e821ecb2c228487383371eeb4c62da6ccb7));\n        vk.gamma_abc[27] = Pairing.G1Point(uint256(0x2da6e4b7fa7b9e5b8ce5c106a4b98c4d36de26c383d3653068fd1f18b41967ca), uint256(0x2bdb084201c80eae05c59a9f817110fa0d5a0d68d59afe778cb8b432fe54336e));\n        vk.gamma_abc[28] = Pairing.G1Point(uint256(0x2e29853050fc1f12c85509daf65c7c5fb4770eb667f115bfaa039457622354ae), uint256(0x14d38c38e9c7b2a2d2aed28192d45bc5826b20f110c4f34941e793be6d5bf0fe));\n        vk.gamma_abc[29] = Pairing.G1Point(uint256(0x1239d26c5def83707e32b3ae29579017745c905b6a8115965d4bdad3bde92c5e), uint256(0x1c15b7ff290cb65ddbf9a3bba27096f7d2312e897cbdf3ae0e821639a37c5cbe));\n        vk.gamma_abc[30] = Pairing.G1Point(uint256(0x1b765d7ff64dc3ec7e9e9bbf95382feba8ec4ca813150c3e0aeb968ed94e6729), uint256(0x0ad66a74df3f94cd0a9799cefbd802373c9239777eb14345bab7e36718a4f3f4));\n        vk.gamma_abc[31] = Pairing.G1Point(uint256(0x1a8efedc7f522116b71caafcb99be3fc4615e896df85dd51c7a5b8d7d5f616c8), uint256(0x065ed06b957bc21f23d0261b3078db2baa5d3298b679387df1dc8d79d6cc3c7a));\n        vk.gamma_abc[32] = Pairing.G1Point(uint256(0x20107db8f0a07ad2d7f7bd4678b7016243c4fcd963980f1b7da89d07ccc6fe5b), uint256(0x092d0fc0504687b65ca7c954571002451d260ceb32244b3fdea90cddb6c9e705));\n        vk.gamma_abc[33] = Pairing.G1Point(uint256(0x049b4f1cf67db8f8fadc997a62d22f862df9872f3b406da77568ed6af59f7533), uint256(0x269347fa4fc1549804c6c51f9134f717157e4c37fb4aa543aae9d708e94697fc));\n        vk.gamma_abc[34] = Pairing.G1Point(uint256(0x06b79c6880ba0014cc181ff2e6ff35f528e433a555f2b04e7efd323a22e90b32), uint256(0x2bd2f45d8df9fff4a9bc37ef295a3bebcf7b8256eccad144d73685089231e2dd));\n        vk.gamma_abc[35] = Pairing.G1Point(uint256(0x25516d7964c6a150033709c47c2dd3aa1b6c55296f4dccca95d2cafa6651a9b7), uint256(0x04694311f950e1adffcf230b69fab7533b9bdbf25439406dfc153dc4715174c2));\n        vk.gamma_abc[36] = Pairing.G1Point(uint256(0x2121b262bfce1204bcee0d01e81ca67a6cf187f200ab4fcd5fed54fae0b60111), uint256(0x2d2d72bfa31219ac0f57f871d8ad20703db85e1175974a5b218c40d493b3e9ae));\n        vk.gamma_abc[37] = Pairing.G1Point(uint256(0x2e947a32fa65cb7a04cb7c1b4a8989d76c6ee6b429e9793e1923673dbb4cb3b7), uint256(0x2d5b7e6ae5d7d16fedba436e07a27bd7097cc2c1dfbab3764622e7d2550208ad));\n        vk.gamma_abc[38] = Pairing.G1Point(uint256(0x28ff53647a48d89c3a43d491fec5dc3ad299b3dd698f70db74707e858db22657), uint256(0x1e2427f306b873672e3d18e0119a542b705dfdda40958c8c70cc45320852e584));\n        vk.gamma_abc[39] = Pairing.G1Point(uint256(0x06441c8fe4316d4ed2dc564e073802900180e6e81d599eb5f359966558c03bed), uint256(0x0305ba1b7b2ef09e2c5936daf50c2548e75292eed44a7885f9a8d9e18307ff48));\n        vk.gamma_abc[40] = Pairing.G1Point(uint256(0x1fde15a8e93e36e53ce9823a4baa2dfc2365c0a1f9997cbecf8b575d661cb7c7), uint256(0x2713407b89b03545aa188b1f01a25b0bd4d3af76ee677c610c2a6f537499cec9));\n        vk.gamma_abc[41] = Pairing.G1Point(uint256(0x2492d9d15e89c65ea47514b2ca27531ad6354c66dd9bab5286b6b343d89eebba), uint256(0x2a7a0dd5cea63c3b86b876ea06a134e83737269e63c501f8d892c41d7df4d7a5));\n        vk.gamma_abc[42] = Pairing.G1Point(uint256(0x0dfad9bf4bfa108870b0d4bdf94ec82c32eda69cc7f281980abeba2a92bcdf2e), uint256(0x209debb7d2dd97fd61b44b372e010a3434d6eaa43c29d95eb3eba61997a8962f));\n        vk.gamma_abc[43] = Pairing.G1Point(uint256(0x177b055916b9fb21ce6036f90c2fc4e1d7d8c69c3480de76d7520479a5e306ab), uint256(0x032ee96ae4f748c3b458cda9fbe1c9ac674d292c66a4e4c209406434ca364349));\n        vk.gamma_abc[44] = Pairing.G1Point(uint256(0x0cae3b6132a32a06ff367d127bfd97bcbd05425d20fb86a74d5801b31a2012ce), uint256(0x0f1b9045d385d2b169434052198dda5ca9b9d2256b47bace88aee35a9dae2f0d));\n        vk.gamma_abc[45] = Pairing.G1Point(uint256(0x29c0a90b0a9e5481e151691e5e3d9d81a26ffe78164135993dc26b4746988c6d), uint256(0x23c36e334dd4df57f8f9ad55ab1b72f54a048a5dc1c5c93ef5cc8692ab50d6a5));\n        vk.gamma_abc[46] = Pairing.G1Point(uint256(0x08c30c506dbcfc4d91a4208ff57063741f1e7a8aa698936e672b73af6a48d846), uint256(0x1f36bcd1a45c22d3c9fa6dd440bcbacd033ff7bd491fecfd736fbad35be9d43d));\n        vk.gamma_abc[47] = Pairing.G1Point(uint256(0x0b577513270593d6d66d80225283362f064c12d38302bda2e3c7282b628a0647), uint256(0x157a0432f25e7e0c50ae9dc3741e6ee243510bf70d808224d0e59481047bedd2));\n        vk.gamma_abc[48] = Pairing.G1Point(uint256(0x070cdfced195824f9373fb6970290c86b939875199e5d8f7a044e9444a395b8f), uint256(0x1b789f26f2fc16081ef12383bb2a60f4640c121c394f0cca76d294ee06efe277));\n        vk.gamma_abc[49] = Pairing.G1Point(uint256(0x27ad5b3e907971e449a291d129a6e625bea7c8dbc8f8263dbde0a10c22046a4e), uint256(0x21a57beb51a616a8c7aa103ef031cad35cbaeaef772b77ea538e640b9df038ed));\n        vk.gamma_abc[50] = Pairing.G1Point(uint256(0x1e2812fa583e9da73d9782beb69eaf5340f3e74f9cb5a74e7eddec90e41f101d), uint256(0x239fdad543514424cef3655384d92755c1645007215b4066805ff4de0085a63b));\n        vk.gamma_abc[51] = Pairing.G1Point(uint256(0x2ecf74f99c0b68fdcf06d509743f516af4b3ad78f92cb436612b9d120a2db574), uint256(0x0c9e00d241b9d502576b091f194cc58af43a4502d447331c41434a6a4e90edf3));\n        vk.gamma_abc[52] = Pairing.G1Point(uint256(0x095a6b5a26dedf874f4b4f8a3fc6b2c49b0519a94288f9af341ef3f2df3b8a77), uint256(0x2aec86fd459d3f3fb9dfd6e33f775d69d89ec565c259fee502d2a03d81e18428));\n        vk.gamma_abc[53] = Pairing.G1Point(uint256(0x07946671561f55e8dda12f519127b44e00e166032177f169603800392166ba0b), uint256(0x22bb0750981c40c1d7d29ce5ec46e9d1310f1e6bee3a6e2580eb0a5c6b39c057));\n        vk.gamma_abc[54] = Pairing.G1Point(uint256(0x09f0ee9ba210a62dd727b7c479f9561610a9b725b282161462b64bc10f52e1fc), uint256(0x1dd4464ce9eb3d1f18d0cd774664e62fd1e9cec9287b2dd1f7d50675d543cef5));\n        vk.gamma_abc[55] = Pairing.G1Point(uint256(0x026faccd4d8252482c7e85f260b1c6c64ae2b74cf4a21c0fed7d26d2fe2ba5aa), uint256(0x2e712938519d5235e1ad658effcd3e1e4f8d8a8cdbf4012ce03ad34e842b710e));\n        vk.gamma_abc[56] = Pairing.G1Point(uint256(0x2ea636b9a18e6cd4546952d6770e4f8a59643c9c349921b8284263cbcdf0dca5), uint256(0x0a4a6fd5220a27bcee039ad73a4fd2d20fbf0f294698507d5c3a488bd002b530));\n        vk.gamma_abc[57] = Pairing.G1Point(uint256(0x05cc32cdbcf6d86c850a8a9ce8e2f133d4a87a17190df3ddf14f32dbf1590b7f), uint256(0x0db6eb38f2b48f02d6eb6a97854d0e6908f98470486da9690f705743972e5586));\n        vk.gamma_abc[58] = Pairing.G1Point(uint256(0x02315113abb9f38093a9b8b4dc38328f8d358d17391b21230baa690b66590eae), uint256(0x2eeaba3be6c19b25377ed4ae2053ce998b67c0bb2e4a01108acaebc4bb4c0dfa));\n        vk.gamma_abc[59] = Pairing.G1Point(uint256(0x047111439eda8ed589aae503769788edf6069a1df39e05cc5c6c9edc2cdad89b), uint256(0x19c156001dfaa6d3c31f40b94c5f3bd7cc704ff522b301356aa0faca2b61639f));\n        vk.gamma_abc[60] = Pairing.G1Point(uint256(0x2b944ac197282ce23f4b4a2b9e63cfdee2269c5c5f2c05a1c388aac2d872fc2d), uint256(0x124a19345124e4da939a50b98d9fbacb144d79a9198d283d88bca524e4e5b625));\n        vk.gamma_abc[61] = Pairing.G1Point(uint256(0x06870eecd8b566ca143831c492fee290b675af6f450b2bb2ec37cd0022ede33e), uint256(0x2661fd8b0ad762d40666412281488267710ae48cd13d3ec19900a22ccd733b63));\n        vk.gamma_abc[62] = Pairing.G1Point(uint256(0x0af029dec80042946a4f8dd1a7cf1b968adcf894fbae14d5c789fdf8fb608d79), uint256(0x0ba0061aeb67b2a6f813463f550a6153a209e0f960a434f1c0045c67add64b9a));\n        vk.gamma_abc[63] = Pairing.G1Point(uint256(0x2694d49f8f5989478f823fc0f9fe7a438712618f245ebaddb72c46ded3d39242), uint256(0x20281abb2a1abc539c8dace41ca26a8671af5f5fd6450db2c659343129e9b3d8));\n        vk.gamma_abc[64] = Pairing.G1Point(uint256(0x0dd6dbf9fea55fb35d2cd0c7ef039dd6431ee4d36b740866314f51df67c431e2), uint256(0x15af33eb9cccfc4acbc734ee5f55db6d1687385c96a3fcbdc7e77cc2bca4631c));\n        vk.gamma_abc[65] = Pairing.G1Point(uint256(0x0eecc5e46e5ecd897d901a2e914c95ee2cc2c9f7387acf04493abf14000bb8cc), uint256(0x128fae18cea92e931183b0a90e24da52070c7cdd659572638128c35f2742edd9));\n        vk.gamma_abc[66] = Pairing.G1Point(uint256(0x0c2b0f6a50e472531f99783be5152c49ff91515f7120c81ebf3bec835fe92fb5), uint256(0x2bd8806818ef48122405b75db9b206bbceb124cec4b30f95caa8c229e099acd1));\n        vk.gamma_abc[67] = Pairing.G1Point(uint256(0x0acc5d4cb440bdc6a685a1abfa0d7d0d55f61dcaceb544aa7d6f4453c2a46cf3), uint256(0x29b9695ade15f53511bdccc749b9e7700ce33b468c9b87f9d482a7c75bd2c3d4));\n        vk.gamma_abc[68] = Pairing.G1Point(uint256(0x1ca44b441b99f335ab981d174fca2a53ce6a433bcf67a1f1b6131b5906f1e7e1), uint256(0x090291722c1ebef5a82817a17039dccf5db3c189068d0c962cc186e56e934d00));\n        vk.gamma_abc[69] = Pairing.G1Point(uint256(0x16166d551946cfb2d599fe344430668dcd0ec479a8c2dc8e250db27c9ccaf75c), uint256(0x297308b26e784f48c28b8d72da8d59227cf33786070a0e3c5ceb0208e3b4559a));\n        vk.gamma_abc[70] = Pairing.G1Point(uint256(0x21037865261f65872df95114ba1ea742b610168ae12be2613c2381ec99f62663), uint256(0x12bf3116fe1b37caf5ccd1945f067fdaaebb6ff1bae7ca42f0522ee0df792f59));\n        vk.gamma_abc[71] = Pairing.G1Point(uint256(0x1a01bfa9a7b7b12249f2d6f6fca8e2185fef851b25595dd75a3d0ecaeb83e220), uint256(0x18e5b759a7f05432454e734b8ef6539560905dfaa549d764b41f98ff8353565d));\n        vk.gamma_abc[72] = Pairing.G1Point(uint256(0x1898343165da50b27f5569c602e881f755961892dccb6753b31419042eeb8f9f), uint256(0x226bbabb1cc5810ce99b276e5489a98d409fb374d3d062267ee24ed59d328e66));\n        vk.gamma_abc[73] = Pairing.G1Point(uint256(0x2c45995ecc8f2652547adf25d09434a1084c56400516aabb1a8a17c02e688872), uint256(0x2d6846915cd7bc828469cdcfbb7b9d9e6b886e99940d9f2f640f4a02ddb98aea));\n        vk.gamma_abc[74] = Pairing.G1Point(uint256(0x035482050c4aef3756c84e5dc8f5d91709f3cb0e890e699b653b3a4cc5c16e9d), uint256(0x0a5d13ae6ed0500c9aca49c9140abbb5a0470d64387e5bac6a367ee54171ff3c));\n        vk.gamma_abc[75] = Pairing.G1Point(uint256(0x0804c603ade9137607fed40f0931184d6ab4bac97a5e1ef0e95b51537a49522c), uint256(0x02223af0589750f7e33bd6aa5a28a3a50de112ac375addde5c2afb9e59aa343c));\n        vk.gamma_abc[76] = Pairing.G1Point(uint256(0x0d885f884cd97817c31841aa9108d417be8b031cc5c45c6850c9631dd09cf19d), uint256(0x2c20511a216c02787f5bfd06bee42e4c4d436cb599dd7815602ad5f457ecd123));\n        vk.gamma_abc[77] = Pairing.G1Point(uint256(0x0e4c9ededefd49abeefe91cb5a43daae26624212c5d4937c0d3e29da05ff2a39), uint256(0x1e3e6ccf8127121853436423685fc6054a47f0347b1f44ec95466b75ceadedfd));\n        vk.gamma_abc[78] = Pairing.G1Point(uint256(0x17894d0f1a8c34e5c4b5cd16081994e5747a8b76272f349a4b969bbfea60e5ec), uint256(0x01f30b6abc64eb589b3605c30512d91ded3e55d55b7d882a78f33644453c45a0));\n        vk.gamma_abc[79] = Pairing.G1Point(uint256(0x1c05d0d86c5a8500d05f6b3abdebd4cba8109d5e4ace5544cf5823cd3f122b11), uint256(0x2f22db57d3ad9d87cf88e05227024faed1382e528f03f53397d4b28820db819e));\n        vk.gamma_abc[80] = Pairing.G1Point(uint256(0x2a8ba28cb856bf5716ea9a53134e9d2e048bd37f63ea7873dcf29daf7028238e), uint256(0x12ac2f5d08016b5c82884cbdbd1e50034af821ce6a2b8cd4af39a4effc68d1ac));\n        vk.gamma_abc[81] = Pairing.G1Point(uint256(0x1ed4bd6d255992486a8d1ae317c71d5ca5d34afbf92c3b46850059032b22440d), uint256(0x034379aae27120d03aed227b9ddaf79e4cadaba99f0ef8bb02f67b9cf2948111));\n        vk.gamma_abc[82] = Pairing.G1Point(uint256(0x27921852d9fa9d3b1560395fcbb652009f2081dd5bd08a7a35280325ced21a8d), uint256(0x1fa94e0896ec25cd775f5fddcff994428776066d0d6e395bc04854a5b68b5c9d));\n        vk.gamma_abc[83] = Pairing.G1Point(uint256(0x13d1fa32d1fd8132b2e5df492d599783115049a3b5eda361ca67aebf49660dd7), uint256(0x0e69425ccba18bf0500c3967a93d7488c4f71bb379819b169bde15aa35dc7d04));\n        vk.gamma_abc[84] = Pairing.G1Point(uint256(0x15c8b0b7ac4f594d4b51712bf40461f98a7eb61c75dc26b77b03ce9c3e7bb6c4), uint256(0x2108d9c770bcd745adb5126b7f05313cfe15ab4ae013e2e7c74f75c5af238766));\n        vk.gamma_abc[85] = Pairing.G1Point(uint256(0x2415419055193f10215acaaaa93975bea011917ec00a89efbb2f92ea37b2053c), uint256(0x12787883c626608169f60e233fecac8b1e5f033f05542de94f20d0160b4fbc25));\n        vk.gamma_abc[86] = Pairing.G1Point(uint256(0x134baecc08b05e28fd65d00897da361330fce41d19b864533d88814ac01b4ca9), uint256(0x25e3dd6be5ce432928b0fb9abb49dadd897a15ef67f0374a8e6bfe9b5ea72e30));\n        vk.gamma_abc[87] = Pairing.G1Point(uint256(0x0fb1b6d06f33a85dc052793f84d5eae5434428cfe5b8d3da44c9cc25b01394d7), uint256(0x188cb94ad488ff3b9e00b13f700f86abc3c0b87082565dff27b930ebe9e6e82a));\n        vk.gamma_abc[88] = Pairing.G1Point(uint256(0x05cdbf2addcb38631ba6a6c72353746fc626fdf77b287c7a38b31be8adcaa554), uint256(0x18999b167c09e19238884923b9f999b515992b5efa29c1ae83a8415ef730f96d));\n        vk.gamma_abc[89] = Pairing.G1Point(uint256(0x02d3a29f51917dec4ce05c08e9c58d0901a29ccc2336b837b59f3d7f2f2e7d4e), uint256(0x03a1fd19a40b14d947ed33ae568ac88de6bb37d9530d70ca76d96ff92c11af1b));\n        vk.gamma_abc[90] = Pairing.G1Point(uint256(0x10556353ae2815c92646814cd40e315a804355a6977b04c63be02f739b2d90ff), uint256(0x2064d0d654d52e6c7012b0e2d0fbb7c7e9563b50f50f0127c85a1765ee7c5269));\n        vk.gamma_abc[91] = Pairing.G1Point(uint256(0x2f0cd6ca6f6e0c55e9bb497151df9969f853eac538f3cd000fc752f04eb6908e), uint256(0x3052e4dba0c8f6d21989a9a39c43f5d39f8e4f5a4afac1df0da5dd40fdc72757));\n        vk.gamma_abc[92] = Pairing.G1Point(uint256(0x09de8894f226f1909922360d6b36855d8fdf9c03618511ff8214086205232bff), uint256(0x0933643b994557d7e59ad5036c4533b4db389193e451e93491fc216b9c6580b9));\n        vk.gamma_abc[93] = Pairing.G1Point(uint256(0x0d660c7f3ad2720a036e18b01e19ca76febc81f9d1fa49e303da11fc79e3ebf8), uint256(0x2092c2413a23d252edb96b5b7feef23d29b8bbff7a6c96daf4749d85d234645a));\n        vk.gamma_abc[94] = Pairing.G1Point(uint256(0x2226b3f5cac0fdea6f01337191abf97fec91c882a14eb57660e5035a98148163), uint256(0x22415d7247803c20cb8ad8fdc1c1419b09f5d783d4f02222a8d2bd56e73329d6));\n        vk.gamma_abc[95] = Pairing.G1Point(uint256(0x2a83afa29f7f94f3631ce1046ab008316c0db6a9286f572f32e319c71d274d49), uint256(0x2767d3de8617b2864808deea18296f3c4dee363d0931bc0fd26bcdf14f7879dc));\n        vk.gamma_abc[96] = Pairing.G1Point(uint256(0x2d2113ca0abfed05c439f450d579a194ac49e7f364e620e47be83dfa4aa784ac), uint256(0x2e552ee696e86264194584d9bb78f3685172fde09933fd942d8bd960354b82f9));\n        vk.gamma_abc[97] = Pairing.G1Point(uint256(0x008603abb76041f23812159ce212e28197caf6671f82fdbc5e509ee4015e9980), uint256(0x2f89b383c38c30c28a14664110537d6bbf29188059288e218d0881d1691e3d7e));\n        vk.gamma_abc[98] = Pairing.G1Point(uint256(0x2840d6dc0e1dbe1a1d9c954d7d98a69c68c542e8d1159d1977c901b7427b5b79), uint256(0x1d229486270e63f19fabf904f9bea7331812afd1286a9cc46719e511f10700dc));\n        vk.gamma_abc[99] = Pairing.G1Point(uint256(0x17c73e8e278d30324437e87be554a31e76de7b4e8026d573d85c939e51c98550), uint256(0x1f74b8bfdfda83e6e32f81bd1d7108d45eca087da429c9e72e81e89a95a295ac));\n        vk.gamma_abc[100] = Pairing.G1Point(uint256(0x3030377dad3ceea7772a7fd56ab8c7eb0adb51f170b0489a6487e4e18db6cbb7), uint256(0x05664c0feeef1d6da00be60b390979cd76877efdaa5be414bd0f6feed2b3d889));\n        vk.gamma_abc[101] = Pairing.G1Point(uint256(0x021db4730ea846d5182290bd98d86522e6a6a04f6de916fac0dc379e607c9da9), uint256(0x292cd9cc7a0aa48a91bda94578c31c7588680fb0d4de71dcbc37a90ddd4aeaea));\n        vk.gamma_abc[102] = Pairing.G1Point(uint256(0x2e0e26f5dd3ff71b95b4d387cf6b9d535aabe72a9c7a8ec823c457d4be1fa3d6), uint256(0x02beaac0b5fabb44df3f3be940d0113202cb8487ad9fbe049e001e1180e5ed65));\n    }\n    function verify(uint[] memory input, Proof memory proof) internal view returns (uint) {\n        uint256 snark_scalar_field = 21888242871839275222246405745257275088548364400416034343698204186575808495617;\n        VerifyingKey memory vk = verifyingKey();\n        require(input.length + 1 == vk.gamma_abc.length);\n        // Compute the linear combination vk_x\n        Pairing.G1Point memory vk_x = Pairing.G1Point(0, 0);\n        for (uint i = 0; i < input.length; i++) {\n            require(input[i] < snark_scalar_field);\n            vk_x = Pairing.addition(vk_x, Pairing.scalar_mul(vk.gamma_abc[i + 1], input[i]));\n        }\n        vk_x = Pairing.addition(vk_x, vk.gamma_abc[0]);\n        if(!Pairing.pairingProd4(\n             proof.a, proof.b,\n             Pairing.negate(vk_x), vk.gamma,\n             Pairing.negate(proof.c), vk.delta,\n             Pairing.negate(vk.alpha), vk.beta)) return 1;\n        return 0;\n    }\n    function verifyTx(\n            Proof memory proof, uint[102] memory input\n        ) public view returns (bool r) {\n        uint[] memory inputValues = new uint[](102);\n        \n        for(uint i = 0; i < input.length; i++){\n            inputValues[i] = input[i];\n        }\n        if (verify(inputValues, proof) == 0) {\n            return true;\n        } else {\n            return false;\n        }\n    }\n}\n",
  "sourcePath": "/Users/dmitriyischenko/Desktop/gas-cost-research/truffle/contracts/AgeCheckWithOneHundredTripleFor/AgeCheckWithOneHundredTripleForVerifier.sol",
  "compiler": {
    "name": "solc",
    "version": "0.8.13+commit.abaa5c0e.Emscripten.clang"
  },
  "schemaVersion": "3.4.7",
  "updatedAt": "2022-08-10T04:16:08.843Z",
  "devdoc": {
    "kind": "dev",
    "methods": {},
    "version": 1
  },
  "userdoc": {
    "kind": "user",
    "methods": {},
    "version": 1
  }
}