{
  "contractName": "AgeCheckWithThreeNestedForWrappedVerifier",
  "abi": [
    {
      "anonymous": false,
      "inputs": [
        {
          "indexed": false,
          "internalType": "address",
          "name": "_verifier",
          "type": "address"
        },
        {
          "indexed": false,
          "internalType": "bool",
          "name": "result",
          "type": "bool"
        },
        {
          "indexed": false,
          "internalType": "uint256[1002]",
          "name": "inputData",
          "type": "uint256[1002]"
        }
      ],
      "name": "AgeCheckWithThreeNestedForVerifierEvent",
      "type": "event"
    },
    {
      "inputs": [
        {
          "internalType": "address",
          "name": "_verifier",
          "type": "address"
        },
        {
          "components": [
            {
              "components": [
                {
                  "internalType": "uint256",
                  "name": "X",
                  "type": "uint256"
                },
                {
                  "internalType": "uint256",
                  "name": "Y",
                  "type": "uint256"
                }
              ],
              "internalType": "struct Pairing.G1Point",
              "name": "a",
              "type": "tuple"
            },
            {
              "components": [
                {
                  "internalType": "uint256[2]",
                  "name": "X",
                  "type": "uint256[2]"
                },
                {
                  "internalType": "uint256[2]",
                  "name": "Y",
                  "type": "uint256[2]"
                }
              ],
              "internalType": "struct Pairing.G2Point",
              "name": "b",
              "type": "tuple"
            },
            {
              "components": [
                {
                  "internalType": "uint256",
                  "name": "X",
                  "type": "uint256"
                },
                {
                  "internalType": "uint256",
                  "name": "Y",
                  "type": "uint256"
                }
              ],
              "internalType": "struct Pairing.G1Point",
              "name": "c",
              "type": "tuple"
            }
          ],
          "internalType": "struct AgeCheckWithThreeNestedForVerifier.Proof",
          "name": "proof",
          "type": "tuple"
        },
        {
          "internalType": "uint256[1002]",
          "name": "inputData",
          "type": "uint256[1002]"
        }
      ],
      "name": "wrappedTxVerify___AgeCheckWithThreeNestedForVerifier",
      "outputs": [],
      "stateMutability": "nonpayable",
      "type": "function"
    },
    {
      "inputs": [
        {
          "internalType": "address",
          "name": "_verifier",
          "type": "address"
        },
        {
          "components": [
            {
              "components": [
                {
                  "internalType": "uint256",
                  "name": "X",
                  "type": "uint256"
                },
                {
                  "internalType": "uint256",
                  "name": "Y",
                  "type": "uint256"
                }
              ],
              "internalType": "struct Pairing.G1Point",
              "name": "a",
              "type": "tuple"
            },
            {
              "components": [
                {
                  "internalType": "uint256[2]",
                  "name": "X",
                  "type": "uint256[2]"
                },
                {
                  "internalType": "uint256[2]",
                  "name": "Y",
                  "type": "uint256[2]"
                }
              ],
              "internalType": "struct Pairing.G2Point",
              "name": "b",
              "type": "tuple"
            },
            {
              "components": [
                {
                  "internalType": "uint256",
                  "name": "X",
                  "type": "uint256"
                },
                {
                  "internalType": "uint256",
                  "name": "Y",
                  "type": "uint256"
                }
              ],
              "internalType": "struct Pairing.G1Point",
              "name": "c",
              "type": "tuple"
            }
          ],
          "internalType": "struct AgeCheckWithThreeNestedForVerifier.Proof",
          "name": "proof",
          "type": "tuple"
        },
        {
          "internalType": "uint256[1002]",
          "name": "inputData",
          "type": "uint256[1002]"
        }
      ],
      "name": "wrappedTxVerifyView___AgeCheckWithThreeNestedForVerifier",
      "outputs": [
        {
          "internalType": "bool",
          "name": "",
          "type": "bool"
        }
      ],
      "stateMutability": "view",
      "type": "function"
    }
  ],
  "bytecode": "0x608060405234801561001057600080fd5b506105ac806100206000396000f3fe608060405234801561001057600080fd5b5060043610610052577c010000000000000000000000000000000000000000000000000000000060003504636a0de49a81146100575780637bed6c671461007e575b600080fd5b61006a610065366004610398565b610093565b604051901515815260200160405180910390f35b61009161008c366004610398565b610135565b005b6040517fc4c7cabe00000000000000000000000000000000000000000000000000000000815260009073ffffffffffffffffffffffffffffffffffffffff85169063c4c7cabe906100ea90869086906004016104bc565b602060405180830381865afa158015610107573d6000803e3d6000fd5b505050506040513d601f19601f8201168201806040525081019061012b9190610519565b90505b9392505050565b6040517fc4c7cabe00000000000000000000000000000000000000000000000000000000815260009073ffffffffffffffffffffffffffffffffffffffff85169063c4c7cabe9061018c90869086906004016104bc565b602060405180830381865afa1580156101a9573d6000803e3d6000fd5b505050506040513d601f19601f820116820180604052508101906101cd9190610519565b90507f04e655cb9f6820bc7bb06cc92965a169a6403fe09efb0b08872f66a33da443c48482846040516102029392919061053b565b60405180910390a150505050565b7f4e487b7100000000000000000000000000000000000000000000000000000000600052604160045260246000fd5b6040516060810167ffffffffffffffff8111828210171561026257610262610210565b60405290565b6040805190810167ffffffffffffffff8111828210171561026257610262610210565b60006040828403121561029d57600080fd5b6040516040810181811067ffffffffffffffff821117156102c0576102c0610210565b604052823581526020928301359281019290925250919050565b600082601f8301126102eb57600080fd5b6102f3610268565b80604084018581111561030557600080fd5b845b8181101561031f578035845260209384019301610307565b509095945050505050565b600082601f83011261033b57600080fd5b604051617d4080820182811067ffffffffffffffff8211171561036057610360610210565b6040528301818582111561037357600080fd5b845b8281101561038d578035825260209182019101610375565b509195945050505050565b6000806000838503617e608112156103af57600080fd5b843573ffffffffffffffffffffffffffffffffffffffff811681146103d357600080fd5b9350610100601f19820112156103e857600080fd5b6103f061023f565b6103fd876020880161028b565b81526080605f198301121561041157600080fd5b610419610268565b915061042887606088016102da565b82526104378760a088016102da565b602083015281602082015261044f8760e0880161028b565b60408201529250610466905085610120860161032a565b90509250925092565b8060005b6002811015610492578151845260209384019390910190600101610473565b50505050565b8060005b6103ea81101561049257815184526020938401939091019060010161049c565b82518051825260209081015190820152617e40810160208401516104e460408401825161046f565b602001516104f5608084018261046f565b506040840151805160c08401526020015160e083015261012e610100830184610498565b60006020828403121561052b57600080fd5b8151801515811461012e57600080fd5b73ffffffffffffffffffffffffffffffffffffffff841681528215156020820152617d80810161056e6040830184610498565b94935050505056fea2646970667358221220ed629b0650dd30988cf1a6b3b3554c803028c84afb45754061d78a9195d2520964736f6c634300080d0033",
  "immutableReferences": {},
  "source": "pragma solidity ^0.8.0;\n\n\nimport \"./AgeCheckWithThreeNestedForVerifier.sol\";\n\ncontract AgeCheckWithThreeNestedForWrappedVerifier {\n    //AgeCheckWithThreeNestedForVerifier.sol\n    event AgeCheckWithThreeNestedForVerifierEvent(address _verifier, bool result, uint[1002] inputData);\n\n    function wrappedTxVerify___AgeCheckWithThreeNestedForVerifier(address _verifier, AgeCheckWithThreeNestedForVerifier.Proof memory proof, uint[1002] memory inputData) public {\n        bool result = AgeCheckWithThreeNestedForVerifier(_verifier).verifyTx(proof, inputData);\n        emit AgeCheckWithThreeNestedForVerifierEvent(_verifier, result, inputData);\n\n    }\n\n    function wrappedTxVerifyView___AgeCheckWithThreeNestedForVerifier(address _verifier, AgeCheckWithThreeNestedForVerifier.Proof memory proof, uint[1002] memory inputData) public view returns(bool) {\n        return AgeCheckWithThreeNestedForVerifier(_verifier).verifyTx(proof, inputData);\n    }\n}",
  "sourcePath": "/Users/dmitriyischenko/Desktop/gas-cost-research/truffle/contracts/ageCheckWithThreeNestedFor/AgeCheckWithThreeNestedForWrappedVerifier.sol",
  "compiler": {
    "name": "solc",
    "version": "0.8.13+commit.abaa5c0e.Emscripten.clang"
  },
  "schemaVersion": "3.4.7",
  "updatedAt": "2022-08-10T18:09:48.479Z",
  "devdoc": {
    "kind": "dev",
    "methods": {},
    "version": 1
  },
  "userdoc": {
    "kind": "user",
    "methods": {},
    "version": 1
  }
}