{
  "contractName": "AgeCheckWithOneHundredDoubleForVerifier",
  "abi": [
    {
      "inputs": [
        {
          "components": [
            {
              "components": [
                {
                  "internalType": "uint256",
                  "name": "X",
                  "type": "uint256"
                },
                {
                  "internalType": "uint256",
                  "name": "Y",
                  "type": "uint256"
                }
              ],
              "internalType": "struct Pairing.G1Point",
              "name": "a",
              "type": "tuple"
            },
            {
              "components": [
                {
                  "internalType": "uint256[2]",
                  "name": "X",
                  "type": "uint256[2]"
                },
                {
                  "internalType": "uint256[2]",
                  "name": "Y",
                  "type": "uint256[2]"
                }
              ],
              "internalType": "struct Pairing.G2Point",
              "name": "b",
              "type": "tuple"
            },
            {
              "components": [
                {
                  "internalType": "uint256",
                  "name": "X",
                  "type": "uint256"
                },
                {
                  "internalType": "uint256",
                  "name": "Y",
                  "type": "uint256"
                }
              ],
              "internalType": "struct Pairing.G1Point",
              "name": "c",
              "type": "tuple"
            }
          ],
          "internalType": "struct AgeCheckWithOneHundredDoubleForVerifier.Proof",
          "name": "proof",
          "type": "tuple"
        },
        {
          "internalType": "uint256[102]",
          "name": "input",
          "type": "uint256[102]"
        }
      ],
      "name": "verifyTx",
      "outputs": [
        {
          "internalType": "bool",
          "name": "r",
          "type": "bool"
        }
      ],
      "stateMutability": "view",
      "type": "function"
    }
  ],
  "bytecode": "0x608060405234801561001057600080fd5b50613ee2806100206000396000f3fe608060405234801561001057600080fd5b5060043610610047577c01000000000000000000000000000000000000000000000000000000006000350463d8177a63811461004c575b600080fd5b61005f61005a366004613d37565b610073565b604051901515815260200160405180910390f35b604080516066808252610ce0820190925260009182919060208201610cc08036833701905050905060005b60668110156100ed578381606681106100b9576100b9613dee565b60200201518282815181106100d0576100d0613dee565b6020908102919091010152806100e581613e20565b91505061009e565b506100f88185610115565b60000361010957600191505061010f565b60009150505b92915050565b60007f30644e72e131a029b85045b68181585d2833e84879b9709143e1f593f000000181610141610298565b9050806080015151855160016101579190613e39565b1461016157600080fd5b604080518082019091526000808252602082018190525b865181101561020f578387828151811061019457610194613dee565b6020026020010151106101a657600080fd5b6101fb826101f685608001518460016101bf9190613e39565b815181106101cf576101cf613dee565b60200260200101518a85815181106101e9576101e9613dee565b6020026020010151613525565b613583565b91508061020781613e20565b915050610178565b5061023881836080015160008151811061022b5761022b613dee565b6020026020010151613583565b905061027c85600001518660200151610250846135d9565b85604001516102628a604001516135d9565b60608801518851610272906135d9565b8960200151613678565b61028c576001935050505061010f565b50600095945050505050565b6102a0613ae4565b6040805180820182527f1f59cf48d8382a8c2ffda0d03e1f46779d44621d6d14bc36407a89dbb779b41281527f10d20f987e1bdff18f47a4a53923d481278440f5d91f70d8c1018f7d67651e486020808301919091529083528151608080820184527f25e51eb27bf872b695695e1d3d8e3754aedcd02a7f9b87cc9393d0c2b71adf128285019081527f0d0c2386b35ba45f56deb707308c8a4658ebec3bfb680b3444cc8b5c9451c185606080850191909152908352845180860186527f2021344d4e40f08c0ebc1b6d0af2df3d486458d363f4b1b3498f1b76e125adb881527f09c8f880821019595eabadce03f5abe83b6e5409d73fdd8af4dd3d8ab32d2a74818601528385015285840192909252835180820185527ec3166a7cbf9d1a1fd65fc7ddfcec2a11a841b27353339b1c52bae2a16f917c8186019081527f1b326b678853577ccd0f1145c55db5386c9c7673599567935adc086b51f66c32828501528152845180860186527f2dc473f9e68e73170af25ce360d0448cbd68e4a1afb9ce3e52720e1ecc8bb10381527f1a8a12ae422354180b08abb41a0e535c00e176f7d0352ebc9b343b8b8f5f37c2818601528185015285850152835190810184527f2c2bb1cde916a698b68e6cd8cee79d1760a91aad496180a1979304321fb7f04e8185019081527f192622b136c3b54d24565cf14b35fc6f9f053c1dd76fd2005127c011192196d6828401528152835180850185527f031d425cc60027154d0a54743857821084313f4078164215025c01d6d28fe76881527f1955d1b0b5b3f24447a797b22360bd4cc18cc90ac580a7de4d40741fa8fe102381850152818401529084015281516067808252610d008201909352919082015b604080518082019091526000808252602082015281526020019060019003908161051b57505060808201908152604080518082019091527f101cf711ef4e6bc14a63c79c48342870d19ec84baab5c38f062c224b1f3f463d81527f1eb58ddadfad0741c5716eeb0952a15ca1b01453e3c45199040e7d7d5d119d9d6020820152905180516000906105ae576105ae613dee565b602002602001018190525060405180604001604052807f025d32b5f861e2b2742e1f8de56bbf347b11844d48125144e77ebdb6657fa9f981526020017f032a7c7c8c2dface3d33ba85417695c3d8d19bc9ea66daeeccff198c3e23efaa815250816080015160018151811061062557610625613dee565b602002602001018190525060405180604001604052807f097b1de2f65b4422589f29efc250e72c20d09c60786c032b03e44587dcf08f0e81526020017f18a43ea770f8c05f59fdad7aaf4e60ed7decf17246ba2a4dcdf2f39860b3e60f815250816080015160028151811061069c5761069c613dee565b602002602001018190525060405180604001604052807f1072532309d0c7b4bbef9b8ebe3f99f003c085f42efd49e436f61a34d02a8f3481526020017f2cd81d3cb6acda31684bf51ae19efc6e16cc07afd48c252398eaa51837a97312815250816080015160038151811061071357610713613dee565b602002602001018190525060405180604001604052807f202d23691c130ce8e1bbd0849dc471774e8e6e545227100bb0f806705ba74c9781526020017f27c9ee96c191f9a5c969f4453e8891dbd8c6f7b690bc798acb7c513e6c5dc0d7815250816080015160048151811061078a5761078a613dee565b602002602001018190525060405180604001604052807f165f82e9c027ae12745069476495a371492ea16ea75fd251ed889ae78efde88881526020017f165efea5f10caf68f60dfa2e18bc164dbdcd91dd1054786774d0ee979dfe3427815250816080015160058151811061080157610801613dee565b602002602001018190525060405180604001604052807f1130bc2996184c4d68d9af1cefb87171be9d4ce77a06cbe5de2f1d82fd64eb5281526020017f292deb2ecf4b3aaab65719761df7ea0f5943eb0aaf0223d9067787e52776064a815250816080015160068151811061087857610878613dee565b602002602001018190525060405180604001604052807f13e0cc8eac97c7bc06e21bbdbd0f9fda0f774d39e575051c77af3897b3e58ef481526020017f2462539cd502664d64bde81c55a82f76e5fc6add235474c0a0494d974463eac381525081608001516007815181106108ef576108ef613dee565b602002602001018190525060405180604001604052807f284f89b9e610a66740c8b126e87547389699cb20c4216dadf88b10688c73144f81526020017f2372bb5771751f9a22c082af3e9d869452cc727d8fa2d708b7fa231b27767997815250816080015160088151811061096657610966613dee565b602002602001018190525060405180604001604052807f264192228366bd08145a439bfee259c8007b0b2e5f158174bb22b18f3d8f973781526020017f01afb430dacc735151e90408bb54a02a9e28e0a4e10218bcb243110c46a1731981525081608001516009815181106109dd576109dd613dee565b602002602001018190525060405180604001604052807f2ad7a92da1f65264348986872b77666bdcc843cfa608222556d6c8d7ca40ea3481526020017f2357b1c77c2ef8eb0638a27c8751565c1206714e52342af1c8cf23c2b3da35758152508160800151600a81518110610a5457610a54613dee565b602002602001018190525060405180604001604052807f11425f72887b9d6ccdf5c69c48542b662388b7beba4ae7639bea64da0b700a8581526020017f066aac372b167a49d645d7dc12bd26c58ae58caa8508b78e293b75b951bcfd228152508160800151600b81518110610acb57610acb613dee565b602002602001018190525060405180604001604052807f29d98c78e3fe1977c5c1ee7239732a6774d899ae5d2d849de2c54067003a21fb81526020017f2b2ac5a77d3d107a9441bdb53e259996df73e38d1a43a698a91f0076ed3bbbf28152508160800151600c81518110610b4257610b42613dee565b602002602001018190525060405180604001604052807f0e2805daa40417238b96ea8997a516810bfc1b40d6d8f5816ff558927cc325fb81526020017f281dbd22a9119efb6f85a2c85e2fc4593f8f2bbfafed760d1a2ac191086b91448152508160800151600d81518110610bb957610bb9613dee565b602002602001018190525060405180604001604052807f181626aac5e319ca355b953bf44a4385ec768a8b80a3ed1020efc5960a3aafa281526020017f0db5d26c9eb5bf32b685c3257f246ebf284caac06bb1485cc5b5ac94a5342cfb8152508160800151600e81518110610c3057610c30613dee565b602002602001018190525060405180604001604052807f255d42240b51adb42e77cf30167ccf36e8f78428cce38812e00925ab039665f181526020017f14a6e7a58ad25f8f289f51e250b6e00e1222630a11d7b1d868984fc3f54990e48152508160800151600f81518110610ca757610ca7613dee565b602002602001018190525060405180604001604052807f0ef4665a7145d3748946327b01580b63d231f5960cb2c8f21fa9266115b934b181526020017f2564f78309adbdc3291a63f5980e94439cf655373b7db0841a32c4c71c21ee6c8152508160800151601081518110610d1e57610d1e613dee565b602002602001018190525060405180604001604052807f17f26060cc95df7f6a78433380d1bbb09d842d31c3da3a044996df06f858292181526020017f227ee6fb925d961a382ac67f9fa264c0c528c081823332b4f5a61cdd594c98038152508160800151601181518110610d9557610d95613dee565b602002602001018190525060405180604001604052807f277d2b103e7cf29b44c39c3b73bf272bc2e9bb32ca7691153b983e214ffa744981526020017f2d2322a5f35a4107b6a5849545fa5c3abe57ec08c4da383e1054e0cfb83051008152508160800151601281518110610e0c57610e0c613dee565b602002602001018190525060405180604001604052807f0aa4456f33dfa2fa1086527b86c18ec940d5f48510a853544702b7fb8000bc0881526020017f19498e203578e1cb6261bf6294e127f6dfa8d3440435bded01d2c058f728a1a88152508160800151601381518110610e8357610e83613dee565b602002602001018190525060405180604001604052807f2fb1634ef15feeab9eb4faa3162c351dae4b3589fc98822efbb5f0a91c78338581526020017f25c0bd90146629b4ae7ff0b434430e15cacf4ee22ad301afa015c188dfe41cbf8152508160800151601481518110610efa57610efa613dee565b602002602001018190525060405180604001604052807f1bdf82128009903c634fc379d46d874d703d8485f965dfba742d4313650784dc81526020017f2452637574b5f34db1a7a390f6285576dad9a964b014e9bd3ee76e4e4fc21f7e8152508160800151601581518110610f7157610f71613dee565b602002602001018190525060405180604001604052807f0e2ed5f117eb566525aba18adbc08edf1650de48558811b87014fe75f9ba2dc681526020017f1a00140d8f5f68f945e4c6a406d4a627b36b415188e3f857173e86627ba9831b8152508160800151601681518110610fe857610fe8613dee565b602002602001018190525060405180604001604052807f091ff07a651b40625039d0454c7c6d1d9278c49c72d63e58deddc40aaae849fb81526020017f27af9f51b5eef9925bcbbba5e21ff27bbc2b552af5f84801829fbf017402a806815250816080015160178151811061105f5761105f613dee565b602002602001018190525060405180604001604052807f0d30dd61f0bb422a07f77e9cca55395359fde007a5617989221f3f901ac1708181526020017f0509e9452c0d123e32403594f8543bdbe6bba23ac75635cde69958a9f90a3a6681525081608001516018815181106110d6576110d6613dee565b602002602001018190525060405180604001604052807f19592568bdf83b6cf268b1fa8ea0992c452a5758a620389b7c2f5f030ae65ea381526020017f20626a6c23d76b8e4bdac0e6e4a4e7792cb05a8a4c906e4913e7973053291022815250816080015160198151811061114d5761114d613dee565b602002602001018190525060405180604001604052807f251dfe2e1cfd5f56b50a5faa3d728ff8a0d1644b95a0a98530893a80eddc4e9081526020017f0ab10c4f43d809d0b45f51aaf16dda80f90a492cdb31abc3e6a18f974d9ea68a8152508160800151601a815181106111c4576111c4613dee565b602002602001018190525060405180604001604052807f2d9fcb159d3f644691474fe3a4705f750f42b4c77824dee6c5fadb991b3c322681526020017f1e91ffda5cc7b7fb9fcc778a9e70e41feedc0c701449535c756ed13e95e48e1c8152508160800151601b8151811061123b5761123b613dee565b602002602001018190525060405180604001604052807f21132d8b97a91fac7d3bcd9a2402e6ee460d06b123a40b1a77620c5aee5eb92b81526020017f190b2121decc89eb58e2a39490b20be6149aeefbbc486910d3a206fe2d2bd2ab8152508160800151601c815181106112b2576112b2613dee565b602002602001018190525060405180604001604052807f277b074d6d1ea12d67a099fe65fa24582c25039685fda4fa64e5f033cb98abeb81526020017f2777cbc2dd6c4d13b717878166b46fb55a40bdde341336331191915af93723e98152508160800151601d8151811061132957611329613dee565b602002602001018190525060405180604001604052807f1b6a67307b36b9f52be90d4ec13164745fe131947812af618a51740e73e7515681526020017f223b9f91ea732acce0c89ee2c3ada4333bd76c1cb042bacda3c3e4649c4447688152508160800151601e815181106113a0576113a0613dee565b602002602001018190525060405180604001604052807f2764723559501fe434756d7627f6620d507e20aed50ae1c8a68cf7e5f0e56ec481526020017f19aca1394d6fbf754c247065fab4bed6f3d5ec30fe6e3151516f3ca3f76422f68152508160800151601f8151811061141757611417613dee565b602002602001018190525060405180604001604052807f06c58bf23ad03bf501bd6f06cac941f28ffc4be3f1088170dc5d1770592d698a81526020017f2e82c99f6704275161fa0f03d065c863b510d41b378d0bedebaa07427c824742815250816080015160208151811061148e5761148e613dee565b602002602001018190525060405180604001604052807f112aadc20a49b02ab237f1b6bba5f09c10027305c25d0690dcd2f47934ffa78381526020017f15331619bd21acbc5babbd2baf77b691b710a1ce4f3069955e7fe667119b5154815250816080015160218151811061150557611505613dee565b602002602001018190525060405180604001604052807f1a8e054fa7e55887f0748a250f41af9086007b0903441defb471167805ff1a6981526020017f28fe99696c2c7a5083e54eea65abd727b1e28f2d64976bb801f16768e3583649815250816080015160228151811061157c5761157c613dee565b602002602001018190525060405180604001604052807f12f3c6a045a4b254992020072efa623ec29d84c207958e4636a62ff0789d52ee81526020017f1608a0d5f81088e43f48027b32ddf7c8b53f2580b4e1a60a339485dc626ee2fb81525081608001516023815181106115f3576115f3613dee565b602002602001018190525060405180604001604052807f24433cd6d427965b0e2773166ccbda8e596424fbca72034a23198bbb9d6530e081526020017f0ce8a12e1fbc34b42dd816ce3e60e9f0c1384afcc5327ca51ce330d8b3427e8c815250816080015160248151811061166a5761166a613dee565b602002602001018190525060405180604001604052807f0a62d30d70055a9902a0f7df27440e02daf42a028ba3e62cb5aaccc065a7ee4781526020017f20881b63da694dc68a737d19d1163e35f87d9fd077f30a2c6c09be4336107c3481525081608001516025815181106116e1576116e1613dee565b602002602001018190525060405180604001604052807f01ac5f306cbd7f0e7ebf47750b446f43528f1105a5e9c1a86a6a6f0ee568f10681526020017f2dbdb81ab56dadd75eb66c61ef0b090c1a02830da433e33a5abd7ae780e2d87b815250816080015160268151811061175857611758613dee565b602002602001018190525060405180604001604052807f2741ede5910d5c13a001d00690b2350be6ce0b613ae8caa40c27b24082009b6981526020017f022cc87f2aab2029467e0c89b48b2e7ba9d30d4f2ad16acc5cebb16eb5c7df6081525081608001516027815181106117cf576117cf613dee565b602002602001018190525060405180604001604052807f0a6cd8ea58685f7075efe04b633ccb534b77e08495a3caf5b1c76cbc313ed4dd81526020017f0cc99d1260ae732722a4ac737efbfc2324eeb0e418239c530cd73c0bb0cc890b815250816080015160288151811061184657611846613dee565b602002602001018190525060405180604001604052807f05e336ac395d22ec4f28470c4bab1445c6dd9838b8ff55c2d46bf1337cc6495481526020017f0d5bbd4425f0910bba6a7c23f75b86483678b1e7bb133613835f050bdabef29581525081608001516029815181106118bd576118bd613dee565b602002602001018190525060405180604001604052807f0dab3bf1a6ee3834685625c38cbfb06f488890dedc027bf731650e99204e838981526020017f1a6bcdd0472a179e10764e84f07b05a6151087232174543fae8f8c2e72092caa8152508160800151602a8151811061193457611934613dee565b602002602001018190525060405180604001604052807f061f63f96e83bf53ac7255c21bce922d60d14b5a19509c7618e48b00304bd3c081526020017f1346f5a95dd87a6b6464c381bdd47a38ea06dc3170ad85f9a2b2b4d2646f30d28152508160800151602b815181106119ab576119ab613dee565b602002602001018190525060405180604001604052807f2399be72ff0708912525accb4670de9c54e219a50b6b4065f24ad63cb223221581526020017f12acaa2a3c982aa1f50e46ebfa0ae3d1e2f34397b151f768925ac498bf5efc098152508160800151602c81518110611a2257611a22613dee565b602002602001018190525060405180604001604052807f07ef4835913dc3082165bdeba4cd634dc5e7988fafa3ae6d685353d9457f97ac81526020017f2362a6966dab7688191cb655e7eddad6c6e98a139faeb1e1fea9aaafe0b944848152508160800151602d81518110611a9957611a99613dee565b602002602001018190525060405180604001604052807f23d6c616431de6d0212220cbe7748d99a39aed44be38da3e4049c9fb99a3c0b781526020017f0b7d0fc904def984482048c7af740ab38decbd0fef6c19c24a8bfada959386c88152508160800151602e81518110611b1057611b10613dee565b602002602001018190525060405180604001604052807f09d3e9416aa5429f969d43e12e658850771bfee4dddfeb268b5768c3b94d0b3881526020017f21ba395ed4c9ba9ac508a07df114c07c4e1ed54cebe95c9a310bf4dd0603e5fc8152508160800151602f81518110611b8757611b87613dee565b602002602001018190525060405180604001604052807f0558ab1e3f6e4d2f4774f07fc3c4a083ecf6a1fb6e39c146f1e2615c4c83c4d281526020017f295467c79a76d49e1137d0097378bdb36570e22d658378618c8980f7f69809cf8152508160800151603081518110611bfe57611bfe613dee565b602002602001018190525060405180604001604052807f27171f8fbd981405d9732ff0b1bcfc412a8ca31de9e6061188bb176d59e6bd1081526020017f27805b3d8721ff562e7c358f962552484c8ab1fa75d410c178449b3f82f3c2f18152508160800151603181518110611c7557611c75613dee565b602002602001018190525060405180604001604052807f069a346a95bcabc510963c5a286fa44910a217ba79aae8ad8dab984b9b19acea81526020017f23bc157bfeaedbe4bad40520eaa0c8d3bc50dc4037a0f5333d3d85c8cdefca168152508160800151603281518110611cec57611cec613dee565b602002602001018190525060405180604001604052807f0956501be661a6cf76a65542eeccf60f3161d24aff47da4d270c091bea33d4f881526020017f16dc85d88251d7a020972d3ff371fa0e2e71c4d91dbdc83b96a5b15f362b79fb8152508160800151603381518110611d6357611d63613dee565b602002602001018190525060405180604001604052807f0f54ae1673fa869124faa08a0edee1256ffc73c237d40283c2b2abcdc315a40781526020017f1a1ba0ebf6b6ca72c7e4e1bb75bc261c1b90f51a32e8ab05b620a9904033103f8152508160800151603481518110611dda57611dda613dee565b602002602001018190525060405180604001604052807f241488738b819b210e80fd84d86bc54821929f10d130a1def8a87ada6e3903e481526020017f0a63b974b8a1610a4c20cb16abf059a24cf78ac8b4b63d609c6ff4abda43600a8152508160800151603581518110611e5157611e51613dee565b602002602001018190525060405180604001604052807f1f8bbc9bb2b5a4c0989b940b0bf54162665051f906aa2885c8766db7861b135281526020017f14f479ab084b3788491d5d44c37e1acb0b930882b0f5e778c0814554c04cc6d98152508160800151603681518110611ec857611ec8613dee565b602002602001018190525060405180604001604052807f21a5d19ef2e61347d013465bcf88b776d1bac81728a8cb09bc7125cedb9f894381526020017f10a7a95e37f22fee60a8f09fe11300e4542d3407836efe1931b250836e42155c8152508160800151603781518110611f3f57611f3f613dee565b602002602001018190525060405180604001604052807f11bfc009d88ea0d5c1f21109414b8b74c9f24e5f432d31293908ca61408088a681526020017ee8d16ac1552a689b47f4f51dd4242f6952f003ecd8397a530d2c07e72f8c718152508160800151603881518110611fb557611fb5613dee565b602002602001018190525060405180604001604052807f2a195d5f96fc08e9d587d85906dad65802741f2a62525e72008e4012baada1f481526020017f22f0ffb585e0f3e5bddba920d8192cf611ff2e4b9adb73e18bbc28f94e57df55815250816080015160398151811061202c5761202c613dee565b602002602001018190525060405180604001604052807f07a490629f36bac547b3e3282753823b4a97c4381564c56f91ba7b5763eef0fd81526020017f2e9731b8994fe6085a3cd7da8c88ac19dce6c4aebfda6d506000dfd957d3bf738152508160800151603a815181106120a3576120a3613dee565b602002602001018190525060405180604001604052807f0493dcaf99fb592cdd1605b063184674a59fb59fcd6303b9c41be46cd29be32781526020017f0d87261770b65ce826f530bd65a5d4c6511c5952793fde5db28f1725c91ace4d8152508160800151603b8151811061211a5761211a613dee565b602002602001018190525060405180604001604052807f138c5ef676c9a1e5eae1b37c02686b9f71e27d454c8df40e88edf746035f82b881526020017f0867a4db215af8d5f929c8804461d1eaf5253c532ee6bfc409572aedbcd4f8088152508160800151603c8151811061219157612191613dee565b602002602001018190525060405180604001604052807f20437bb3ae3514b8fbc8174e7de8d4cb5d1b4a315ef9753b800fe9900bc5a49081526020017f017944b8fffc3086bb08d3e9a63782d482ccf2e088620040e760ec8ac6c401708152508160800151603d8151811061220857612208613dee565b602002602001018190525060405180604001604052807f09bff93c2d40932c09efcb11b3b8af0966951f91ef521bf30df38a9886d6885181526020017f11e16cfe26167f756eb7012a80ee08ec9e74cc2bd1e2a1b6750e601079794efa8152508160800151603e8151811061227f5761227f613dee565b602002602001018190525060405180604001604052807f23a30753985bcfc661f80af66decbb9deca8c0a8fd4a500795af8f07d9135d6981526020017f2029d8578b96bb7cc9f2f734dcf548d86226de9c7174624e27f6d08ef633c13c8152508160800151603f815181106122f6576122f6613dee565b602002602001018190525060405180604001604052807f0f72a59ce653e78be0b705086691b97e717a75f7b2ea09a76979a617a86f654781526020017f04ef3f5b990182426168126bf636834e5f8148e1ce0228b934bbda067cf24730815250816080015160408151811061236d5761236d613dee565b602002602001018190525060405180604001604052807f21083b02df469ed571f799fceaabf2e17d8ab6ea25197067d2636018a7ae249681526020017f103ac95a6efc4c0e537a70b28fad3f34e64c4f328a0c420651b18e900f697a5381525081608001516041815181106123e4576123e4613dee565b602002602001018190525060405180604001604052807f2cc0fd0a75fe111e98ccb81803e66529deaf3a3174fe71d53ebb4fb67d96feee81526020017f1d6345d10df422d06ba21eeb1f95738015119b795c060f80d56c97076a569334815250816080015160428151811061245b5761245b613dee565b602002602001018190525060405180604001604052807f2fa50713fd45ff63ff7df3b45d32d3fb351f9f4866299167e9538b3da5b55e9e81526020017f0bbb3a0456f25ac23dfc974130e7320bbf23333ecae02f6f51550520c08229dd81525081608001516043815181106124d2576124d2613dee565b602002602001018190525060405180604001604052807f05a3cd9c2d896535f0bda0810df0f54fb9a77496a2b0254a02264b44c7f85b6d81526020017f129812096c5237278742265ed322ac7f423b15d14481df63a90e1a76e6c16981815250816080015160448151811061254957612549613dee565b602002602001018190525060405180604001604052807f2e7a39372448843aa193d26de8b3d07595efbc56c1a4f9f1bf62030d214dd3dd81526020017f16c421c555d948d0e7d731494affeb43d1c83be29ed2bf2574e19c59f6996f0781525081608001516045815181106125c0576125c0613dee565b602002602001018190525060405180604001604052807f2a08947102fe5fd0986ad9de004e2790847e4f7f1dfdc2684a2ebfb91b58c4a681526020017f2c0b60b3c13f5d56a6981daefc67d938a30d0c2be4a97091f7b59736729d255c815250816080015160468151811061263757612637613dee565b602002602001018190525060405180604001604052807f04f9f17fdc2987d9b05f749ae1eec832f50babaec3c2c68b57590326dfbd431381526020017f2890e33205b4c976ca9984483e988c5a1f2ba44a545f526e1cd6c7435cc1a0ff81525081608001516047815181106126ae576126ae613dee565b602002602001018190525060405180604001604052807f2b82c74f98c77e105c2eed6fab5b59b7d33816aad65ffccd494b8a4fcfbd312d81526020017f23be251d0acc68182c187bf19f5be9f788b2a14a9c98065336d7409b1c3170cc815250816080015160488151811061272557612725613dee565b602002602001018190525060405180604001604052807f2fd34362f72b433ff8f5f2c5a17d9a63ccc4c4b8dcb2707708a8cb165898510581526020017f2a515b83da5d0b6b4bf4756b3c4b068341a15f3d2ed9fdd78ef6a40a06614b3e815250816080015160498151811061279c5761279c613dee565b602002602001018190525060405180604001604052807f06eacaf978691c795e6cb638ae4e1b4502727c298978c2206e15968fc295371681526020017f27634f21a583047003488c173f125d938b6090c863e4f30345542406d01953568152508160800151604a8151811061281357612813613dee565b602002602001018190525060405180604001604052807f065a27fb8e2125c4baff9b9fabc2f252372637b7559a202eb3e5b7d863a684f181526020017f2ddf63c4eb76528141f12de9f1c845bf3ca1fc980261430f122afc3a347494828152508160800151604b8151811061288a5761288a613dee565b602002602001018190525060405180604001604052807f16cdac193497529a0fcdaedbeb5c22b20ff2532769db4c224443b2e94e1dfbbf81526020017f285deacc2b8d388c7df7356a2475e35c2f7daea616b3fc92acd31fd2d7dfa51d8152508160800151604c8151811061290157612901613dee565b602002602001018190525060405180604001604052807f23d84a17bf126f66122b84a8ee84c0cfdf23a6a52f24945a68f69bd3a42ed7a081526020017f23cf9ac8bcbe08fdc973e8f8caca11086d5ddd080cc3fe3f0df47fc03824e7fa8152508160800151604d8151811061297857612978613dee565b602002602001018190525060405180604001604052807f0548a198586f4044c8c2c84cc4f7839b0230f86013d0d8cf276c57201620e95c81526020017f25a56cc1590ddd7c731b1ecff9b7937c1f42e1cd04aebfdb405c68e9f6f5a1228152508160800151604e815181106129ef576129ef613dee565b602002602001018190525060405180604001604052807f256534209aa80ce5e4e9e2dbe1af80268e6dc4a857bd83a6e885d0a7da819ba181526020017f10697d49244377e4e3fa2b173889f3b67a71414dd358a3aadc1224d402e7592a8152508160800151604f81518110612a6657612a66613dee565b602002602001018190525060405180604001604052807f23806351ffa84f5f0c501330d41c9089d27d35b0e70a121543f8148cc93f659881526020017f0d7db8127018fd4bcbece0d3ca842fb24609bc1e18ed322e02845437723bf7fa8152508160800151605081518110612add57612add613dee565b602002602001018190525060405180604001604052807f1fd4e40717fbdb462289054611798e7af4575f327edce09fa275f8335a3025a881526020017f0fb22bffd517966f2fbb7b07f9e506eb148affd3c087a663520af4d1b14de6e38152508160800151605181518110612b5457612b54613dee565b602002602001018190525060405180604001604052807f22a75b198944d8840c4b30ad40616bbc583b577fc4c7fd1922d2a1f5e82437b381526020017f10d30c54c81fe5905c5af4b6ae8aac662010a8c9cffd3c901d869c6e73b17c8f8152508160800151605281518110612bcb57612bcb613dee565b602002602001018190525060405180604001604052807f22d2d31cfe32b66449c70f2149b7b45234bd8b4c3106f51c8a7a297a8702581681526020017f2cd9756cc0edbfdad901086e576e82885c77a8b0943da44c70bfa13997031afc8152508160800151605381518110612c4257612c42613dee565b602002602001018190525060405180604001604052807f2c1d1727c008d764c2939525545368c61ab1e9a838764c2d0165c91d9bae0ff081526020017f12f1a11e54369da45640c0ef74c79c40c3ceb1812bf1587e23371329ee2ba5578152508160800151605481518110612cb957612cb9613dee565b602002602001018190525060405180604001604052807f0fea76278ff27bbe142328e3e63e7b6d4a5f89917b743d22f59ca9541e4d2a4581526020017f15ffe33c1b9fd2e80d8110aba633145d67d00281cea77ec926de92c4f9fcb0768152508160800151605581518110612d3057612d30613dee565b602002602001018190525060405180604001604052807f24276b98a8f12424ac4d03c35d16dbde2a00003b5cf896f4518d197dae32880281526020017f2ff8b056df2b452ba64db1e722d20461e00793f93a90cba77be5688f7a810bbc8152508160800151605681518110612da757612da7613dee565b602002602001018190525060405180604001604052807f2d4dc9cf9f703b2a8de31ae6f49229cc0b0e6b366fb8317380fa32d99f4de23e81526020017f219d99a379869cb32379ea8453b9010ce359c27680784ee405987d3665c0697b8152508160800151605781518110612e1e57612e1e613dee565b602002602001018190525060405180604001604052807f21906d987d346c8da2c1f6e9b0c741e1aea42429e58db524df2a03740097fc4681526020017f29711c15af361930d90b7cb02325589257a7c330b63b6938cdebea5e725b4c5a8152508160800151605881518110612e9557612e95613dee565b602002602001018190525060405180604001604052807f2f21b2b3b897979b8a3c0805905c78e6d675de6b592ec0ae8c48f259cbca0bb981526020017f062b001da94696b50a0dedecb60267719ac238ff24abfda033a186846fc52f6b8152508160800151605981518110612f0c57612f0c613dee565b602002602001018190525060405180604001604052807f2b405620120e578f5d2ccbf7c580ea393f7079b91b73cd3f091ea108c22049ea81526020017f01940ab943115900c956a0ec3094e26e445eb819199b4c1d35c66e60c561466d8152508160800151605a81518110612f8357612f83613dee565b602002602001018190525060405180604001604052807f0646f18268791d974d7a83d3062da84748c37292d94907ef1a99841434d0540381526020017f0d4bd048bf6c367159c95783bb0a89aa5dedaa1c45bdc29047bdcc4ef72824988152508160800151605b81518110612ffa57612ffa613dee565b602002602001018190525060405180604001604052807f11c5578a1afd160c6d47122f715cca4253b43b023776e6e601631058b450d6de81526020017f0bfa0f47a224d277a9d987e619fb1c273ce979e41e944669211c7c89ab6d2fdb8152508160800151605c8151811061307157613071613dee565b602002602001018190525060405180604001604052807f2029254a5be3bf3724743da1b84332b43c1cddb314bb89f23e63660ee72ed4a681526020017f26b1bdbb36ced1195b6ac616b577b3bdff8dc1ad7d711cc066a0590f3fe75a7b8152508160800151605d815181106130e8576130e8613dee565b602002602001018190525060405180604001604052807f2a3f0f4c4992877b6b67f8db4b67f5cce6efb890e155c189cd22e1d684a8282e81526020017f1e9dc52ba5823d5c8430921aa17b454cd185115637f7f1392c5e4009742f09698152508160800151605e8151811061315f5761315f613dee565b602002602001018190525060405180604001604052807f14d13b031a310670e7f53f091e6fcd55b332d4622207bf1385d368506bbae10881526020017f29f1abd7d43a6d38fbe9cc5e45052fe21e1df099974e08d8bc97b931a4edc3db8152508160800151605f815181106131d6576131d6613dee565b602002602001018190525060405180604001604052807f2c5e029baf57adbc6d11a32a1e9871c9981dc6d6e9df6c9dd583e7692f6122ce81526020017f12fc2001a8ca19bda58a73204d33fd099c3171bb58a3b3a3d795bd3edd8c5192815250816080015160608151811061324d5761324d613dee565b602002602001018190525060405180604001604052807f273e65392027ce45d4a54b44275b72bf353d411b5adbea879c097efdc26d2be881526020017f0db2c6cda72566f1c363233ab6d168bd8f5228816faa45a9f711b7bdb8101a7681525081608001516061815181106132c4576132c4613dee565b602002602001018190525060405180604001604052807f1d835f64b2ec34ebe550fb99522ccf807311545961e5c66b1984c4b7634b668c81526020017f2352e8651cba550e2e2852df1613ca6d1a5c7bf225ccfe21e7aabdebaf3ca8b4815250816080015160628151811061333b5761333b613dee565b602002602001018190525060405180604001604052807f01d2f430fc58e60a4d050992d6cf1e4b38e278eaf4449c4fd7608cd94fb4a9a881526020017f01dbc3f44b51b5681ac31ea6df46a9a1aeb52d924fbb84734013f5405d52eb4881525081608001516063815181106133b2576133b2613dee565b602002602001018190525060405180604001604052807f2a17071b8836eceebdf4d1c375f9bb70c425fe7e77b91c865a6c0cf57eefdf4181526020017f100f683a43d84f047fe4792292ea9944cfa5efe8bcb2c1df5bcaad21e11ce72b815250816080015160648151811061342957613429613dee565b602002602001018190525060405180604001604052807f2a70690eeac09e3212a53278d85f43f0cac029081b758ebe85c10e0ade7a6b7581526020017f01d48fbed5b0b419d1c143460ba6e579b451026063233809c31705c08ca1862181525081608001516065815181106134a0576134a0613dee565b602002602001018190525060405180604001604052807f14b2e7c32c328820abdca1c832325d26e1ae7fa3492938f682bd89fd3029ad6581526020017f2d36ad3d6a3fb6b6ef33787983d594cce8cc68dd695d27a37ad0a280063171c1815250816080015160668151811061351757613517613dee565b602002602001018190525090565b6040805180820190915260008082526020820152613541613b35565b835181526020808501519082015260408101839052600060608360808460076107d05a03fa9050808061357057fe5b508061357b57600080fd5b505092915050565b604080518082019091526000808252602082015261359f613b53565b8351815260208085015181830152835160408301528301516060808301919091526000908360c08460066107d05a03fa9050808061357057fe5b604080518082019091526000808252602082015281517f30644e72e131a029b85045b68181585d97816a916871ca8d3c208c16d87cfd479015801561362057506020830151155b156136405750506040805180820190915260008082526020820152919050565b6040518060400160405280846000015181526020018285602001516136659190613e51565b61366f9084613e76565b90529392505050565b60408051600480825260a08201909252600091829190816020015b604080518082019091526000808252602082015281526020019060019003908161369357505060408051600480825260a0820190925291925060009190602082015b6136dd613b71565b8152602001906001900390816136d55790505090508a8260008151811061370657613706613dee565b6020026020010181905250888260018151811061372557613725613dee565b6020026020010181905250868260028151811061374457613744613dee565b6020026020010181905250848260038151811061376357613763613dee565b6020026020010181905250898160008151811061378257613782613dee565b602002602001018190525087816001815181106137a1576137a1613dee565b602002602001018190525085816002815181106137c0576137c0613dee565b602002602001018190525083816003815181106137df576137df613dee565b60200260200101819052506137f48282613803565b9b9a5050505050505050505050565b6000815183511461381357600080fd5b82516000613822826006613e8d565b905060008167ffffffffffffffff81111561383f5761383f613bd2565b604051908082528060200260200182016040528015613868578160200160208202803683370190505b50905060005b83811015613aa35786818151811061388857613888613dee565b602002602001015160000151828260066138a29190613e8d565b6138ad906000613e39565b815181106138bd576138bd613dee565b6020026020010181815250508681815181106138db576138db613dee565b602002602001015160200151828260066138f59190613e8d565b613900906001613e39565b8151811061391057613910613dee565b60200260200101818152505085818151811061392e5761392e613dee565b60209081029190910181015151015182613949836006613e8d565b613954906002613e39565b8151811061396457613964613dee565b60200260200101818152505085818151811061398257613982613dee565b602090810291909101015151518261399b836006613e8d565b6139a6906003613e39565b815181106139b6576139b6613dee565b6020026020010181815250508581815181106139d4576139d4613dee565b6020026020010151602001516001600281106139f2576139f2613dee565b602002015182613a03836006613e8d565b613a0e906004613e39565b81518110613a1e57613a1e613dee565b602002602001018181525050858181518110613a3c57613a3c613dee565b602002602001015160200151600060028110613a5a57613a5a613dee565b602002015182613a6b836006613e8d565b613a76906005613e39565b81518110613a8657613a86613dee565b602090810291909101015280613a9b81613e20565b91505061386e565b50613aac613b96565b6000602082602086026020860160086107d05a03fa90508080613acb57fe5b5080613ad657600080fd5b505115159695505050505050565b6040805160e08101909152600060a0820181815260c0830191909152815260208101613b0e613b71565b8152602001613b1b613b71565b8152602001613b28613b71565b8152602001606081525090565b60405180606001604052806003906020820280368337509192915050565b60405180608001604052806004906020820280368337509192915050565b6040518060400160405280613b84613bb4565b8152602001613b91613bb4565b905290565b60405180602001604052806001906020820280368337509192915050565b60405180604001604052806002906020820280368337509192915050565b60e060020a634e487b7102600052604160045260246000fd5b6040516060810167ffffffffffffffff81118282101715613c0e57613c0e613bd2565b60405290565b6040805190810167ffffffffffffffff81118282101715613c0e57613c0e613bd2565b600060408284031215613c4957600080fd5b6040516040810181811067ffffffffffffffff82111715613c6c57613c6c613bd2565b604052823581526020928301359281019290925250919050565b6000604051610cc080820182811067ffffffffffffffff82111715613cad57613cad613bd2565b6040529091508190830184811115613cc457600080fd5b835b81811015613cde578035835260209283019201613cc6565b50505092915050565b600082601f830112613cf857600080fd5b613d00613c14565b806040840185811115613d1257600080fd5b845b81811015613d2c578035845260209384019301613d14565b509095945050505050565b600080828403610dc0811215613d4c57600080fd5b61010080821215613d5c57600080fd5b613d64613beb565b613d6e8787613c37565b81526080603f1984011215613d8257600080fd5b613d8a613c14565b9250613d998760408801613ce7565b8352613da88760808801613ce7565b6020840152826020820152613dc08760c08801613c37565b6040820152935061011f85018613613dd757600080fd5b613de386828701613c86565b925050509250929050565b60e060020a634e487b7102600052603260045260246000fd5b60e060020a634e487b7102600052601160045260246000fd5b600060018201613e3257613e32613e07565b5060010190565b60008219821115613e4c57613e4c613e07565b500190565b600082613e715760e060020a634e487b7102600052601260045260246000fd5b500690565b600082821015613e8857613e88613e07565b500390565b6000816000190483118215151615613ea757613ea7613e07565b50029056fea26469706673582212207dd9f06f95c03ca3f1d36647d01cc9aee0ac1977d8991a711db298c2ed9489ad64736f6c634300080d0033",
  "immutableReferences": {},
  "source": "// This file is MIT Licensed.\n//\n// Copyright 2017 Christian Reitwiessner\n// Permission is hereby granted, free of charge, to any person obtaining a copy of this software and associated documentation files (the \"Software\"), to deal in the Software without restriction, including without limitation the rights to use, copy, modify, merge, publish, distribute, sublicense, and/or sell copies of the Software, and to permit persons to whom the Software is furnished to do so, subject to the following conditions:\n// The above copyright notice and this permission notice shall be included in all copies or substantial portions of the Software.\n// THE SOFTWARE IS PROVIDED \"AS IS\", WITHOUT WARRANTY OF ANY KIND, EXPRESS OR IMPLIED, INCLUDING BUT NOT LIMITED TO THE WARRANTIES OF MERCHANTABILITY, FITNESS FOR A PARTICULAR PURPOSE AND NONINFRINGEMENT. IN NO EVENT SHALL THE AUTHORS OR COPYRIGHT HOLDERS BE LIABLE FOR ANY CLAIM, DAMAGES OR OTHER LIABILITY, WHETHER IN AN ACTION OF CONTRACT, TORT OR OTHERWISE, ARISING FROM, OUT OF OR IN CONNECTION WITH THE SOFTWARE OR THE USE OR OTHER DEALINGS IN THE SOFTWARE.\npragma solidity ^0.8.0;\nlibrary Pairing {\n    struct G1Point {\n        uint X;\n        uint Y;\n    }\n    // Encoding of field elements is: X[0] * z + X[1]\n    struct G2Point {\n        uint[2] X;\n        uint[2] Y;\n    }\n    /// @return the generator of G1\n    function P1() pure internal returns (G1Point memory) {\n        return G1Point(1, 2);\n    }\n    /// @return the generator of G2\n    function P2() pure internal returns (G2Point memory) {\n        return G2Point(\n            [10857046999023057135944570762232829481370756359578518086990519993285655852781,\n             11559732032986387107991004021392285783925812861821192530917403151452391805634],\n            [8495653923123431417604973247489272438418190587263600148770280649306958101930,\n             4082367875863433681332203403145435568316851327593401208105741076214120093531]\n        );\n    }\n    /// @return the negation of p, i.e. p.addition(p.negate()) should be zero.\n    function negate(G1Point memory p) pure internal returns (G1Point memory) {\n        // The prime q in the base field F_q for G1\n        uint q = 21888242871839275222246405745257275088696311157297823662689037894645226208583;\n        if (p.X == 0 && p.Y == 0)\n            return G1Point(0, 0);\n        return G1Point(p.X, q - (p.Y % q));\n    }\n    /// @return r the sum of two points of G1\n    function addition(G1Point memory p1, G1Point memory p2) internal view returns (G1Point memory r) {\n        uint[4] memory input;\n        input[0] = p1.X;\n        input[1] = p1.Y;\n        input[2] = p2.X;\n        input[3] = p2.Y;\n        bool success;\n        assembly {\n            success := staticcall(sub(gas(), 2000), 6, input, 0xc0, r, 0x60)\n            // Use \"invalid\" to make gas estimation work\n            switch success case 0 { invalid() }\n        }\n        require(success);\n    }\n\n\n    /// @return r the product of a point on G1 and a scalar, i.e.\n    /// p == p.scalar_mul(1) and p.addition(p) == p.scalar_mul(2) for all points p.\n    function scalar_mul(G1Point memory p, uint s) internal view returns (G1Point memory r) {\n        uint[3] memory input;\n        input[0] = p.X;\n        input[1] = p.Y;\n        input[2] = s;\n        bool success;\n        assembly {\n            success := staticcall(sub(gas(), 2000), 7, input, 0x80, r, 0x60)\n            // Use \"invalid\" to make gas estimation work\n            switch success case 0 { invalid() }\n        }\n        require (success);\n    }\n    /// @return the result of computing the pairing check\n    /// e(p1[0], p2[0]) *  .... * e(p1[n], p2[n]) == 1\n    /// For example pairing([P1(), P1().negate()], [P2(), P2()]) should\n    /// return true.\n    function pairing(G1Point[] memory p1, G2Point[] memory p2) internal view returns (bool) {\n        require(p1.length == p2.length);\n        uint elements = p1.length;\n        uint inputSize = elements * 6;\n        uint[] memory input = new uint[](inputSize);\n        for (uint i = 0; i < elements; i++)\n        {\n            input[i * 6 + 0] = p1[i].X;\n            input[i * 6 + 1] = p1[i].Y;\n            input[i * 6 + 2] = p2[i].X[1];\n            input[i * 6 + 3] = p2[i].X[0];\n            input[i * 6 + 4] = p2[i].Y[1];\n            input[i * 6 + 5] = p2[i].Y[0];\n        }\n        uint[1] memory out;\n        bool success;\n        assembly {\n            success := staticcall(sub(gas(), 2000), 8, add(input, 0x20), mul(inputSize, 0x20), out, 0x20)\n            // Use \"invalid\" to make gas estimation work\n            switch success case 0 { invalid() }\n        }\n        require(success);\n        return out[0] != 0;\n    }\n    /// Convenience method for a pairing check for two pairs.\n    function pairingProd2(G1Point memory a1, G2Point memory a2, G1Point memory b1, G2Point memory b2) internal view returns (bool) {\n        G1Point[] memory p1 = new G1Point[](2);\n        G2Point[] memory p2 = new G2Point[](2);\n        p1[0] = a1;\n        p1[1] = b1;\n        p2[0] = a2;\n        p2[1] = b2;\n        return pairing(p1, p2);\n    }\n    /// Convenience method for a pairing check for three pairs.\n    function pairingProd3(\n            G1Point memory a1, G2Point memory a2,\n            G1Point memory b1, G2Point memory b2,\n            G1Point memory c1, G2Point memory c2\n    ) internal view returns (bool) {\n        G1Point[] memory p1 = new G1Point[](3);\n        G2Point[] memory p2 = new G2Point[](3);\n        p1[0] = a1;\n        p1[1] = b1;\n        p1[2] = c1;\n        p2[0] = a2;\n        p2[1] = b2;\n        p2[2] = c2;\n        return pairing(p1, p2);\n    }\n    /// Convenience method for a pairing check for four pairs.\n    function pairingProd4(\n            G1Point memory a1, G2Point memory a2,\n            G1Point memory b1, G2Point memory b2,\n            G1Point memory c1, G2Point memory c2,\n            G1Point memory d1, G2Point memory d2\n    ) internal view returns (bool) {\n        G1Point[] memory p1 = new G1Point[](4);\n        G2Point[] memory p2 = new G2Point[](4);\n        p1[0] = a1;\n        p1[1] = b1;\n        p1[2] = c1;\n        p1[3] = d1;\n        p2[0] = a2;\n        p2[1] = b2;\n        p2[2] = c2;\n        p2[3] = d2;\n        return pairing(p1, p2);\n    }\n}\n\ncontract AgeCheckWithOneHundredDoubleForVerifier {\n    using Pairing for *;\n    struct VerifyingKey {\n        Pairing.G1Point alpha;\n        Pairing.G2Point beta;\n        Pairing.G2Point gamma;\n        Pairing.G2Point delta;\n        Pairing.G1Point[] gamma_abc;\n    }\n    struct Proof {\n        Pairing.G1Point a;\n        Pairing.G2Point b;\n        Pairing.G1Point c;\n    }\n    function verifyingKey() pure internal returns (VerifyingKey memory vk) {\n        vk.alpha = Pairing.G1Point(uint256(0x1f59cf48d8382a8c2ffda0d03e1f46779d44621d6d14bc36407a89dbb779b412), uint256(0x10d20f987e1bdff18f47a4a53923d481278440f5d91f70d8c1018f7d67651e48));\n        vk.beta = Pairing.G2Point([uint256(0x25e51eb27bf872b695695e1d3d8e3754aedcd02a7f9b87cc9393d0c2b71adf12), uint256(0x0d0c2386b35ba45f56deb707308c8a4658ebec3bfb680b3444cc8b5c9451c185)], [uint256(0x2021344d4e40f08c0ebc1b6d0af2df3d486458d363f4b1b3498f1b76e125adb8), uint256(0x09c8f880821019595eabadce03f5abe83b6e5409d73fdd8af4dd3d8ab32d2a74)]);\n        vk.gamma = Pairing.G2Point([uint256(0x00c3166a7cbf9d1a1fd65fc7ddfcec2a11a841b27353339b1c52bae2a16f917c), uint256(0x1b326b678853577ccd0f1145c55db5386c9c7673599567935adc086b51f66c32)], [uint256(0x2dc473f9e68e73170af25ce360d0448cbd68e4a1afb9ce3e52720e1ecc8bb103), uint256(0x1a8a12ae422354180b08abb41a0e535c00e176f7d0352ebc9b343b8b8f5f37c2)]);\n        vk.delta = Pairing.G2Point([uint256(0x2c2bb1cde916a698b68e6cd8cee79d1760a91aad496180a1979304321fb7f04e), uint256(0x192622b136c3b54d24565cf14b35fc6f9f053c1dd76fd2005127c011192196d6)], [uint256(0x031d425cc60027154d0a54743857821084313f4078164215025c01d6d28fe768), uint256(0x1955d1b0b5b3f24447a797b22360bd4cc18cc90ac580a7de4d40741fa8fe1023)]);\n        vk.gamma_abc = new Pairing.G1Point[](103);\n        vk.gamma_abc[0] = Pairing.G1Point(uint256(0x101cf711ef4e6bc14a63c79c48342870d19ec84baab5c38f062c224b1f3f463d), uint256(0x1eb58ddadfad0741c5716eeb0952a15ca1b01453e3c45199040e7d7d5d119d9d));\n        vk.gamma_abc[1] = Pairing.G1Point(uint256(0x025d32b5f861e2b2742e1f8de56bbf347b11844d48125144e77ebdb6657fa9f9), uint256(0x032a7c7c8c2dface3d33ba85417695c3d8d19bc9ea66daeeccff198c3e23efaa));\n        vk.gamma_abc[2] = Pairing.G1Point(uint256(0x097b1de2f65b4422589f29efc250e72c20d09c60786c032b03e44587dcf08f0e), uint256(0x18a43ea770f8c05f59fdad7aaf4e60ed7decf17246ba2a4dcdf2f39860b3e60f));\n        vk.gamma_abc[3] = Pairing.G1Point(uint256(0x1072532309d0c7b4bbef9b8ebe3f99f003c085f42efd49e436f61a34d02a8f34), uint256(0x2cd81d3cb6acda31684bf51ae19efc6e16cc07afd48c252398eaa51837a97312));\n        vk.gamma_abc[4] = Pairing.G1Point(uint256(0x202d23691c130ce8e1bbd0849dc471774e8e6e545227100bb0f806705ba74c97), uint256(0x27c9ee96c191f9a5c969f4453e8891dbd8c6f7b690bc798acb7c513e6c5dc0d7));\n        vk.gamma_abc[5] = Pairing.G1Point(uint256(0x165f82e9c027ae12745069476495a371492ea16ea75fd251ed889ae78efde888), uint256(0x165efea5f10caf68f60dfa2e18bc164dbdcd91dd1054786774d0ee979dfe3427));\n        vk.gamma_abc[6] = Pairing.G1Point(uint256(0x1130bc2996184c4d68d9af1cefb87171be9d4ce77a06cbe5de2f1d82fd64eb52), uint256(0x292deb2ecf4b3aaab65719761df7ea0f5943eb0aaf0223d9067787e52776064a));\n        vk.gamma_abc[7] = Pairing.G1Point(uint256(0x13e0cc8eac97c7bc06e21bbdbd0f9fda0f774d39e575051c77af3897b3e58ef4), uint256(0x2462539cd502664d64bde81c55a82f76e5fc6add235474c0a0494d974463eac3));\n        vk.gamma_abc[8] = Pairing.G1Point(uint256(0x284f89b9e610a66740c8b126e87547389699cb20c4216dadf88b10688c73144f), uint256(0x2372bb5771751f9a22c082af3e9d869452cc727d8fa2d708b7fa231b27767997));\n        vk.gamma_abc[9] = Pairing.G1Point(uint256(0x264192228366bd08145a439bfee259c8007b0b2e5f158174bb22b18f3d8f9737), uint256(0x01afb430dacc735151e90408bb54a02a9e28e0a4e10218bcb243110c46a17319));\n        vk.gamma_abc[10] = Pairing.G1Point(uint256(0x2ad7a92da1f65264348986872b77666bdcc843cfa608222556d6c8d7ca40ea34), uint256(0x2357b1c77c2ef8eb0638a27c8751565c1206714e52342af1c8cf23c2b3da3575));\n        vk.gamma_abc[11] = Pairing.G1Point(uint256(0x11425f72887b9d6ccdf5c69c48542b662388b7beba4ae7639bea64da0b700a85), uint256(0x066aac372b167a49d645d7dc12bd26c58ae58caa8508b78e293b75b951bcfd22));\n        vk.gamma_abc[12] = Pairing.G1Point(uint256(0x29d98c78e3fe1977c5c1ee7239732a6774d899ae5d2d849de2c54067003a21fb), uint256(0x2b2ac5a77d3d107a9441bdb53e259996df73e38d1a43a698a91f0076ed3bbbf2));\n        vk.gamma_abc[13] = Pairing.G1Point(uint256(0x0e2805daa40417238b96ea8997a516810bfc1b40d6d8f5816ff558927cc325fb), uint256(0x281dbd22a9119efb6f85a2c85e2fc4593f8f2bbfafed760d1a2ac191086b9144));\n        vk.gamma_abc[14] = Pairing.G1Point(uint256(0x181626aac5e319ca355b953bf44a4385ec768a8b80a3ed1020efc5960a3aafa2), uint256(0x0db5d26c9eb5bf32b685c3257f246ebf284caac06bb1485cc5b5ac94a5342cfb));\n        vk.gamma_abc[15] = Pairing.G1Point(uint256(0x255d42240b51adb42e77cf30167ccf36e8f78428cce38812e00925ab039665f1), uint256(0x14a6e7a58ad25f8f289f51e250b6e00e1222630a11d7b1d868984fc3f54990e4));\n        vk.gamma_abc[16] = Pairing.G1Point(uint256(0x0ef4665a7145d3748946327b01580b63d231f5960cb2c8f21fa9266115b934b1), uint256(0x2564f78309adbdc3291a63f5980e94439cf655373b7db0841a32c4c71c21ee6c));\n        vk.gamma_abc[17] = Pairing.G1Point(uint256(0x17f26060cc95df7f6a78433380d1bbb09d842d31c3da3a044996df06f8582921), uint256(0x227ee6fb925d961a382ac67f9fa264c0c528c081823332b4f5a61cdd594c9803));\n        vk.gamma_abc[18] = Pairing.G1Point(uint256(0x277d2b103e7cf29b44c39c3b73bf272bc2e9bb32ca7691153b983e214ffa7449), uint256(0x2d2322a5f35a4107b6a5849545fa5c3abe57ec08c4da383e1054e0cfb8305100));\n        vk.gamma_abc[19] = Pairing.G1Point(uint256(0x0aa4456f33dfa2fa1086527b86c18ec940d5f48510a853544702b7fb8000bc08), uint256(0x19498e203578e1cb6261bf6294e127f6dfa8d3440435bded01d2c058f728a1a8));\n        vk.gamma_abc[20] = Pairing.G1Point(uint256(0x2fb1634ef15feeab9eb4faa3162c351dae4b3589fc98822efbb5f0a91c783385), uint256(0x25c0bd90146629b4ae7ff0b434430e15cacf4ee22ad301afa015c188dfe41cbf));\n        vk.gamma_abc[21] = Pairing.G1Point(uint256(0x1bdf82128009903c634fc379d46d874d703d8485f965dfba742d4313650784dc), uint256(0x2452637574b5f34db1a7a390f6285576dad9a964b014e9bd3ee76e4e4fc21f7e));\n        vk.gamma_abc[22] = Pairing.G1Point(uint256(0x0e2ed5f117eb566525aba18adbc08edf1650de48558811b87014fe75f9ba2dc6), uint256(0x1a00140d8f5f68f945e4c6a406d4a627b36b415188e3f857173e86627ba9831b));\n        vk.gamma_abc[23] = Pairing.G1Point(uint256(0x091ff07a651b40625039d0454c7c6d1d9278c49c72d63e58deddc40aaae849fb), uint256(0x27af9f51b5eef9925bcbbba5e21ff27bbc2b552af5f84801829fbf017402a806));\n        vk.gamma_abc[24] = Pairing.G1Point(uint256(0x0d30dd61f0bb422a07f77e9cca55395359fde007a5617989221f3f901ac17081), uint256(0x0509e9452c0d123e32403594f8543bdbe6bba23ac75635cde69958a9f90a3a66));\n        vk.gamma_abc[25] = Pairing.G1Point(uint256(0x19592568bdf83b6cf268b1fa8ea0992c452a5758a620389b7c2f5f030ae65ea3), uint256(0x20626a6c23d76b8e4bdac0e6e4a4e7792cb05a8a4c906e4913e7973053291022));\n        vk.gamma_abc[26] = Pairing.G1Point(uint256(0x251dfe2e1cfd5f56b50a5faa3d728ff8a0d1644b95a0a98530893a80eddc4e90), uint256(0x0ab10c4f43d809d0b45f51aaf16dda80f90a492cdb31abc3e6a18f974d9ea68a));\n        vk.gamma_abc[27] = Pairing.G1Point(uint256(0x2d9fcb159d3f644691474fe3a4705f750f42b4c77824dee6c5fadb991b3c3226), uint256(0x1e91ffda5cc7b7fb9fcc778a9e70e41feedc0c701449535c756ed13e95e48e1c));\n        vk.gamma_abc[28] = Pairing.G1Point(uint256(0x21132d8b97a91fac7d3bcd9a2402e6ee460d06b123a40b1a77620c5aee5eb92b), uint256(0x190b2121decc89eb58e2a39490b20be6149aeefbbc486910d3a206fe2d2bd2ab));\n        vk.gamma_abc[29] = Pairing.G1Point(uint256(0x277b074d6d1ea12d67a099fe65fa24582c25039685fda4fa64e5f033cb98abeb), uint256(0x2777cbc2dd6c4d13b717878166b46fb55a40bdde341336331191915af93723e9));\n        vk.gamma_abc[30] = Pairing.G1Point(uint256(0x1b6a67307b36b9f52be90d4ec13164745fe131947812af618a51740e73e75156), uint256(0x223b9f91ea732acce0c89ee2c3ada4333bd76c1cb042bacda3c3e4649c444768));\n        vk.gamma_abc[31] = Pairing.G1Point(uint256(0x2764723559501fe434756d7627f6620d507e20aed50ae1c8a68cf7e5f0e56ec4), uint256(0x19aca1394d6fbf754c247065fab4bed6f3d5ec30fe6e3151516f3ca3f76422f6));\n        vk.gamma_abc[32] = Pairing.G1Point(uint256(0x06c58bf23ad03bf501bd6f06cac941f28ffc4be3f1088170dc5d1770592d698a), uint256(0x2e82c99f6704275161fa0f03d065c863b510d41b378d0bedebaa07427c824742));\n        vk.gamma_abc[33] = Pairing.G1Point(uint256(0x112aadc20a49b02ab237f1b6bba5f09c10027305c25d0690dcd2f47934ffa783), uint256(0x15331619bd21acbc5babbd2baf77b691b710a1ce4f3069955e7fe667119b5154));\n        vk.gamma_abc[34] = Pairing.G1Point(uint256(0x1a8e054fa7e55887f0748a250f41af9086007b0903441defb471167805ff1a69), uint256(0x28fe99696c2c7a5083e54eea65abd727b1e28f2d64976bb801f16768e3583649));\n        vk.gamma_abc[35] = Pairing.G1Point(uint256(0x12f3c6a045a4b254992020072efa623ec29d84c207958e4636a62ff0789d52ee), uint256(0x1608a0d5f81088e43f48027b32ddf7c8b53f2580b4e1a60a339485dc626ee2fb));\n        vk.gamma_abc[36] = Pairing.G1Point(uint256(0x24433cd6d427965b0e2773166ccbda8e596424fbca72034a23198bbb9d6530e0), uint256(0x0ce8a12e1fbc34b42dd816ce3e60e9f0c1384afcc5327ca51ce330d8b3427e8c));\n        vk.gamma_abc[37] = Pairing.G1Point(uint256(0x0a62d30d70055a9902a0f7df27440e02daf42a028ba3e62cb5aaccc065a7ee47), uint256(0x20881b63da694dc68a737d19d1163e35f87d9fd077f30a2c6c09be4336107c34));\n        vk.gamma_abc[38] = Pairing.G1Point(uint256(0x01ac5f306cbd7f0e7ebf47750b446f43528f1105a5e9c1a86a6a6f0ee568f106), uint256(0x2dbdb81ab56dadd75eb66c61ef0b090c1a02830da433e33a5abd7ae780e2d87b));\n        vk.gamma_abc[39] = Pairing.G1Point(uint256(0x2741ede5910d5c13a001d00690b2350be6ce0b613ae8caa40c27b24082009b69), uint256(0x022cc87f2aab2029467e0c89b48b2e7ba9d30d4f2ad16acc5cebb16eb5c7df60));\n        vk.gamma_abc[40] = Pairing.G1Point(uint256(0x0a6cd8ea58685f7075efe04b633ccb534b77e08495a3caf5b1c76cbc313ed4dd), uint256(0x0cc99d1260ae732722a4ac737efbfc2324eeb0e418239c530cd73c0bb0cc890b));\n        vk.gamma_abc[41] = Pairing.G1Point(uint256(0x05e336ac395d22ec4f28470c4bab1445c6dd9838b8ff55c2d46bf1337cc64954), uint256(0x0d5bbd4425f0910bba6a7c23f75b86483678b1e7bb133613835f050bdabef295));\n        vk.gamma_abc[42] = Pairing.G1Point(uint256(0x0dab3bf1a6ee3834685625c38cbfb06f488890dedc027bf731650e99204e8389), uint256(0x1a6bcdd0472a179e10764e84f07b05a6151087232174543fae8f8c2e72092caa));\n        vk.gamma_abc[43] = Pairing.G1Point(uint256(0x061f63f96e83bf53ac7255c21bce922d60d14b5a19509c7618e48b00304bd3c0), uint256(0x1346f5a95dd87a6b6464c381bdd47a38ea06dc3170ad85f9a2b2b4d2646f30d2));\n        vk.gamma_abc[44] = Pairing.G1Point(uint256(0x2399be72ff0708912525accb4670de9c54e219a50b6b4065f24ad63cb2232215), uint256(0x12acaa2a3c982aa1f50e46ebfa0ae3d1e2f34397b151f768925ac498bf5efc09));\n        vk.gamma_abc[45] = Pairing.G1Point(uint256(0x07ef4835913dc3082165bdeba4cd634dc5e7988fafa3ae6d685353d9457f97ac), uint256(0x2362a6966dab7688191cb655e7eddad6c6e98a139faeb1e1fea9aaafe0b94484));\n        vk.gamma_abc[46] = Pairing.G1Point(uint256(0x23d6c616431de6d0212220cbe7748d99a39aed44be38da3e4049c9fb99a3c0b7), uint256(0x0b7d0fc904def984482048c7af740ab38decbd0fef6c19c24a8bfada959386c8));\n        vk.gamma_abc[47] = Pairing.G1Point(uint256(0x09d3e9416aa5429f969d43e12e658850771bfee4dddfeb268b5768c3b94d0b38), uint256(0x21ba395ed4c9ba9ac508a07df114c07c4e1ed54cebe95c9a310bf4dd0603e5fc));\n        vk.gamma_abc[48] = Pairing.G1Point(uint256(0x0558ab1e3f6e4d2f4774f07fc3c4a083ecf6a1fb6e39c146f1e2615c4c83c4d2), uint256(0x295467c79a76d49e1137d0097378bdb36570e22d658378618c8980f7f69809cf));\n        vk.gamma_abc[49] = Pairing.G1Point(uint256(0x27171f8fbd981405d9732ff0b1bcfc412a8ca31de9e6061188bb176d59e6bd10), uint256(0x27805b3d8721ff562e7c358f962552484c8ab1fa75d410c178449b3f82f3c2f1));\n        vk.gamma_abc[50] = Pairing.G1Point(uint256(0x069a346a95bcabc510963c5a286fa44910a217ba79aae8ad8dab984b9b19acea), uint256(0x23bc157bfeaedbe4bad40520eaa0c8d3bc50dc4037a0f5333d3d85c8cdefca16));\n        vk.gamma_abc[51] = Pairing.G1Point(uint256(0x0956501be661a6cf76a65542eeccf60f3161d24aff47da4d270c091bea33d4f8), uint256(0x16dc85d88251d7a020972d3ff371fa0e2e71c4d91dbdc83b96a5b15f362b79fb));\n        vk.gamma_abc[52] = Pairing.G1Point(uint256(0x0f54ae1673fa869124faa08a0edee1256ffc73c237d40283c2b2abcdc315a407), uint256(0x1a1ba0ebf6b6ca72c7e4e1bb75bc261c1b90f51a32e8ab05b620a9904033103f));\n        vk.gamma_abc[53] = Pairing.G1Point(uint256(0x241488738b819b210e80fd84d86bc54821929f10d130a1def8a87ada6e3903e4), uint256(0x0a63b974b8a1610a4c20cb16abf059a24cf78ac8b4b63d609c6ff4abda43600a));\n        vk.gamma_abc[54] = Pairing.G1Point(uint256(0x1f8bbc9bb2b5a4c0989b940b0bf54162665051f906aa2885c8766db7861b1352), uint256(0x14f479ab084b3788491d5d44c37e1acb0b930882b0f5e778c0814554c04cc6d9));\n        vk.gamma_abc[55] = Pairing.G1Point(uint256(0x21a5d19ef2e61347d013465bcf88b776d1bac81728a8cb09bc7125cedb9f8943), uint256(0x10a7a95e37f22fee60a8f09fe11300e4542d3407836efe1931b250836e42155c));\n        vk.gamma_abc[56] = Pairing.G1Point(uint256(0x11bfc009d88ea0d5c1f21109414b8b74c9f24e5f432d31293908ca61408088a6), uint256(0x00e8d16ac1552a689b47f4f51dd4242f6952f003ecd8397a530d2c07e72f8c71));\n        vk.gamma_abc[57] = Pairing.G1Point(uint256(0x2a195d5f96fc08e9d587d85906dad65802741f2a62525e72008e4012baada1f4), uint256(0x22f0ffb585e0f3e5bddba920d8192cf611ff2e4b9adb73e18bbc28f94e57df55));\n        vk.gamma_abc[58] = Pairing.G1Point(uint256(0x07a490629f36bac547b3e3282753823b4a97c4381564c56f91ba7b5763eef0fd), uint256(0x2e9731b8994fe6085a3cd7da8c88ac19dce6c4aebfda6d506000dfd957d3bf73));\n        vk.gamma_abc[59] = Pairing.G1Point(uint256(0x0493dcaf99fb592cdd1605b063184674a59fb59fcd6303b9c41be46cd29be327), uint256(0x0d87261770b65ce826f530bd65a5d4c6511c5952793fde5db28f1725c91ace4d));\n        vk.gamma_abc[60] = Pairing.G1Point(uint256(0x138c5ef676c9a1e5eae1b37c02686b9f71e27d454c8df40e88edf746035f82b8), uint256(0x0867a4db215af8d5f929c8804461d1eaf5253c532ee6bfc409572aedbcd4f808));\n        vk.gamma_abc[61] = Pairing.G1Point(uint256(0x20437bb3ae3514b8fbc8174e7de8d4cb5d1b4a315ef9753b800fe9900bc5a490), uint256(0x017944b8fffc3086bb08d3e9a63782d482ccf2e088620040e760ec8ac6c40170));\n        vk.gamma_abc[62] = Pairing.G1Point(uint256(0x09bff93c2d40932c09efcb11b3b8af0966951f91ef521bf30df38a9886d68851), uint256(0x11e16cfe26167f756eb7012a80ee08ec9e74cc2bd1e2a1b6750e601079794efa));\n        vk.gamma_abc[63] = Pairing.G1Point(uint256(0x23a30753985bcfc661f80af66decbb9deca8c0a8fd4a500795af8f07d9135d69), uint256(0x2029d8578b96bb7cc9f2f734dcf548d86226de9c7174624e27f6d08ef633c13c));\n        vk.gamma_abc[64] = Pairing.G1Point(uint256(0x0f72a59ce653e78be0b705086691b97e717a75f7b2ea09a76979a617a86f6547), uint256(0x04ef3f5b990182426168126bf636834e5f8148e1ce0228b934bbda067cf24730));\n        vk.gamma_abc[65] = Pairing.G1Point(uint256(0x21083b02df469ed571f799fceaabf2e17d8ab6ea25197067d2636018a7ae2496), uint256(0x103ac95a6efc4c0e537a70b28fad3f34e64c4f328a0c420651b18e900f697a53));\n        vk.gamma_abc[66] = Pairing.G1Point(uint256(0x2cc0fd0a75fe111e98ccb81803e66529deaf3a3174fe71d53ebb4fb67d96feee), uint256(0x1d6345d10df422d06ba21eeb1f95738015119b795c060f80d56c97076a569334));\n        vk.gamma_abc[67] = Pairing.G1Point(uint256(0x2fa50713fd45ff63ff7df3b45d32d3fb351f9f4866299167e9538b3da5b55e9e), uint256(0x0bbb3a0456f25ac23dfc974130e7320bbf23333ecae02f6f51550520c08229dd));\n        vk.gamma_abc[68] = Pairing.G1Point(uint256(0x05a3cd9c2d896535f0bda0810df0f54fb9a77496a2b0254a02264b44c7f85b6d), uint256(0x129812096c5237278742265ed322ac7f423b15d14481df63a90e1a76e6c16981));\n        vk.gamma_abc[69] = Pairing.G1Point(uint256(0x2e7a39372448843aa193d26de8b3d07595efbc56c1a4f9f1bf62030d214dd3dd), uint256(0x16c421c555d948d0e7d731494affeb43d1c83be29ed2bf2574e19c59f6996f07));\n        vk.gamma_abc[70] = Pairing.G1Point(uint256(0x2a08947102fe5fd0986ad9de004e2790847e4f7f1dfdc2684a2ebfb91b58c4a6), uint256(0x2c0b60b3c13f5d56a6981daefc67d938a30d0c2be4a97091f7b59736729d255c));\n        vk.gamma_abc[71] = Pairing.G1Point(uint256(0x04f9f17fdc2987d9b05f749ae1eec832f50babaec3c2c68b57590326dfbd4313), uint256(0x2890e33205b4c976ca9984483e988c5a1f2ba44a545f526e1cd6c7435cc1a0ff));\n        vk.gamma_abc[72] = Pairing.G1Point(uint256(0x2b82c74f98c77e105c2eed6fab5b59b7d33816aad65ffccd494b8a4fcfbd312d), uint256(0x23be251d0acc68182c187bf19f5be9f788b2a14a9c98065336d7409b1c3170cc));\n        vk.gamma_abc[73] = Pairing.G1Point(uint256(0x2fd34362f72b433ff8f5f2c5a17d9a63ccc4c4b8dcb2707708a8cb1658985105), uint256(0x2a515b83da5d0b6b4bf4756b3c4b068341a15f3d2ed9fdd78ef6a40a06614b3e));\n        vk.gamma_abc[74] = Pairing.G1Point(uint256(0x06eacaf978691c795e6cb638ae4e1b4502727c298978c2206e15968fc2953716), uint256(0x27634f21a583047003488c173f125d938b6090c863e4f30345542406d0195356));\n        vk.gamma_abc[75] = Pairing.G1Point(uint256(0x065a27fb8e2125c4baff9b9fabc2f252372637b7559a202eb3e5b7d863a684f1), uint256(0x2ddf63c4eb76528141f12de9f1c845bf3ca1fc980261430f122afc3a34749482));\n        vk.gamma_abc[76] = Pairing.G1Point(uint256(0x16cdac193497529a0fcdaedbeb5c22b20ff2532769db4c224443b2e94e1dfbbf), uint256(0x285deacc2b8d388c7df7356a2475e35c2f7daea616b3fc92acd31fd2d7dfa51d));\n        vk.gamma_abc[77] = Pairing.G1Point(uint256(0x23d84a17bf126f66122b84a8ee84c0cfdf23a6a52f24945a68f69bd3a42ed7a0), uint256(0x23cf9ac8bcbe08fdc973e8f8caca11086d5ddd080cc3fe3f0df47fc03824e7fa));\n        vk.gamma_abc[78] = Pairing.G1Point(uint256(0x0548a198586f4044c8c2c84cc4f7839b0230f86013d0d8cf276c57201620e95c), uint256(0x25a56cc1590ddd7c731b1ecff9b7937c1f42e1cd04aebfdb405c68e9f6f5a122));\n        vk.gamma_abc[79] = Pairing.G1Point(uint256(0x256534209aa80ce5e4e9e2dbe1af80268e6dc4a857bd83a6e885d0a7da819ba1), uint256(0x10697d49244377e4e3fa2b173889f3b67a71414dd358a3aadc1224d402e7592a));\n        vk.gamma_abc[80] = Pairing.G1Point(uint256(0x23806351ffa84f5f0c501330d41c9089d27d35b0e70a121543f8148cc93f6598), uint256(0x0d7db8127018fd4bcbece0d3ca842fb24609bc1e18ed322e02845437723bf7fa));\n        vk.gamma_abc[81] = Pairing.G1Point(uint256(0x1fd4e40717fbdb462289054611798e7af4575f327edce09fa275f8335a3025a8), uint256(0x0fb22bffd517966f2fbb7b07f9e506eb148affd3c087a663520af4d1b14de6e3));\n        vk.gamma_abc[82] = Pairing.G1Point(uint256(0x22a75b198944d8840c4b30ad40616bbc583b577fc4c7fd1922d2a1f5e82437b3), uint256(0x10d30c54c81fe5905c5af4b6ae8aac662010a8c9cffd3c901d869c6e73b17c8f));\n        vk.gamma_abc[83] = Pairing.G1Point(uint256(0x22d2d31cfe32b66449c70f2149b7b45234bd8b4c3106f51c8a7a297a87025816), uint256(0x2cd9756cc0edbfdad901086e576e82885c77a8b0943da44c70bfa13997031afc));\n        vk.gamma_abc[84] = Pairing.G1Point(uint256(0x2c1d1727c008d764c2939525545368c61ab1e9a838764c2d0165c91d9bae0ff0), uint256(0x12f1a11e54369da45640c0ef74c79c40c3ceb1812bf1587e23371329ee2ba557));\n        vk.gamma_abc[85] = Pairing.G1Point(uint256(0x0fea76278ff27bbe142328e3e63e7b6d4a5f89917b743d22f59ca9541e4d2a45), uint256(0x15ffe33c1b9fd2e80d8110aba633145d67d00281cea77ec926de92c4f9fcb076));\n        vk.gamma_abc[86] = Pairing.G1Point(uint256(0x24276b98a8f12424ac4d03c35d16dbde2a00003b5cf896f4518d197dae328802), uint256(0x2ff8b056df2b452ba64db1e722d20461e00793f93a90cba77be5688f7a810bbc));\n        vk.gamma_abc[87] = Pairing.G1Point(uint256(0x2d4dc9cf9f703b2a8de31ae6f49229cc0b0e6b366fb8317380fa32d99f4de23e), uint256(0x219d99a379869cb32379ea8453b9010ce359c27680784ee405987d3665c0697b));\n        vk.gamma_abc[88] = Pairing.G1Point(uint256(0x21906d987d346c8da2c1f6e9b0c741e1aea42429e58db524df2a03740097fc46), uint256(0x29711c15af361930d90b7cb02325589257a7c330b63b6938cdebea5e725b4c5a));\n        vk.gamma_abc[89] = Pairing.G1Point(uint256(0x2f21b2b3b897979b8a3c0805905c78e6d675de6b592ec0ae8c48f259cbca0bb9), uint256(0x062b001da94696b50a0dedecb60267719ac238ff24abfda033a186846fc52f6b));\n        vk.gamma_abc[90] = Pairing.G1Point(uint256(0x2b405620120e578f5d2ccbf7c580ea393f7079b91b73cd3f091ea108c22049ea), uint256(0x01940ab943115900c956a0ec3094e26e445eb819199b4c1d35c66e60c561466d));\n        vk.gamma_abc[91] = Pairing.G1Point(uint256(0x0646f18268791d974d7a83d3062da84748c37292d94907ef1a99841434d05403), uint256(0x0d4bd048bf6c367159c95783bb0a89aa5dedaa1c45bdc29047bdcc4ef7282498));\n        vk.gamma_abc[92] = Pairing.G1Point(uint256(0x11c5578a1afd160c6d47122f715cca4253b43b023776e6e601631058b450d6de), uint256(0x0bfa0f47a224d277a9d987e619fb1c273ce979e41e944669211c7c89ab6d2fdb));\n        vk.gamma_abc[93] = Pairing.G1Point(uint256(0x2029254a5be3bf3724743da1b84332b43c1cddb314bb89f23e63660ee72ed4a6), uint256(0x26b1bdbb36ced1195b6ac616b577b3bdff8dc1ad7d711cc066a0590f3fe75a7b));\n        vk.gamma_abc[94] = Pairing.G1Point(uint256(0x2a3f0f4c4992877b6b67f8db4b67f5cce6efb890e155c189cd22e1d684a8282e), uint256(0x1e9dc52ba5823d5c8430921aa17b454cd185115637f7f1392c5e4009742f0969));\n        vk.gamma_abc[95] = Pairing.G1Point(uint256(0x14d13b031a310670e7f53f091e6fcd55b332d4622207bf1385d368506bbae108), uint256(0x29f1abd7d43a6d38fbe9cc5e45052fe21e1df099974e08d8bc97b931a4edc3db));\n        vk.gamma_abc[96] = Pairing.G1Point(uint256(0x2c5e029baf57adbc6d11a32a1e9871c9981dc6d6e9df6c9dd583e7692f6122ce), uint256(0x12fc2001a8ca19bda58a73204d33fd099c3171bb58a3b3a3d795bd3edd8c5192));\n        vk.gamma_abc[97] = Pairing.G1Point(uint256(0x273e65392027ce45d4a54b44275b72bf353d411b5adbea879c097efdc26d2be8), uint256(0x0db2c6cda72566f1c363233ab6d168bd8f5228816faa45a9f711b7bdb8101a76));\n        vk.gamma_abc[98] = Pairing.G1Point(uint256(0x1d835f64b2ec34ebe550fb99522ccf807311545961e5c66b1984c4b7634b668c), uint256(0x2352e8651cba550e2e2852df1613ca6d1a5c7bf225ccfe21e7aabdebaf3ca8b4));\n        vk.gamma_abc[99] = Pairing.G1Point(uint256(0x01d2f430fc58e60a4d050992d6cf1e4b38e278eaf4449c4fd7608cd94fb4a9a8), uint256(0x01dbc3f44b51b5681ac31ea6df46a9a1aeb52d924fbb84734013f5405d52eb48));\n        vk.gamma_abc[100] = Pairing.G1Point(uint256(0x2a17071b8836eceebdf4d1c375f9bb70c425fe7e77b91c865a6c0cf57eefdf41), uint256(0x100f683a43d84f047fe4792292ea9944cfa5efe8bcb2c1df5bcaad21e11ce72b));\n        vk.gamma_abc[101] = Pairing.G1Point(uint256(0x2a70690eeac09e3212a53278d85f43f0cac029081b758ebe85c10e0ade7a6b75), uint256(0x01d48fbed5b0b419d1c143460ba6e579b451026063233809c31705c08ca18621));\n        vk.gamma_abc[102] = Pairing.G1Point(uint256(0x14b2e7c32c328820abdca1c832325d26e1ae7fa3492938f682bd89fd3029ad65), uint256(0x2d36ad3d6a3fb6b6ef33787983d594cce8cc68dd695d27a37ad0a280063171c1));\n    }\n    function verify(uint[] memory input, Proof memory proof) internal view returns (uint) {\n        uint256 snark_scalar_field = 21888242871839275222246405745257275088548364400416034343698204186575808495617;\n        VerifyingKey memory vk = verifyingKey();\n        require(input.length + 1 == vk.gamma_abc.length);\n        // Compute the linear combination vk_x\n        Pairing.G1Point memory vk_x = Pairing.G1Point(0, 0);\n        for (uint i = 0; i < input.length; i++) {\n            require(input[i] < snark_scalar_field);\n            vk_x = Pairing.addition(vk_x, Pairing.scalar_mul(vk.gamma_abc[i + 1], input[i]));\n        }\n        vk_x = Pairing.addition(vk_x, vk.gamma_abc[0]);\n        if(!Pairing.pairingProd4(\n             proof.a, proof.b,\n             Pairing.negate(vk_x), vk.gamma,\n             Pairing.negate(proof.c), vk.delta,\n             Pairing.negate(vk.alpha), vk.beta)) return 1;\n        return 0;\n    }\n    function verifyTx(\n            Proof memory proof, uint[102] memory input\n        ) public view returns (bool r) {\n        uint[] memory inputValues = new uint[](102);\n        \n        for(uint i = 0; i < input.length; i++){\n            inputValues[i] = input[i];\n        }\n        if (verify(inputValues, proof) == 0) {\n            return true;\n        } else {\n            return false;\n        }\n    }\n}\n",
  "sourcePath": "/Users/dmitriyischenko/Desktop/gas-cost-research/truffle/contracts/AgeCheckWithOneHundredDoubleFor/AgeCheckWithOneHundredDoubleForVerifier.sol",
  "compiler": {
    "name": "solc",
    "version": "0.8.13+commit.abaa5c0e.Emscripten.clang"
  },
  "schemaVersion": "3.4.7",
  "updatedAt": "2022-08-10T04:16:08.816Z",
  "devdoc": {
    "kind": "dev",
    "methods": {},
    "version": 1
  },
  "userdoc": {
    "kind": "user",
    "methods": {},
    "version": 1
  }
}