{
  "contractName": "ASquareCircuitWrappedVerifier",
  "abi": [
    {
      "anonymous": false,
      "inputs": [
        {
          "indexed": false,
          "internalType": "address",
          "name": "_verifier",
          "type": "address"
        },
        {
          "indexed": false,
          "internalType": "bool",
          "name": "result",
          "type": "bool"
        },
        {
          "indexed": false,
          "internalType": "uint256[1]",
          "name": "inputData",
          "type": "uint256[1]"
        }
      ],
      "name": "ASquareCircuitVerifierEvent",
      "type": "event"
    },
    {
      "inputs": [
        {
          "internalType": "address",
          "name": "_verifier",
          "type": "address"
        },
        {
          "components": [
            {
              "components": [
                {
                  "internalType": "uint256",
                  "name": "X",
                  "type": "uint256"
                },
                {
                  "internalType": "uint256",
                  "name": "Y",
                  "type": "uint256"
                }
              ],
              "internalType": "struct Pairing.G1Point",
              "name": "a",
              "type": "tuple"
            },
            {
              "components": [
                {
                  "internalType": "uint256[2]",
                  "name": "X",
                  "type": "uint256[2]"
                },
                {
                  "internalType": "uint256[2]",
                  "name": "Y",
                  "type": "uint256[2]"
                }
              ],
              "internalType": "struct Pairing.G2Point",
              "name": "b",
              "type": "tuple"
            },
            {
              "components": [
                {
                  "internalType": "uint256",
                  "name": "X",
                  "type": "uint256"
                },
                {
                  "internalType": "uint256",
                  "name": "Y",
                  "type": "uint256"
                }
              ],
              "internalType": "struct Pairing.G1Point",
              "name": "c",
              "type": "tuple"
            }
          ],
          "internalType": "struct ASquareCircuitVerifier.Proof",
          "name": "proof",
          "type": "tuple"
        },
        {
          "internalType": "uint256[1]",
          "name": "inputData",
          "type": "uint256[1]"
        }
      ],
      "name": "wrappedTxVerifyASquareCircuitVerifier",
      "outputs": [],
      "stateMutability": "nonpayable",
      "type": "function"
    },
    {
      "inputs": [
        {
          "internalType": "address",
          "name": "_verifier",
          "type": "address"
        },
        {
          "components": [
            {
              "components": [
                {
                  "internalType": "uint256",
                  "name": "X",
                  "type": "uint256"
                },
                {
                  "internalType": "uint256",
                  "name": "Y",
                  "type": "uint256"
                }
              ],
              "internalType": "struct Pairing.G1Point",
              "name": "a",
              "type": "tuple"
            },
            {
              "components": [
                {
                  "internalType": "uint256[2]",
                  "name": "X",
                  "type": "uint256[2]"
                },
                {
                  "internalType": "uint256[2]",
                  "name": "Y",
                  "type": "uint256[2]"
                }
              ],
              "internalType": "struct Pairing.G2Point",
              "name": "b",
              "type": "tuple"
            },
            {
              "components": [
                {
                  "internalType": "uint256",
                  "name": "X",
                  "type": "uint256"
                },
                {
                  "internalType": "uint256",
                  "name": "Y",
                  "type": "uint256"
                }
              ],
              "internalType": "struct Pairing.G1Point",
              "name": "c",
              "type": "tuple"
            }
          ],
          "internalType": "struct ASquareCircuitVerifier.Proof",
          "name": "proof",
          "type": "tuple"
        },
        {
          "internalType": "uint256[1]",
          "name": "inputData",
          "type": "uint256[1]"
        }
      ],
      "name": "wrappedTxVerifyViewASquareCircuitVerifier",
      "outputs": [
        {
          "internalType": "bool",
          "name": "",
          "type": "bool"
        }
      ],
      "stateMutability": "view",
      "type": "function",
      "constant": true
    }
  ],
  "bytecode": "0x608060405234801561001057600080fd5b506105aa806100206000396000f3fe608060405234801561001057600080fd5b5060043610610052577c01000000000000000000000000000000000000000000000000000000006000350463581c9cb281146100575780635f22cbad1461007e575b600080fd5b61006a610065366004610398565b610093565b604051901515815260200160405180910390f35b61009161008c366004610398565b610135565b005b6040517ff48d772900000000000000000000000000000000000000000000000000000000815260009073ffffffffffffffffffffffffffffffffffffffff85169063f48d7729906100ea90869086906004016104bb565b602060405180830381865afa158015610107573d6000803e3d6000fd5b505050506040513d601f19601f8201168201806040525081019061012b9190610518565b90505b9392505050565b6040517ff48d772900000000000000000000000000000000000000000000000000000000815260009073ffffffffffffffffffffffffffffffffffffffff85169063f48d77299061018c90869086906004016104bb565b602060405180830381865afa1580156101a9573d6000803e3d6000fd5b505050506040513d601f19601f820116820180604052508101906101cd9190610518565b90507fd27964f58a0ed133979ba1510be7deae29bd0c8f616f38d78551ce0b63a8e0ef8482846040516102029392919061053a565b60405180910390a150505050565b7f4e487b7100000000000000000000000000000000000000000000000000000000600052604160045260246000fd5b6040516060810167ffffffffffffffff8111828210171561026257610262610210565b60405290565b6040805190810167ffffffffffffffff8111828210171561026257610262610210565b60006040828403121561029d57600080fd5b6040516040810181811067ffffffffffffffff821117156102c0576102c0610210565b604052823581526020928301359281019290925250919050565b600082601f8301126102eb57600080fd5b6102f3610268565b80604084018581111561030557600080fd5b845b8181101561031f578035845260209384019301610307565b509095945050505050565b600082601f83011261033b57600080fd5b604051602080820182811067ffffffffffffffff8211171561035f5761035f610210565b604052818482018681111561037357600080fd5b855b8181101561038c5780358352918301918301610375565b50929695505050505050565b60008060008385036101408112156103af57600080fd5b843573ffffffffffffffffffffffffffffffffffffffff811681146103d357600080fd5b9350610100601f19820112156103e857600080fd5b6103f061023f565b6103fd876020880161028b565b81526080605f198301121561041157600080fd5b610419610268565b915061042887606088016102da565b82526104378760a088016102da565b602083015281602082015261044f8760e0880161028b565b60408201529250610466905085610120860161032a565b90509250925092565b8060005b6002811015610492578151845260209384019390910190600101610473565b50505050565b8060005b600181101561049257815184526020938401939091019060010161049c565b82518051825260209081015190820152610120810160208401516104e360408401825161046f565b602001516104f4608084018261046f565b506040840151805160c08401526020015160e083015261012e610100830184610498565b60006020828403121561052a57600080fd5b8151801515811461012e57600080fd5b73ffffffffffffffffffffffffffffffffffffffff8416815282151560208201526060810161056c6040830184610498565b94935050505056fea264697066735822122082f039d49b7c9145a2e5857baa2a33f834dc94ec37612c697b8909efb35bdc7364736f6c634300080d0033",
  "immutableReferences": {},
  "source": "pragma solidity ^0.8.0;\n\n\n\nimport \"./ASquareCircuitVerifier.sol\";\n\n\ncontract ASquareCircuitWrappedVerifier {\n    //ASquareCircuitVerifier.sol\n\n    event ASquareCircuitVerifierEvent(address _verifier, bool result, uint[1] inputData);\n\n    function wrappedTxVerifyASquareCircuitVerifier(address _verifier, ASquareCircuitVerifier.Proof memory proof, uint[1] memory inputData) public {\n        bool result = ASquareCircuitVerifier(_verifier).verifyTx(proof, inputData);\n        emit ASquareCircuitVerifierEvent(_verifier, result, inputData);\n\n    }\n\n    function wrappedTxVerifyViewASquareCircuitVerifier(address _verifier, ASquareCircuitVerifier.Proof memory proof, uint[1] memory inputData) public view returns(bool) {\n        return ASquareCircuitVerifier(_verifier).verifyTx(proof, inputData);\n    }\n}",
  "sourcePath": "/Users/dmitriyischenko/Desktop/gas-cost-research/truffle/contracts/aSquareCircuit/ASquareCircuitWrappedVerifier.sol",
  "compiler": {
    "name": "solc",
    "version": "0.8.13+commit.abaa5c0e.Emscripten.clang"
  },
  "schemaVersion": "3.4.7",
  "updatedAt": "2022-08-10T05:48:12.088Z",
  "networkType": "ethereum",
  "devdoc": {
    "kind": "dev",
    "methods": {},
    "version": 1
  },
  "userdoc": {
    "kind": "user",
    "methods": {},
    "version": 1
  }
}