{
  "contractName": "BasicAgeCheckImplementationWrappedVerifier",
  "abi": [
    {
      "anonymous": false,
      "inputs": [
        {
          "indexed": false,
          "internalType": "address",
          "name": "_verifier",
          "type": "address"
        },
        {
          "indexed": false,
          "internalType": "bool",
          "name": "result",
          "type": "bool"
        },
        {
          "indexed": false,
          "internalType": "uint256[2]",
          "name": "inputData",
          "type": "uint256[2]"
        }
      ],
      "name": "BasicAgeCheckImplementationEvent",
      "type": "event"
    },
    {
      "inputs": [
        {
          "internalType": "address",
          "name": "_verifier",
          "type": "address"
        },
        {
          "components": [
            {
              "components": [
                {
                  "internalType": "uint256",
                  "name": "X",
                  "type": "uint256"
                },
                {
                  "internalType": "uint256",
                  "name": "Y",
                  "type": "uint256"
                }
              ],
              "internalType": "struct Pairing.G1Point",
              "name": "a",
              "type": "tuple"
            },
            {
              "components": [
                {
                  "internalType": "uint256[2]",
                  "name": "X",
                  "type": "uint256[2]"
                },
                {
                  "internalType": "uint256[2]",
                  "name": "Y",
                  "type": "uint256[2]"
                }
              ],
              "internalType": "struct Pairing.G2Point",
              "name": "b",
              "type": "tuple"
            },
            {
              "components": [
                {
                  "internalType": "uint256",
                  "name": "X",
                  "type": "uint256"
                },
                {
                  "internalType": "uint256",
                  "name": "Y",
                  "type": "uint256"
                }
              ],
              "internalType": "struct Pairing.G1Point",
              "name": "c",
              "type": "tuple"
            }
          ],
          "internalType": "struct BasicAgeCheckImplementationVerifier.Proof",
          "name": "proof",
          "type": "tuple"
        },
        {
          "internalType": "uint256[2]",
          "name": "inputData",
          "type": "uint256[2]"
        }
      ],
      "name": "wrappedTxVerifyBasicAgeCheckImplementation",
      "outputs": [],
      "stateMutability": "nonpayable",
      "type": "function"
    },
    {
      "inputs": [
        {
          "internalType": "address",
          "name": "_verifier",
          "type": "address"
        },
        {
          "components": [
            {
              "components": [
                {
                  "internalType": "uint256",
                  "name": "X",
                  "type": "uint256"
                },
                {
                  "internalType": "uint256",
                  "name": "Y",
                  "type": "uint256"
                }
              ],
              "internalType": "struct Pairing.G1Point",
              "name": "a",
              "type": "tuple"
            },
            {
              "components": [
                {
                  "internalType": "uint256[2]",
                  "name": "X",
                  "type": "uint256[2]"
                },
                {
                  "internalType": "uint256[2]",
                  "name": "Y",
                  "type": "uint256[2]"
                }
              ],
              "internalType": "struct Pairing.G2Point",
              "name": "b",
              "type": "tuple"
            },
            {
              "components": [
                {
                  "internalType": "uint256",
                  "name": "X",
                  "type": "uint256"
                },
                {
                  "internalType": "uint256",
                  "name": "Y",
                  "type": "uint256"
                }
              ],
              "internalType": "struct Pairing.G1Point",
              "name": "c",
              "type": "tuple"
            }
          ],
          "internalType": "struct BasicAgeCheckImplementationVerifier.Proof",
          "name": "proof",
          "type": "tuple"
        },
        {
          "internalType": "uint256[2]",
          "name": "inputData",
          "type": "uint256[2]"
        }
      ],
      "name": "wrappedTxVerifyViewBasicAgeCheckImplementation",
      "outputs": [
        {
          "internalType": "bool",
          "name": "",
          "type": "bool"
        }
      ],
      "stateMutability": "view",
      "type": "function",
      "constant": true
    }
  ],
  "bytecode": "0x608060405234801561001057600080fd5b50610519806100206000396000f3fe608060405234801561001057600080fd5b5060043610610052577c01000000000000000000000000000000000000000000000000000000006000350463452af3b28114610057578063a5a4aedc1461007e575b600080fd5b61006a61006536600461032a565b610093565b604051901515815260200160405180910390f35b61009161008c36600461032a565b610135565b005b6040517f43cd76fc00000000000000000000000000000000000000000000000000000000815260009073ffffffffffffffffffffffffffffffffffffffff8516906343cd76fc906100ea908690869060040161042a565b602060405180830381865afa158015610107573d6000803e3d6000fd5b505050506040513d601f19601f8201168201806040525081019061012b9190610487565b90505b9392505050565b6040517f43cd76fc00000000000000000000000000000000000000000000000000000000815260009073ffffffffffffffffffffffffffffffffffffffff8516906343cd76fc9061018c908690869060040161042a565b602060405180830381865afa1580156101a9573d6000803e3d6000fd5b505050506040513d601f19601f820116820180604052508101906101cd9190610487565b90507fadbf28e306bbe99eae587f78464cd11fdcdae9b1bd52541b7f658b395e31daa4848284604051610202939291906104a9565b60405180910390a150505050565b7f4e487b7100000000000000000000000000000000000000000000000000000000600052604160045260246000fd5b6040805190810167ffffffffffffffff8111828210171561026257610262610210565b60405290565b6040516060810167ffffffffffffffff8111828210171561026257610262610210565b60006040828403121561029d57600080fd5b6040516040810181811067ffffffffffffffff821117156102c0576102c0610210565b604052823581526020928301359281019290925250919050565b600082601f8301126102eb57600080fd5b6102f361023f565b80604084018581111561030557600080fd5b845b8181101561031f578035845260209384019301610307565b509095945050505050565b600080600083850361016081121561034157600080fd5b843573ffffffffffffffffffffffffffffffffffffffff8116811461036557600080fd5b9350610100601f198201121561037a57600080fd5b610382610268565b61038f876020880161028b565b81526080605f19830112156103a357600080fd5b6103ab61023f565b91506103ba87606088016102da565b82526103c98760a088016102da565b60208301528160208201526103e18760e0880161028b565b604082015292506103f890508561012086016102da565b90509250925092565b8060005b6002811015610424578151845260209384019390910190600101610405565b50505050565b8251805182526020908101519082015261014081016020840151610452604084018251610401565b602001516104636080840182610401565b506040840151805160c08401526020015160e083015261012e610100830184610401565b60006020828403121561049957600080fd5b8151801515811461012e57600080fd5b73ffffffffffffffffffffffffffffffffffffffff841681528215156020820152608081016104db6040830184610401565b94935050505056fea264697066735822122005f8eb6a803148ac2745435313d6fcb1cb566341f2721f999846767128716cc664736f6c634300080d0033",
  "immutableReferences": {},
  "source": "pragma solidity ^0.8.0;\n\n\nimport \"./BasicAgeCheckImplementationVerifier.sol\";\n\n\ncontract BasicAgeCheckImplementationWrappedVerifier {\n    //BasicAgeCheckImplementationVerifier.sol\n\n\n    event BasicAgeCheckImplementationEvent(address _verifier, bool result, uint[2] inputData);\n\n    function wrappedTxVerifyBasicAgeCheckImplementation(address _verifier, BasicAgeCheckImplementationVerifier.Proof memory proof, uint[2] memory inputData) public {\n        bool result = BasicAgeCheckImplementationVerifier(_verifier).verifyTx(proof, inputData);\n        emit BasicAgeCheckImplementationEvent(_verifier, result, inputData);\n\n    }\n\n    function wrappedTxVerifyViewBasicAgeCheckImplementation(address _verifier, BasicAgeCheckImplementationVerifier.Proof memory proof, uint[2] memory inputData) public view returns(bool) {\n        return BasicAgeCheckImplementationVerifier(_verifier).verifyTx(proof, inputData);\n    }\n}",
  "sourcePath": "/Users/dmitriyischenko/Desktop/gas-cost-research/truffle/contracts/basicAgeCheckImplementation/BasicAgeCheckImplementationWrappedVerifier.sol",
  "compiler": {
    "name": "solc",
    "version": "0.8.13+commit.abaa5c0e.Emscripten.clang"
  },
  "schemaVersion": "3.4.7",
  "updatedAt": "2022-08-10T06:34:01.076Z",
  "networkType": "ethereum",
  "devdoc": {
    "kind": "dev",
    "methods": {},
    "version": 1
  },
  "userdoc": {
    "kind": "user",
    "methods": {},
    "version": 1
  }
}