{
  "contractName": "BasicAgeCheckPlusFieldMultipleWrappedVerifier",
  "abi": [
    {
      "anonymous": false,
      "inputs": [
        {
          "indexed": false,
          "internalType": "address",
          "name": "_verifier",
          "type": "address"
        },
        {
          "indexed": false,
          "internalType": "bool",
          "name": "result",
          "type": "bool"
        },
        {
          "indexed": false,
          "internalType": "uint256[3]",
          "name": "inputData",
          "type": "uint256[3]"
        }
      ],
      "name": "BasicAgeCheckPlusFieldMultipleVerifierEvent",
      "type": "event"
    },
    {
      "inputs": [
        {
          "internalType": "address",
          "name": "_verifier",
          "type": "address"
        },
        {
          "components": [
            {
              "components": [
                {
                  "internalType": "uint256",
                  "name": "X",
                  "type": "uint256"
                },
                {
                  "internalType": "uint256",
                  "name": "Y",
                  "type": "uint256"
                }
              ],
              "internalType": "struct Pairing.G1Point",
              "name": "a",
              "type": "tuple"
            },
            {
              "components": [
                {
                  "internalType": "uint256[2]",
                  "name": "X",
                  "type": "uint256[2]"
                },
                {
                  "internalType": "uint256[2]",
                  "name": "Y",
                  "type": "uint256[2]"
                }
              ],
              "internalType": "struct Pairing.G2Point",
              "name": "b",
              "type": "tuple"
            },
            {
              "components": [
                {
                  "internalType": "uint256",
                  "name": "X",
                  "type": "uint256"
                },
                {
                  "internalType": "uint256",
                  "name": "Y",
                  "type": "uint256"
                }
              ],
              "internalType": "struct Pairing.G1Point",
              "name": "c",
              "type": "tuple"
            }
          ],
          "internalType": "struct BasicAgeCheckPlusFieldMultipleVerifier.Proof",
          "name": "proof",
          "type": "tuple"
        },
        {
          "internalType": "uint256[3]",
          "name": "inputData",
          "type": "uint256[3]"
        }
      ],
      "name": "wrappedTxVerifyBasicAgeCheckPlusFieldMultipleVerifier",
      "outputs": [],
      "stateMutability": "nonpayable",
      "type": "function"
    },
    {
      "inputs": [
        {
          "internalType": "address",
          "name": "_verifier",
          "type": "address"
        },
        {
          "components": [
            {
              "components": [
                {
                  "internalType": "uint256",
                  "name": "X",
                  "type": "uint256"
                },
                {
                  "internalType": "uint256",
                  "name": "Y",
                  "type": "uint256"
                }
              ],
              "internalType": "struct Pairing.G1Point",
              "name": "a",
              "type": "tuple"
            },
            {
              "components": [
                {
                  "internalType": "uint256[2]",
                  "name": "X",
                  "type": "uint256[2]"
                },
                {
                  "internalType": "uint256[2]",
                  "name": "Y",
                  "type": "uint256[2]"
                }
              ],
              "internalType": "struct Pairing.G2Point",
              "name": "b",
              "type": "tuple"
            },
            {
              "components": [
                {
                  "internalType": "uint256",
                  "name": "X",
                  "type": "uint256"
                },
                {
                  "internalType": "uint256",
                  "name": "Y",
                  "type": "uint256"
                }
              ],
              "internalType": "struct Pairing.G1Point",
              "name": "c",
              "type": "tuple"
            }
          ],
          "internalType": "struct BasicAgeCheckPlusFieldMultipleVerifier.Proof",
          "name": "proof",
          "type": "tuple"
        },
        {
          "internalType": "uint256[3]",
          "name": "inputData",
          "type": "uint256[3]"
        }
      ],
      "name": "wrappedTxVerifyViewBasicAgeCheckPlusFieldMultipleVerifier",
      "outputs": [
        {
          "internalType": "bool",
          "name": "",
          "type": "bool"
        }
      ],
      "stateMutability": "view",
      "type": "function",
      "constant": true
    }
  ],
  "bytecode": "0x608060405234801561001057600080fd5b506105aa806100206000396000f3fe608060405234801561001057600080fd5b5060043610610052577c0100000000000000000000000000000000000000000000000000000000600035046365bc5da681146100575780637461e0cf1461006c575b600080fd5b61006a610065366004610398565b610093565b005b61007f61007a366004610398565b61016e565b604051901515815260200160405180910390f35b6040517f0f9c5d4900000000000000000000000000000000000000000000000000000000815260009073ffffffffffffffffffffffffffffffffffffffff851690630f9c5d49906100ea90869086906004016104bb565b602060405180830381865afa158015610107573d6000803e3d6000fd5b505050506040513d601f19601f8201168201806040525081019061012b9190610518565b90507f6da5be32e91538b5142feed9d48caa455633c4f7fff4c80188f8944b45ee68a48482846040516101609392919061053a565b60405180910390a150505050565b6040517f0f9c5d4900000000000000000000000000000000000000000000000000000000815260009073ffffffffffffffffffffffffffffffffffffffff851690630f9c5d49906101c590869086906004016104bb565b602060405180830381865afa1580156101e2573d6000803e3d6000fd5b505050506040513d601f19601f820116820180604052508101906102069190610518565b90505b9392505050565b7f4e487b7100000000000000000000000000000000000000000000000000000000600052604160045260246000fd5b6040516060810167ffffffffffffffff8111828210171561026257610262610210565b60405290565b6040805190810167ffffffffffffffff8111828210171561026257610262610210565b60006040828403121561029d57600080fd5b6040516040810181811067ffffffffffffffff821117156102c0576102c0610210565b604052823581526020928301359281019290925250919050565b600082601f8301126102eb57600080fd5b6102f3610268565b80604084018581111561030557600080fd5b845b8181101561031f578035845260209384019301610307565b509095945050505050565b600082601f83011261033b57600080fd5b6040516060810181811067ffffffffffffffff8211171561035e5761035e610210565b60405280606084018581111561037357600080fd5b845b8181101561038d578035835260209283019201610375565b509195945050505050565b60008060008385036101808112156103af57600080fd5b843573ffffffffffffffffffffffffffffffffffffffff811681146103d357600080fd5b9350610100601f19820112156103e857600080fd5b6103f061023f565b6103fd876020880161028b565b81526080605f198301121561041157600080fd5b610419610268565b915061042887606088016102da565b82526104378760a088016102da565b602083015281602082015261044f8760e0880161028b565b60408201529250610466905085610120860161032a565b90509250925092565b8060005b6002811015610492578151845260209384019390910190600101610473565b50505050565b8060005b600381101561049257815184526020938401939091019060010161049c565b82518051825260209081015190820152610160810160208401516104e360408401825161046f565b602001516104f4608084018261046f565b506040840151805160c08401526020015160e0830152610209610100830184610498565b60006020828403121561052a57600080fd5b8151801515811461020957600080fd5b73ffffffffffffffffffffffffffffffffffffffff84168152821515602082015260a0810161056c6040830184610498565b94935050505056fea2646970667358221220fc80a0a6b824d32ea4e910c414c755a08e13efa41f2853125128dbc31c841b1864736f6c634300080d0033",
  "immutableReferences": {},
  "source": "pragma solidity ^0.8.0;\n\n\nimport \"./BasicAgeCheckPlusFieldMultipleVerifier.sol\";\n\n\ncontract BasicAgeCheckPlusFieldMultipleWrappedVerifier {\n    //BasicAgeCheckPlusFieldMultipleVerifier\n\n    event BasicAgeCheckPlusFieldMultipleVerifierEvent(address _verifier, bool result, uint[3] inputData);\n\n    function wrappedTxVerifyBasicAgeCheckPlusFieldMultipleVerifier(address _verifier, BasicAgeCheckPlusFieldMultipleVerifier.Proof memory proof, uint[3] memory inputData) public {\n        bool result = BasicAgeCheckPlusFieldMultipleVerifier(_verifier).verifyTx(proof, inputData);\n        emit BasicAgeCheckPlusFieldMultipleVerifierEvent(_verifier, result, inputData);\n\n    }\n\n    function wrappedTxVerifyViewBasicAgeCheckPlusFieldMultipleVerifier(address _verifier, BasicAgeCheckPlusFieldMultipleVerifier.Proof memory proof, uint[3] memory inputData) public view returns(bool) {\n        return BasicAgeCheckPlusFieldMultipleVerifier(_verifier).verifyTx(proof, inputData);\n    }\n\n}",
  "sourcePath": "/Users/dmitriyischenko/Desktop/gas-cost-research/truffle/contracts/BasicAgeCheckPlusFieldMultipleVerifier/BasicAgeCheckPlusFieldMultipleWrappedVerifier.sol",
  "compiler": {
    "name": "solc",
    "version": "0.8.13+commit.abaa5c0e.Emscripten.clang"
  },
  "schemaVersion": "3.4.7",
  "updatedAt": "2022-08-10T10:44:04.875Z",
  "networkType": "ethereum",
  "devdoc": {
    "kind": "dev",
    "methods": {},
    "version": 1
  },
  "userdoc": {
    "kind": "user",
    "methods": {},
    "version": 1
  }
}