{
  "contractName": "EmptyCircuitWrappedVerifier",
  "abi": [
    {
      "anonymous": false,
      "inputs": [
        {
          "indexed": false,
          "internalType": "address",
          "name": "_verifier",
          "type": "address"
        },
        {
          "indexed": false,
          "internalType": "bool",
          "name": "result",
          "type": "bool"
        }
      ],
      "name": "EmptyCircuitVerifierEvent",
      "type": "event"
    },
    {
      "inputs": [
        {
          "internalType": "address",
          "name": "_verifier",
          "type": "address"
        },
        {
          "components": [
            {
              "components": [
                {
                  "internalType": "uint256",
                  "name": "X",
                  "type": "uint256"
                },
                {
                  "internalType": "uint256",
                  "name": "Y",
                  "type": "uint256"
                }
              ],
              "internalType": "struct Pairing.G1Point",
              "name": "a",
              "type": "tuple"
            },
            {
              "components": [
                {
                  "internalType": "uint256[2]",
                  "name": "X",
                  "type": "uint256[2]"
                },
                {
                  "internalType": "uint256[2]",
                  "name": "Y",
                  "type": "uint256[2]"
                }
              ],
              "internalType": "struct Pairing.G2Point",
              "name": "b",
              "type": "tuple"
            },
            {
              "components": [
                {
                  "internalType": "uint256",
                  "name": "X",
                  "type": "uint256"
                },
                {
                  "internalType": "uint256",
                  "name": "Y",
                  "type": "uint256"
                }
              ],
              "internalType": "struct Pairing.G1Point",
              "name": "c",
              "type": "tuple"
            }
          ],
          "internalType": "struct EmptyCircuitVerifier.Proof",
          "name": "proof",
          "type": "tuple"
        }
      ],
      "name": "wrappedTxVerifyEmptyCircuitVerifier",
      "outputs": [],
      "stateMutability": "nonpayable",
      "type": "function"
    },
    {
      "inputs": [
        {
          "internalType": "address",
          "name": "_verifier",
          "type": "address"
        },
        {
          "components": [
            {
              "components": [
                {
                  "internalType": "uint256",
                  "name": "X",
                  "type": "uint256"
                },
                {
                  "internalType": "uint256",
                  "name": "Y",
                  "type": "uint256"
                }
              ],
              "internalType": "struct Pairing.G1Point",
              "name": "a",
              "type": "tuple"
            },
            {
              "components": [
                {
                  "internalType": "uint256[2]",
                  "name": "X",
                  "type": "uint256[2]"
                },
                {
                  "internalType": "uint256[2]",
                  "name": "Y",
                  "type": "uint256[2]"
                }
              ],
              "internalType": "struct Pairing.G2Point",
              "name": "b",
              "type": "tuple"
            },
            {
              "components": [
                {
                  "internalType": "uint256",
                  "name": "X",
                  "type": "uint256"
                },
                {
                  "internalType": "uint256",
                  "name": "Y",
                  "type": "uint256"
                }
              ],
              "internalType": "struct Pairing.G1Point",
              "name": "c",
              "type": "tuple"
            }
          ],
          "internalType": "struct EmptyCircuitVerifier.Proof",
          "name": "proof",
          "type": "tuple"
        }
      ],
      "name": "wrappedTxVerifyViewEmptyCircuitVerifier",
      "outputs": [
        {
          "internalType": "bool",
          "name": "",
          "type": "bool"
        }
      ],
      "stateMutability": "view",
      "type": "function",
      "constant": true
    }
  ],
  "bytecode": "0x608060405234801561001057600080fd5b506104d4806100206000396000f3fe608060405234801561001057600080fd5b5060043610610052577c0100000000000000000000000000000000000000000000000000000000600035046352a255098114610057578063ce2e2c781461006c575b600080fd5b61006a610065366004610338565b610093565b005b61007f61007a366004610338565b610181565b604051901515815260200160405180910390f35b6040517ff6af031100000000000000000000000000000000000000000000000000000000815260009073ffffffffffffffffffffffffffffffffffffffff84169063f6af0311906100e8908590600401610427565b602060405180830381865afa158015610105573d6000803e3d6000fd5b505050506040513d601f19601f82011682018060405250810190610129919061047c565b6040805173ffffffffffffffffffffffffffffffffffffffff8616815282151560208201529192507faeaedc1d10679a0ed2c49c5f56cfe304d13fc8783f22a4669c84fd8d352b9c7f910160405180910390a1505050565b6040517ff6af031100000000000000000000000000000000000000000000000000000000815260009073ffffffffffffffffffffffffffffffffffffffff84169063f6af0311906101d6908590600401610427565b602060405180830381865afa1580156101f3573d6000803e3d6000fd5b505050506040513d601f19601f82011682018060405250810190610217919061047c565b9392505050565b7f4e487b7100000000000000000000000000000000000000000000000000000000600052604160045260246000fd5b6040805190810167ffffffffffffffff811182821017156102705761027061021e565b60405290565b6040516060810167ffffffffffffffff811182821017156102705761027061021e565b6000604082840312156102ab57600080fd5b6040516040810181811067ffffffffffffffff821117156102ce576102ce61021e565b604052823581526020928301359281019290925250919050565b600082601f8301126102f957600080fd5b61030161024d565b80604084018581111561031357600080fd5b845b8181101561032d578035845260209384019301610315565b509095945050505050565b60008082840361012081121561034d57600080fd5b833573ffffffffffffffffffffffffffffffffffffffff8116811461037157600080fd5b9250610100601f198201121561038657600080fd5b61038e610276565b61039b8660208701610299565b81526080605f19830112156103af57600080fd5b6103b761024d565b91506103c686606087016102e8565b82526103d58660a087016102e8565b60208301528160208201526103ed8660e08701610299565b604082015280925050509250929050565b8060005b6002811015610421578151845260209384019390910190600101610402565b50505050565b815180518252602090810151908201526101008101602083015161044f6040840182516103fe565b6020015161046060808401826103fe565b5060409290920151805160c08301526020015160e09091015290565b60006020828403121561048e57600080fd5b8151801515811461021757600080fdfea26469706673582212202617914e7af2504ef96630a8465fb7950da1b13c7d6271fd973e0ae91f50da7564736f6c634300080d0033",
  "immutableReferences": {},
  "source": "pragma solidity ^0.8.0;\n\n\nimport \"./EmptyCircuitVerifier.sol\";\n\ncontract EmptyCircuitWrappedVerifier {\n\n\n\n    //EmptyCircuitVerifier\n    event EmptyCircuitVerifierEvent(address _verifier, bool result);\n\n    function wrappedTxVerifyEmptyCircuitVerifier(address _verifier, EmptyCircuitVerifier.Proof memory proof) public {\n        bool result = EmptyCircuitVerifier(_verifier).verifyTx(proof);\n        emit EmptyCircuitVerifierEvent(_verifier, result);\n\n    }\n\n    function wrappedTxVerifyViewEmptyCircuitVerifier(address _verifier, EmptyCircuitVerifier.Proof memory proof) public view returns(bool) {\n        return EmptyCircuitVerifier(_verifier).verifyTx(proof);\n    }\n}",
  "sourcePath": "/Users/dmitriyischenko/Desktop/gas-cost-research/truffle/contracts/emptyCircuit/EmptyCircuitWrappedVerifier.sol",
  "compiler": {
    "name": "solc",
    "version": "0.8.13+commit.abaa5c0e.Emscripten.clang"
  },
  "schemaVersion": "3.4.7",
  "updatedAt": "2022-08-10T04:30:21.431Z",
  "networkType": "ethereum",
  "devdoc": {
    "kind": "dev",
    "methods": {},
    "version": 1
  },
  "userdoc": {
    "kind": "user",
    "methods": {},
    "version": 1
  }
}